:10000000C0C00000E5C00000E3C00000E1C0000087
:10001000DFC00000DDC00000DBC00000D9C0000070
:10002000D7C00000D5C00000D3C00000D1C0000080
:10003000CFC00000CDC00000CBC00000C9C0000090
:100040000C949808C5C00000EEC400001EC5000056
:10005000BFC00000BDC00000BBC00000B9C00000B0
:10006000B7C00000B5C00000244624530024463C1D
:100070007469746C653E536F6C41726475696E6F20
:100080003C2F7469746C653E3C68313E24442444C2
:100090003A244424443A244424443C2F68313E000A
:1000A0004661696C656420746F2061636365737376
:1000B0002045746865726E657420636F6E74726F2C
:1000C0006C6C657200485454502F312E3020323001
:1000D00030204F4B0D0A436F6E74656E742D54794A
:1000E00070653A20746578742F68746D6C0D0A50D1
:1000F0007261676D613A206E6F2D63616368650D93
:100100000A0D0A00302E706F6F6C2E6E74702E6F99
:1001100072670000000008000201000003040700ED
:1001200000000000000000010204081020408001CF
:10013000020408102001020408102004040404042E
:100140000404040202020202020303030303030085
:10015000000000250028002B0000000000240027DC
:10016000002A00E30004FA0001000000014500003D
:100170008200004000200001080006040001840302
:10018000730511241FBECFEFD8E0DEBFCDBF12E054
:10019000A0E0B1E0E0E3FDE302C005900D92AC3DCC
:1001A000B107D9F726E0ACEDB2E001C01D92A6354B
:1001B000B207E1F711E0C2E8D1E004C02297FE01E6
:1001C0000E948E1BCE37D107C9F7A8D70C94961E74
:1001D00017CFDC011696ED91FC9117979F012F5FC9
:1001E0003F4F17963C932E931697608381E090E0E3
:1001F0000895CF93DF9385E10E948309EC014AE0E3
:1002000050E0BC0181E095E0D2D5CB3882E0D80740
:1002100024F0DE01AA58B24004C0AAE8B2E0AC1B48
:10022000BD0B24E630E00E94761B2DE631E040E075
:1002300050E00E944B1B64E3629FC001639F900DDE
:10024000112464E670E00E94161BCB010596DF9135
:10025000CF91089561E085E00E94020A60E083E0AA
:100260000E94020A61E084E00C94020A60E085E0EA
:100270000E94020A61E083E00E94020A60E084E0DA
:100280000C94020A60E085E00E94020A60E083E0CC
:100290000E94020A60E084E00C94020A4F925F928E
:1002A0006F927F928F929F92AF92BF92CF92DF9286
:1002B000EF92FF9287D728EE33E040E050E00E94B3
:1002C000291B49015A01CA01B90120E13EE040E081
:1002D00050E00E944B1B29013A018CE3C82ED12C1F
:1002E000E12CF12CC501B401A70196010E944B1B22
:1002F000B62ECA01B901A70196010E944B1B462FD9
:100300001092E0021092DF022BE133E03093E20220
:100310002093E1023093E4022093E3022AE08B2D44
:10032000622F0E94F61A1F929F931F928F93842F21
:100330000E94F61A1F929F931F928F93C2016AE048
:1003400070E00E94021B9F938F937F936F9385ECC5
:1003500090E09F938F938DE690E09F938F938DED28
:1003600092E09F938F930E94760A8DB79EB7429634
:100370000FB6F8949EBF0FBE8DBFFF90EF90DF9039
:10038000CF90BF90AF909F908F907F906F905F9035
:100390004F9008951092E0021092DF022BE133E0BB
:1003A0003093E2022093E1023093E4022093E302CF
:1003B0009F938F9385EC90E09F938F9388E690E0D6
:1003C0009F938F938DED92E09F938F930E94760A77
:1003D0008DB79EB708960FB6F8949EBF0FBE8DBF1F
:1003E0000895CF92DF92EF92FF920F931F93CF93D6
:1003F000DF93CDB7DEB72C970FB6F894DEBF0FBEF4
:10040000CDBF0E949C0E0E9434128C01009709F40B
:10041000F5C061E070E080E090E003D71092E00268
:100420001092DF028BE193E09093E2028093E1026D
:100430009093E4028093E3020B511D4F45E050E09E
:10044000B80183E691E00E94C81D892B19F069E686
:1004500071E0C5C0780185E0E80EF11CF8018581E6
:10046000803211F41BDFBEC04AE050E0B7018EE7D6
:1004700091E00E94C81D892B21F4F8DE89E891E003
:100480000CC04CE050E0B7018AE991E00E94C81D21
:10049000892B39F4DFDE87EA91E07CDF1092DC0201
:1004A000A1C04CE050E0B7018AEB91E00E94C81D6A
:1004B000892B21F4E7DE87EC91E0EFCF4CE050E0B0
:1004C000B70182EE91E00E94C81D892B39F48FEEAE
:1004D00091E060DF81E08093DC0284C04CE050E07A
:1004E000B70186E092E00E94C81D892B19F485E1CE
:1004F00092E0D3CF49E050E0B7018DE292E00E9454
:10050000C81D892B09F037C06DEB72E0CE0107964C
:10051000E1D4F8016685CE010796CAD5F801678552
:10052000CE010796C5D5CE010796ECD56B017C01AF
:100530004AE0CE01019657D5BE016F5F7F4FCE01D5
:10054000079630D5CE0101965AD467E372E0CE010A
:1005500007969FD56FE372E081E095E068D34AE0AB
:1005600050E0B60181E095E022D48F81988512DFBA
:100570001092DC022EC047E050E0B70183E592E024
:100580000E94C81D892B49F534DE4AE0BC01CE012A
:10059000079629D58091DC02BE01695F7F4F8823D1
:1005A00031F0CE010196F6D46BE572E005C0CE01C4
:1005B0000196F0D461E672E0CE0101968BD5BC01C4
:1005C000CE010796D2D4CE01019619D48F81988599
:1005D000E1DECE01079613D405C069E672E081E042
:1005E00095E040D38091E3029091E4022091E102F2
:1005F0003091E202821B930B0E9497102C960FB64B
:10060000F894DEBF0FBECDBFDF91CF911F910F9148
:10061000FF90EF90DF90CF9008950F931F93CF93AB
:10062000DF9300D000D0CDB7DEB760911E018BEA1A
:1006300095E00E94A7100E949C0E8C010E9434122B
:10064000012BC9F360911E01CE0101960E94F710A3
:10065000882389F349815A816B817C8140585E47A8
:100660006A4A734889ED94E00E94BE1A0F900F9079
:100670000F900F90DF91CF911F910F91089561E03E
:1006800083E087D661E084E084D661E085E081D6AE
:10069000F9DD26E040E855E260E070E081E095E0B9
:1006A00060D14AE063E271E084EF91E00E94740B54
:1006B000811105C060EA70E081E095E0C3D220E0DE
:1006C00030E040E050E060E070E08FE191E00E94B7
:1006D000960B63EC75E088E792E00E94441560E0B9
:1006E00084E091E00E94C90B811105C069E872E0C5
:1006F00081E095E0B7D26BEA75E084E992E00E9470
:1007000044158BDF0C943E19CF92DF92EF92FF924B
:100710000F931F938DB79EB70C970FB6F8949EBF9B
:100720000FBE8DBFADB7BEB711968CE0E6E0F1E02D
:1007300001900D928A95E1F7C0901201D0901301BB
:10074000E0901401F090150100911601109117012D
:10075000209118013091190140911A0150911B010B
:1007600060911C0170911D0189ED94E00E946F1948
:100770001092E0021092DF0287EA92E09093DE028C
:100780008093DD028DB79EB70C960FB6F8949EBF8E
:100790000FBE8DBF1F910F91FF90EF90DF90CF9014
:1007A0000895FC01818D228D90E0805C9F4F821B1B
:1007B00091098F7399270895FC01918D828D981767
:1007C00031F0828DE80FF11D858D90E008958FEF57
:1007D0009FEF0895FC01918D828D981761F0828DB5
:1007E000DF01A80FB11D5D968C91928D9F5F9F7365
:1007F000928F90E008958FEF9FEF08958AE695E03D
:10080000892B41F080E090E0892B21F063D18111A8
:100810000C9400000895FC01848DDF01A80FB11D28
:10082000A35ABF4F2C91848D90E001968F73992726
:10083000848FA689B7892C93A089B1898C91806413
:100840008C93938D848D981306C00288F389E02DD4
:1008500080818F7D80830895CF93DF93EC01888D15
:100860008823C1F0EA89FB89808185FD05C0A889BC
:10087000B9898C9186FD0EC00FB607FCF5CF80813B
:1008800085FFF2CFA889B9898C9185FFEDCFCE0184
:10089000C2DFE8CFDF91CF910895CF92DF92FF9230
:1008A0000F931F93CF93DF931F92CDB7DEB76C01E9
:1008B00081E0D60158968C9358975B969C915B97F4
:1008C0005C968C915C97981307C05096ED91FC91C3
:1008D0005197808185FD2DC0F601038D10E00F5FDB
:1008E0001F4F0F731127F02EF601848DF81210C0E0
:1008F0000FB607FCF9CFD6015096ED91FC915197B8
:10090000808185FFF1CFC601698385DF6981ECCFE6
:10091000838DE80FF11DE35AFF4F6083D6015B968C
:100920000C935B975296ED91FC9153978081806276
:100930000CC0D6015696ED91FC9157976083509666
:10094000ED91FC91519780818064808381E090E0FB
:100950000F90DF91CF911F910F91FF90DF90CF907B
:100960000895BF92CF92DF92EF92FF92CF93DF93E1
:10097000EC016A017B01B22EE889F98982E080836B
:10098000411581EE580761057105A1F060E079E03D
:100990008DE390E0A70196010E94291B21503109A7
:1009A000410951095695479537952795211580E1BD
:1009B000380798F0E889F989108260E874E88EE1D8
:1009C00090E0A70196010E94291B2150310941099D
:1009D00051095695479537952795EC85FD853083C8
:1009E000EE85FF852083188EEC89FD89B082EA8927
:1009F000FB89808180618083EA89FB8980818860AE
:100A00008083EA89FB89808180688083EA89FB8909
:100A100080818F7D8083DF91CF91FF90EF90DF9079
:100A2000CF90BF9008951F920F920FB60F9211248E
:100A30002F938F939F93EF93FF93E0911105F09184
:100A400012058081E0911705F091180582FD12C012
:100A5000908180911A058F5F8F7320911B058217FB
:100A600051F0E0911A05F0E0EF5FFA4F958F809317
:100A70001A0501C08081FF91EF919F918F912F9175
:100A80000F900FBE0F901F9018951F920F920FB6E8
:100A90000F9211242F933F934F935F936F937F9304
:100AA0008F939F93AF93BF93EF93FF9381E095E074
:100AB000B2DEFF91EF91BF91AF919F918F917F91A6
:100AC0006F915F914F913F912F910F900FBE0F90BB
:100AD0001F90189581E095E064DE21E0892B09F4F0
:100AE00020E0822F0895109204051092030588EEED
:100AF00093E0A0E0B0E08093050590930605A093F5
:100B00000705B09308058FEA92E090930205809361
:100B1000010585EC90E090930E0580930D0584EC23
:100B200090E09093100580930F0580EC90E09093F7
:100B300012058093110581EC90E090931405809349
:100B4000130582EC90E0909316058093150586ECD2
:100B500090E0909318058093170510921A05109253
:100B60001B0510921C0510921D050895CF92DF926F
:100B7000EF92FF920F931F93CF93DF937C016A0153
:100B8000EB0100E010E00C151D0571F06991D70133
:100B9000ED91FC910190F081E02DC7010995892B21
:100BA00019F00F5F1F4FEFCFC801DF91CF911F9159
:100BB0000F91FF90EF90DF90CF9008956115710530
:100BC00081F0DB010D900020E9F7AD0141505109A2
:100BD000461B570BDC01ED91FC910280F381E02D67
:100BE000099480E090E00895EF92FF920F931F9395
:100BF000CF93DF938C017B01C0E0D0E0F701EC0FD5
:100C0000FD1F6491662359F0F801A081B181ED9137
:100C1000FC91C8010995892B11F02196EFCFCE01E7
:100C2000DF91CF911F910F91FF90EF900895C6CF64
:100C3000DC01ED91FC910190F081E02D09946BEBCA
:100C400072E0BCCF0F931F93CF93DF93EC01CCDF07
:100C50008C01CE01F4DF800F911FDF91CF911F91A6
:100C60000F9108950F931F93CF93DF93EC01A6DFAD
:100C70008C01CE01E4DF800F911FDF91CF911F9196
:100C80000F9108958F929F92AF92BF92DF92EF9251
:100C9000FF920F931F93CF93DF93CDB7DEB7A1974A
:100CA0000FB6F894DEBF0FBECDBF7C01F42FD52E5A
:100CB000CB0119A2223008F42AE08E010F5D1F4FEC
:100CC000822E912CA12CB12C6F2F7D2DA50194018A
:100CD0000E94291BF22FD32ECA01015011096A303C
:100CE00014F4E0E301C0E7E3E60FD801EC93232B13
:100CF000242B252B49F7B801C70160DFA1960FB659
:100D0000F894DEBF0FBECDBFDF91CF911F910F9141
:100D1000FF90EF90DF90BF90AF909F908F900895DD
:100D2000CF92DF92EF92FF920F931F93CF93DF93B7
:100D3000EC016A017B012115310579F4E881F98123
:100D40000190F081E02D642FDF91CF911F910F91E1
:100D5000FF90EF90DF90CF9009942A303105D9F4BD
:100D600077FF18C06DE264DF8C0144275527BA0174
:100D70004C195D096E097F092AE0CE0183DF800FDF
:100D8000911FDF91CF911F910F91FF90EF90DF9016
:100D9000CF9008952AE0B701A601CE01DF91CF914F
:100DA0001F910F91FF90EF90DF90CF906BCF0F933B
:100DB0001F93CF93DF93EC019A01AB01662757FD98
:100DC0006095762FADDF8C01CE0139DF800F911F4A
:100DD000DF91CF911F910F9108952115310541F4B5
:100DE000DC01ED91FC910190F081E02D642F0994DC
:100DF00049CF9A01462F50E060E070E0EECFFC0151
:100E0000808191810C942A1CCF93DF93EC0188811F
:100E10009981009711F00E942A1C198218821D8264
:100E20001C821B821A82DF91CF9108950F931F932A
:100E3000CF93DF93EC018B016F5F7F4F88819981A6
:100E40000E94B91C009731F0998388831B830A8321
:100E500081E001C080E0DF91CF911F910F91089553
:100E6000CF93DF93EC0188819981892B29F08A81C6
:100E70009B818617970758F4CE01D8DF882341F06D
:100E80008C819D81892B19F4E881F981108281E0A0
:100E9000DF91CF910895EF92FF920F931F93CF931D
:100EA000DF93EC017B018A01BA01DADF811103C013
:100EB000CE01AADF07C01D830C83B7018881998109
:100EC0000E94C11DCE01DF91CF911F910F91FF9024
:100ED000EF900895FC011182108213821282158214
:100EE00014826115710551F0FB0101900020E9F7B2
:100EF000AF0141505109461B570BCDCF08950F93B9
:100F00001F93CF93DF938C01EB01FC0180819181D2
:100F1000009799F0428153812C813D8142175307FC
:100F200050F0688179810E94C11D8C819D81F801FA
:100F30009583848313C00E942A1C88819981F801BB
:100F4000918380838A819B81938382838C819D811D
:100F500095838483198218821B821A821D821C82C7
:100F6000DF91CF911F910F910895CF93DF93EC0103
:100F7000FB018617970751F060817181611571053A
:100F800021F04481558187DF01C03EDFCE01DF9132
:100F9000CF910895FC011182108213821282158272
:100FA0001482E3CFCF93DF93EC018617970709F004
:100FB000A6DFCE01DF91CF910895CF93DF93EC01AF
:100FC0006115710559F0FB0101900020E9F7AF01AF
:100FD00041505109461B570B5EDF01C015DFCE01A2
:100FE000DF91CF9108950F931F93CF93DF93CDB7E8
:100FF000DEB762970FB6F894DEBF0FBECDBF8C018F
:10100000CB01F801118210821382128215821482A0
:1010100050E0BE016F5F7F4F0E94D61DBE016F5F23
:101020007F4FC801CADF62960FB6F894DEBF0FBECD
:10103000CDBFDF91CF911F910F910895EF92FF9255
:101040000F931F93CF93DF93EC017B010C811D81E4
:101050006115710511F480E015C04115510589F045
:10106000040F151FB801FCDE8823A9F328813981FC
:101070008C819D81B701820F931F0E94C11D1D832A
:101080000C8381E0DF91CF911F910F91FF90EF9042
:1010900008956115710551F0FB0101900020E9F7F9
:1010A000AF0141505109461B570BC8CF80E008954E
:1010B000CF93DF9300D0CDB7DEB769831A8241E0CA
:1010C00050E0BE016F5F7F4FB9DF0F900F90DF914F
:1010D000CF910895CF93DF93EC016115710561F015
:1010E000FB0101900020E9F7AF0141505109461B77
:1010F000570BA4DF811102C0CE0186DECE01DF9145
:10110000CF910895FC0180819181009711F00C949A
:101110007C1D60E070E0CB0108950895B9D0FDDF3B
:10112000AEDACEEFD3E05DD92097E9F367DBFBCFF2
:101130001F920F920FB60F9211242F933F938F930C
:101140009F93AF93BF9380919F059091A005A0912D
:10115000A105B091A20530919E0523E0230F2D3704
:1011600020F40196A11DB11D05C026E8230F0296AB
:10117000A11DB11D20939E0580939F059093A0050E
:10118000A093A105B093A2058091A3059091A40519
:10119000A091A505B091A6050196A11DB11D809352
:1011A000A3059093A405A093A505B093A605BF91B0
:1011B000AF919F918F913F912F910F900FBE0F9004
:1011C0001F9018952FB7F89460919F057091A00516
:1011D0008091A1059091A2052FBF08953FB7F89483
:1011E0008091A3059091A405A091A505B091A605B5
:1011F00026B5A89B05C02F3F19F00196A11DB11D72
:101200003FBF6627782F892F9A2F620F711D811D8E
:10121000911D42E0660F771F881F991F4A95D1F7ED
:1012200008958F929F92AF92BF92CF92DF92EF92EA
:10123000FF926B017C01D2DF4B015C01C114D10430
:10124000E104F104E1F013D1C9DF681979098A09D1
:101250009B09683E73408105910580F321E0C21A25
:10126000D108E108F10888EE880E83E0981EA11CE1
:10127000B11CC114D104E104F10431F7DFCFFF90B8
:10128000EF90DF90CF90BF90AF909F908F90089598
:10129000789484B5826084BD84B5816084BD85B551
:1012A000826085BD85B5816085BDEEE6F0E0808118
:1012B00081608083E1E8F0E0108280818260808339
:1012C000808181608083E0E8F0E0808181608083BC
:1012D000E1EBF0E0808184608083E0EBF0E08081EE
:1012E00081608083EAE7F0E0808184608083808190
:1012F0008260808380818160808380818068808338
:101300001092C10008958E3008F08E5087702091A1
:10131000290190E4299F90011124822B80937C0065
:1013200080917A00806480937A0080917A0086FDB3
:10133000FCCF809178002091790090E0922B089565
:10134000833081F028F4813099F08230A1F0089543
:101350008730A9F08830B9F08430D1F480918000D2
:101360008F7D03C0809180008F77809380000895E7
:1013700084B58F7702C084B58F7D84BD0895809138
:10138000B0008F7703C08091B0008F7D8093B00054
:101390000895CF93DF9390E0FC01E95DFE4F249127
:1013A000FC01E55CFE4F8491882349F190E0880FB1
:1013B000991FFC01E75AFE4FA591B491815B9E4FA6
:1013C000FC01C591D4919FB7611108C0F8948C912C
:1013D000209582238C93888182230AC0623051F445
:1013E000F8948C91322F309583238C938881822BB3
:1013F000888304C0F8948C91822B8C939FBFDF91DB
:10140000CF9108950F931F93CF93DF931F92CDB782
:10141000DEB7282F30E0F901ED5EFE4F8491F9012F
:10142000E95DFE4F1491F901E55CFE4F0491002344
:10143000C1F0882319F0698383DF6981E02FF0E030
:10144000EE0FFF1FE15BFE4FA591B4919FB7F8949B
:101450008C91611103C01095812301C0812B8C9365
:101460009FBF0F90DF91CF911F910F910895089525
:10147000CF93DF93EC01FB018A30910540F06AE0E5
:1014800070E00E94021BCB01BF01F2DFFC01CE0124
:101490006AE070E00E94021B805D80831182CF01B0
:1014A0000196DF91CF910895E82FF0E093E0F59554
:1014B000E7959A95E1F7E353FA4F877041E050E0E2
:1014C00060E070E004C0440F551F661F771F8A95C7
:1014D000D2F78081842B80830895CF93C8E3C150D5
:1014E00019F08C2FE1DFFBCFCF910895AF92BF921F
:1014F000CF92DF92EF92FF920F931F93CF93DF93E0
:10150000CDB7DEB70D851E85EF84F8885E0121E139
:10151000A20EB11CC7010196F7014491442309F4BE
:10152000D8C0443279F0D8011696ED91FC91179706
:101530009F012F5F3F4F17963C932E931697408342
:101540007C01E8CFB2E0EB0EF11CFC018491863403
:1015500009F472C064F48434C9F0853409F09CC085
:10156000F50180819181F2E0AF0EB11C7DC0D80100
:1015700016964D915C9117978C3409F445C08335CC
:1015800009F44FC0883409F087C00CC06501B2E08F
:10159000CB0ED11CF80166817781D5018D919C918C
:1015A00067DF88C095012E5F3F4FF5016081862F70
:1015B000992787FD9095E4E095958795EA95E1F761
:1015C0008F70962F9F709A300CF0995F70E3D72E32
:1015D000D90E8A300CF0895FBA016F5F7F4FD80156
:1015E00017967C936E931697805DFA01808316960A
:1015F000ED91FC911797CF01019617969C938E93CE
:101600001697D082590186CF6501F4E0CF0ED11C28
:10161000D5016D917D918D919C912AE00E94EA1DEA
:1016200049C06501B2E0CB0ED11CF501608171812A
:10163000CA010E94C11D3EC0F5010190F081E02D5C
:1016400022E0A20EB11C2491AF014F5F5F4F222315
:1016500009F460CFF801A681B781CD010196978387
:1016600086832C93FA01EFCF6C01BFEFCB1ADB0A14
:101670000E94471E882309F44DCFD8011696ED919C
:10168000FC9117979F012F5F3F4F17963C932E9326
:1016900016978083C601E8CFD8011696ED91FC918C
:1016A00017979F012F5F3F4F17963C932E931697E6
:1016B000808330CFD8011696ED91FC911797019059
:1016C0000020E9F731971796FC93EE931697560191
:1016D00021CFDF91CF911F910F91FF90EF90DF907D
:1016E000CF90BF90AF9008950F931F93CF93DF9348
:1016F00000D01F92CDB7DEB78C011092AA0588E307
:101700004B8369837A83E9DE69817A8187EC95E08E
:101710000E9422154B8167EC75E0C8010F900F9075
:101720000F90DF91CF911F910F9124C2EF92FF9202
:101730000F931F93CF93DF938B017A01E9011092EE
:10174000AA05009729F0BC0183EC95E00E941715CB
:101750000115110511F0C801F3D5E114F10429F0C8
:10176000B7018FEA95E00E941715209729F0BE0176
:101770008FEB95E00E941715EED51092A8051092F8
:10178000A70581E0DF91CF911F910F91FF90EF901E
:101790000895EF92FF920F931F93CF93DF93D82F6B
:1017A000F92EE62E0FDD8B0176D2C82F811110C0E5
:1017B00009DD601B710B60337547B0F3C0E0DFC01B
:1017C000BBD252D6FFDC601B710B60337547B0F79C
:1017D000A8D58111F5CF1092AB051092AC051092EF
:1017E000AD051092AE058091D4058F5F8093D4052E
:1017F0009091AF0591110BC048E058E0BA014093B9
:10180000AF055093B0056093B1057093B20590E0B9
:1018100045E350E06FEA75E0906E0CD58CE0EFE0A8
:10182000F3E0DF011D928A95E9F7ABE1B3E06D2F9C
:101830007F2D362F3D1BFB01EE2011F0208101C0D2
:1018400024916F5F7F4F2E3251F0222341F0862F7B
:101850008D1BAD01480F511DFA012083EACFCD0148
:1018600001963C93DC01A30FB11D222319F0D62F62
:10187000F72EDDCF1C9211961C92119721E0129643
:101880002C93129713961C92139714962C931497DB
:1018900085EE92E0A81BA552A0930F038091D4057A
:1018A0008093100320931103209314038A2F90E058
:1018B0001DD588DC8B018091AB05811160C082DC75
:1018C000601B710B6033754708F078CF35D27C010F
:1018D000009789F3C9D5892B71F746E4E416F10422
:1018E00050F380910803853331F780910903803EDE
:1018F00011F780910A039091D4058913DCCF909160
:1019000010039813D8CF809112038F7009F056CF2F
:10191000E0910F03F0E0E15FFC4FC7018B519D4F59
:101920002081207C19F0DF0112960BC03196DF0177
:10193000E817F90730F4FD0131962C912111F7CF0A
:10194000DF019D01225F3F4F8217930708F4B3CF59
:1019500011962C9111971996EC911997213051F409
:10196000E43041F4BD01665F7F4F8BEA95E00E9451
:101970001715A1CFF0E03A96EA0FFB1FD1CF8C2FBD
:10198000DF91CF911F910F91FF90EF9008958EBD41
:101990000DB407FEFDCF089561E08091D80532DDDA
:1019A00078940895F89460E08091D8052BCD1F932A
:1019B000CF93DF9300D0CDB7DEB7182F4A8369836A
:1019C000F1DF6981862F8F71812BE1DF4A81842FBE
:1019D000DEDF0F900F90DF91CF911F91DDCF1F932E
:1019E000CF93DF93182F1076C12FD0E02091D90527
:1019F00030E0C217D30791F043E06FE180EAD7DF10
:101A00001093D905AE0185E0559547958A95E1F784
:101A10006FE180E8DF91CF911F91C9CFDF91CF9126
:101A20001F9108951F93CF93DF931F92CDB7DEB719
:101A3000182F6983D4DF4981612F80E40F90DF91F3
:101A4000CF911F91B4CF1F93CF93DF931F92CDB748
:101A5000DEB7182F7983E6DF7981672F81E0810F68
:101A60000F90DF91CF911F91DDCF0F931F93CF93F5
:101A7000DF93EC018B0196DF209729F4DF91CF9162
:101A80001F910F9189CF8AE782DFF80181918EBD86
:101A9000C00FD11FEC17FD0731F081910DB407FE87
:101AA000FDCF8EBDF7CF0DB407FEFDCFE7CF0F936F
:101AB0001F93CF93DF93EC018B0174DF2097B9F074
:101AC0008AE365DF1EBCF801CE010197009739F06B
:101AD0000DB407FEFDCF2EB51EBC2193F6CF219786
:101AE000C00FD11F0DB407FEFDCF8EB58883DF91E7
:101AF000CF911F910F9150CF1F93CF93DF931F92E0
:101B0000CDB7DEB7182F4EDF812F8F7140DF80E019
:101B10003EDF17FF02C080E03ADF8EB589833CDFED
:101B200089810F90DF91CF911F910895CF93C82F96
:101B300056DF8C2FCF91E0CF61E08AE02ADC61E0B4
:101B40008AE060DC61E08BE024DC61E08DE021DC98
:101B500060E08CE01EDC61E08BE054DC60E08BE058
:101B600051DC60E08DE04EDC80E58CBD8DB58160A0
:101B70008DBD08950F931F93CF93DF931F92CDB721
:101B8000DEB78B019093DC058093DB050CB406FC7B
:101B900003C04983D1DF49814093D80561E0842F98
:101BA000F8DBFADE4FEF60E08FEF01DF62E070E01C
:101BB00080E090E036DB8DE19FDF8823E1F360E099
:101BC00070E088E040DF60E070E08CE03CDF6FEFC9
:101BD0007BE08AE038DF60E07CE084E034DF6FEFB8
:101BE00071E186E030DF61EB88E31CDF6FE370E3D7
:101BF00088E229DF69EF77EF80E325DF6DE080EC95
:101C000011DF60E081EC0EDF42E362EC80E8CFDEC2
:101C100062E17CE086EC17DF62E184EC03DF6CEDCF
:101C200075E08AEC10DFF801608184EEFBDEF801DC
:101C3000618185EEF7DEF801628182EEF3DEF80164
:101C4000638183EEEFDEF801648180EEEBDEF80164
:101C5000658181EEE7DE60E184EDE4DE60E071E065
:101C600086EDF1DE8AEE62DF80FDFCCF8FE1B7DE2C
:101C700040EC6BE180E89BDE44E06FE180E897DEBA
:101C800082E754DF863008F08F5F0F90DF91CF91AD
:101C90001F910F91089561E184EDC4DE61E082ED52
:101CA000C1DE8AEE43DF80FDFCCF60E082EDBADE6C
:101CB00089ED3CDF82FB882780F90895CF93DF937D
:101CC000EC0140E86FE180E872DE40E86FE180EA15
:101CD0006EDE4AE06CE180EA6ADE60E07CE082E091
:101CE000B2DEBE01745F86E0AEDE40E060E08AE70F
:101CF0005EDE65EE72E0CE01B8DE48E06FE180E8BE
:101D000056DEC0E0D0E08CE111DF8A7029F4219624
:101D1000C83E83E0D807B9F78CE108DF81FD03C036
:101D2000C83ED34030F048E06FE180EADF91CF91C8
:101D30003ECEDF91CF9108950F931F93CF93DF9302
:101D400000D000D000D0CDB7DEB78091D705882372
:101D500081F06091D5057091D6056115710519F472
:101D60006FEF7BE002C0615071098CE06CDE109275
:101D7000D70589E3DBDE8823A9F16091D505709151
:101D8000D60580E060DEBE016F5F7F4F86E090E0A9
:101D90008EDE89819A819093D6058093D5058B81BB
:101DA0009C810091DB051091DC052D8127FF0CC083
:101DB0000497015011098017910708F48C0165EE12
:101DC00072E0C80174DE02C000E010E0F801EB51DF
:101DD000FD4F108281E08093D70540E46EE180E8FA
:101DE000E6DD02C000E010E0C80126960FB6F894C8
:101DF000DEBF0FBECDBFDF91CF911F910F91089530
:101E0000CF93C82F88E392DE682F616088E30ADEF3
:101E1000C11103C081E08093DA05CF91089581114B
:101E200002C01092DA058091DA05811106C088E3BC
:101E30007DDE682F6E7F88E3F5CD08950F931F93A5
:101E4000CF93DF9370E06B517D4F213021F48A01F5
:101E5000075F1F4F05C0223031F48A01025011097B
:101E600020E030E003C000E010E09801DB01FA015F
:101E7000E230F10578F0CC91D0E0DC2FCC27119640
:101E80009C911197C92B0C0F1D1F211D311D1296FE
:101E90003297EECFDA01AE7FA60FB71F40FF0CC01E
:101EA0004C9150E060E070E0762F652F542F44276E
:101EB000040F151F261F371FA90166277727411515
:101EC00051056105710519F022273327F1CF0095DF
:101ED0001095E82FF0E0EB51FD4F10830183DF9167
:101EE000CF911F910F9108951092FD021092FE0262
:101EF00080E48093F9021092FA028093FB0220E0C2
:101F000044E150E06EE088E199CF209109033091DF
:101F10000703309309032093070320910A033091AC
:101F2000080330930A0320930803EFE0F3E0A3E1F2
:101F3000B3E02291820F911D2E918C93662311F0B4
:101F4000208301C01082892F992723E0EB30F2070C
:101F500081F7109217031092180380E58093130302
:101F60000895CF93DF93EC0188969093F5028093C8
:101F7000F602BADF1092170310921803AE01445E06
:101F80005F4F22E06AE182E359DFCE01C696DF911E
:101F9000CF9194CEBC0185EE92E054D567EC75E00C
:101FA0008BEE92E04FC58BEE92E0F4DF6FEF72E0C4
:101FB00083E093E03CD563EC75E08FEF92E037D59A
:101FC00093CF262F206120931403643021F00097D3
:101FD00011F481E090E061E098DF1092F50288E270
:101FE0008093F602E0DF84E08093150310921603DD
:101FF00022E04CE150E06AE182E320DF86E390E0FA
:102000005DCECF93DF9300D0CDB7DEB769837A83FF
:10201000C1DF69817A8183E093E009D563EC75E0E3
:102020008FEF92E00F900F90DF91CF9100C51F933B
:10203000CF93DF93EC018AEC92E0ACDF88E08093F1
:10204000F10216E01093F20248E050E066E771E01A
:1020500083EF92E00E94A21DE5E0F3E0DF011D9214
:102060001A95E9F767EC75E08BEF92E0EBD4BE01CF
:102070008BE093E0DCD463EC75E081E093E0D7D4AF
:102080008AE290E0DF91CF911F9118CECF93DF933A
:10209000EB0144E050E0BC0181E093E00E94AB1D05
:1020A000892B31F46BEF72E0CE01CCD481E001C01A
:1020B00080E0DF91CF910895CF93DF932091C30506
:1020C0002223A9F0FC012081222389F0E3ECF5E032
:1020D000EC01AFEBB5E0219189919D918227892395
:1020E00031F485E0E73CF807B1F781E001C080E01A
:1020F000DF91CF9108958091F50290E0982F882785
:102100002091F602822B44972091130330E064E083
:10211000359527956A95E1F7220F331F220F331F5C
:10212000821B930B97FF02C080E090E00895CF934D
:10213000DF93EC0160E08091DD059091DE0541DFE9
:1021400089E180931403CE01DF91CF910ACF1F93D1
:10215000CF93DF93EC01162FAFDFBE01882319F078
:102160008AEE95E002C080EE95E04BDF88E0809338
:10217000F1021092F20249E050E06DE671E083EF67
:1021800092E00E94A21D8CE48093F60281E180938C
:10219000FC02AADE109209038BE780930A038AE00F
:1021A000809307031093080310920B0388E3809336
:1021B0000C0310920D0310920E0380E3EFE0F3E0A6
:1021C000DF011D928A95E9F74AE050E063E671E08D
:1021D000CF010E94A21D21E040E450E06AE188E2C4
:1021E0002DDE8AE590E0DF91CF911F9167CDFC0154
:1021F000662321F080910A0386131AC080910B0395
:10220000811116C080910C03883391F480910803EA
:102210008B3771F4809137038383809138038283F5
:1022200080913903818380913A03808381E008950E
:1022300080E00895CF92DF92EF92FF920F931F9369
:10224000CF93DF93F82EE92EEB01D42EC52ECB01D0
:1022500033DFBE01882319F08AEE95E002C080EEDC
:1022600095E0CFDE2881207F203E91F00881198102
:102270002A813B810F3F1F4F2F4F3F4F49F044E0D2
:1022800050E0BE018BEB95E00E94AB1D892B29F439
:102290006AEC72E085EE92E0D5D388E08093F1029B
:1022A0001092F20249E050E06DE671E083EF92E0B7
:1022B0000E94A21D1092F50281E18093FC02C0925F
:1022C0000903D0920A03E0920703F09208031092E8
:1022D0000B0310920D0310920E03DF91CF911F910B
:1022E0000F91FF90EF90DF90CF900895CF93DF9301
:1022F000EC014C969093F5028093F602F5DDCE0149
:10230000089690930B0380930C03AE01405F5F4FE0
:1023100021E06AE188E292DDCE018A96DF91CF91D9
:10232000CDCC8FEA95E0C8DE882319F08091E805CE
:1023300004C08091DF058695817091E0892708951A
:102340001092A8051092A70521E02093DF05BC019B
:1023500087EB95E06CC3CF93DF93E3ECF5E0CFEB35
:10236000D5E0ABEBB5E0919189918095892B8D9368
:1023700085E0E73CF807B9F7DF91CF9108951F9307
:10238000CF93DF93EB014091090350E0292F30E018
:102390004217530709F060C090910A0398135CC07C
:1023A0001091140311FF37C01092F5028CE2809354
:1023B000F602F9DD82E18093140360E081E090E0B1
:1023C000A4DD10920B0310920C0380912C018093DA
:1023D0000D0310920E038D5F80932C0182E0809399
:1023E0001B0384E080931C0385E080931D031092FF
:1023F0001E0390E6909313038093150388E7809360
:10240000160322E040E250E06AE182E317DD8AE34E
:1024100090E054DC21C014FF1FC06DDE9093DE05F8
:102420008093DD05892B91F02091130330E044E087
:10243000359527954A95E1F7220F331F220F331F59
:102440002E5D3F4FC217D30750F406C010FF04C0E3
:1024500060E080E090E0B5DD80E090E001C0C9017F
:10246000DF91CF911F910895EF92FF920F931F93E9
:10247000CF93DF931F92CDB7DEB77C018091AA0581
:10248000882311F0C70102D4E114F10409F0B4C0AB
:102490008091DF05857049F08091A7059091A8058E
:1024A000892B19F4F8DB8111BFC08091A7059091A9
:1024B000A80501969093A8058093A7058091F8053B
:1024C000813009F077C08091DF0581FF73C082E021
:1024D0008093F80580912D018F5F80932D011091DD
:1024E000F6050091F7058F71F82E8091F90520E22D
:1024F000829FC0011124F82A8BEA95E0DDDD6BEAAA
:1025000075E0882319F08AEE95E002C080EE95E030
:1025100078DDE8E0EE2EE092F1021092F20249E05E
:1025200050E06DE671E083EF92E00E94A21D8CE224
:102530008093F60286E08093FC02D6DC00930903C8
:1025400010930A038BE080930703F0920803EBE0FB
:10255000F3E0DF011D92EA94E9F780912C0180936A
:102560000D038D5F80932C0180E68093130382E03E
:102570008093140393E09093150310921603109226
:102580001703109218031092190310921A038093E4
:102590001B0394E090931C0380931D0386E28093B9
:1025A0001E0322E040E250E06AE182E347DC8AE376
:1025B00090E084DB8FEA95E07FDD882341F0809115
:1025C000E805811104C08091E9058823B1F18BEA07
:1025D00095E072DD882309F4BEC18091E605811182
:1025E000BAC18091E7058111B6C18BEA95E01FDD84
:1025F00081E08093E705AFC1B9E2EB16F10408F47E
:10260000AAC11091F1021830F9F48091F2028630DB
:10261000D9F444E050E063EC75E08BE093E00E9475
:10262000AB1D892B89F443C087EB95E000DD8091D9
:10263000DF0588608093DF0538CF8FEA95E0F7DC0F
:1026400081E08093E905C3CFFAE2EF16F10408F4C4
:1026500082C1183009F07FC18091F20281117BC1E3
:102660008091F302853409F076C144E050E063ECD8
:1026700075E083E093E00E94AB1D892B09F478C0DC
:1026800044E050E06BEB75E083E093E00E94AB1D0B
:10269000892B09F46DC044E050E06AEC72E083E0FD
:1026A00093E00E94AB1D892B09F055C161C0809158
:1026B000FA028130F9F48BEE92E06CDC1092F902B0
:1026C00082E08093FA026BEF72E085E093E0BAD18A
:1026D00067EC75E08BEF92E0B5D161E073E08BE0E1
:1026E00093E0A5D163EC75E081E093E0A0D18AE2AC
:1026F00090E0E4DA8091DF0583FF0BC01091FA02CD
:10270000123039F460EE75E087EB95E0BFDC8111A3
:1027100026C08091E80581110BC08091E9058823CE
:1027200039F06AEE75E08FEA95E0B0DC81111AC0ED
:102730008091E60581110FC18091E705882309F496
:102740000AC16AEE75E08BEA95E0A0DC882309F403
:1027500002C181E08093E6051092E705FCC010936A
:10276000DF05D7CF81E08093E8051092E905E0CF3F
:102770008091FC028130F9F4809107038830D9F40C
:10278000E091F005F091F105309719F08FEF92E0AC
:10279000099509DC1092070390910903983F28F0EE
:1027A00080910A038F5F80930A03985F90930903D7
:1027B000C70184DAD0C0D9D0811105C0E6E3EE1696
:1027C000F10430F4C8C08091FC028131B9F7BEC079
:1027D0008091FC02863009F0BEC0809109038B30E5
:1027E00009F0A7C044E050E06BEA75E08FEF92E09B
:1027F0000E94AB1D892B09F0AEC02091140322FF6B
:1028000013C0E091F405F091F505309759F08091EF
:102810000A0320E030E040E050E063E082958695D6
:102820008770099585E073C0298365DC8C018091F0
:10283000F8052981823061F5822F80712271223161
:10284000D9F460E080E090E0BCDB88E18093140381
:10285000E091F205F091F305309739F0809108038B
:10286000829586958770099502C080E090E023E00C
:102870002093F80576DB6FC091E09093F805811105
:1028800003C0C801019602C080E090E064E039C056
:10289000833009F03FC00115110509F43DC0E091F6
:1028A000F405F091F5053097B9F14091130350E02C
:1028B00064E0559547956A95E1F7440F551F440F1D
:1028C000551FC70108974E5D5F4F8417950708F4A1
:1028D000AC01C801840F951FE816F90620F4970192
:1028E000241B350B01C0980180910A0360E082959A
:1028F0008695877009958091A905882321F068E065
:10290000C8015FDB28C069E0C8015BDB86E080931B
:10291000F80521C08530F9F020FF06C08330D9F0DA
:1029200069E0C8010196F1CF01151105A1F060E041
:10293000E7CFB70180912A0190912B010F90DF9191
:10294000CF911F910F91FF90EF9019CDC70114D037
:10295000882309F433CF80E090E00F90DF91CF918E
:102960001F910F91FF90EF90089581E09091FA05EB
:10297000911101C080E00895AF92BF92CF92DF9293
:10298000EF92FF920F931F93CF93DF93CBEFD5E09E
:102990007FEFC72E75E0D72EE12CF12C40E020917F
:1029A000FA0530E0E216F306B4F55A819B812091D6
:1029B000090330E0A92EB12C2A153B0521F58091A1
:1029C0000A03851320C0F60120812223E1F0009143
:1029D0000C0310E00850110920910B0330E0322F56
:1029E0002227020F131F4091070350E0542F442762
:1029F00020910803422BE881F9812FE033E06FEF4B
:102A000072E0099541E0FFEFEF1AFF0A259685E095
:102A1000C80ED11CC4CF842FDF91CF911F910F918D
:102A2000FF90EF90DF90CF90BF90AF900895FB01A3
:102A30004081518162817381FC01408351836283B3
:102A40007383089526E0FB01DC0101900D922A9525
:102A5000E1F708951F93CF93DF93EC0110E06991A4
:102A60004AE050E081E095E00E94F906133029F039
:102A70006EE281E095E00E9418061F5F143079F73E
:102A8000DF91CF911F910895CF93DF93EB01BC01AC
:102A900081E095E00E941706CE01DCDF81E095E041
:102AA000DF91CF910C941F06E0912606F091270646
:102AB0009F012F5F3F4F3093270620932606808388
:102AC00008951F93CF93DF93C62FD72F182F160F7C
:102AD0001C1719F08991E8DFFBCFDF91CF911F918F
:102AE0000895CF93DF93EC0186E191E0E5EEF2E00B
:102AF000DF019C011D9221503040E1F780913806A2
:102B0000833019F463EB75E002C06AEC72E043E4D1
:102B100050E084E490E08EDB6AEC72E085EE92E0B7
:102B200091DF81E080930F038093100386E0809310
:102B3000110340913406509135066091360670912C
:102B40003706409313035093140360931503709357
:102B5000160380913806833029F463EC75E08BE12D
:102B600093E065DF67EC75E08BE293E06BDF8BEF62
:102B700093E090932706809326066EE271E086E04C
:102B8000A0DF80913806811102C081E001C083E09E
:102B90008BDF8DE389DF87E087DF81E085DF67EC0E
:102BA00075E086E08EDF8CE07FDF80E27DDF64E32E
:102BB00071E080E286DF209779F082E375DF84E0C0
:102BC00073DFBE0184E07DDF86E36EDF84E06CDFCF
:102BD00063EB75E084E075DFC0912506C11102C08A
:102BE000D3E001C0D4E087E35FDF8D2F5DDF81E0BC
:102BF0005BDF83E059DF86E057DFCC2311F08C2FB9
:102C000053DF8FEF51DF80912606909127068F507A
:102C10009340DF91CF916ACB0F931F93A62F8634F9
:102C2000910580F120910803233461F5009113038D
:102C3000109114032091150330911603409134062E
:102C400050913506609136067091370604171507C6
:102C500026073707B9F4EFEFF3E08B519D4F9F0143
:102C60002E5F3F4F41815081553319F452815A17DD
:102C700039F0F901E40FF11DE817F90780F302C0FC
:102C800081E001C080E01F910F910895DF92EF92E3
:102C9000FF920F931F93CF93DF9300D000D0CDB757
:102CA000DEB78C0180913806823009F490C030F490
:102CB0008823C9F1813009F44FC024C1833021F049
:102CC000843009F484C01EC18091280690912906A1
:102CD000A0912A06B0912B068F3F9F4FAF4FBF4F59
:102CE00009F410C10E94E20800912C0610912D06F3
:102CF00020912E0630912F06601B710B820B930BD7
:102D0000009128061091290620912A0630912B0661
:102D1000601771078207930708F4F4C083EC95E00D
:102D2000E0DE84E0E3C00E94E20860933406709322
:102D3000350680933606909337061092C30510929D
:102D4000C4051092C5051092C60580E090E0C9DE6A
:102D500081E056D881E0CAC062E0C8015DDF882307
:102D6000F9F06FE173E0CE01019661DEEFEFF3E081
:102D70000B511D4FBF016E5F7F4F81819081963354
:102D800021F483EB95E053DE06C0FB01E80FF11D53
:102D9000E017F10778F3CE010196A3DE82E0A6C02A
:102DA0000E94E2080091300610913106209132060F
:102DB00030913306601B710B820B930B61317742AC
:102DC0008105910508F49EC0109238069BC065E00D
:102DD000C80122DF882321F381E021D86FE173E06D
:102DE00083EC95E024DEEFEFF3E0C8018B519D4FBB
:102DF0007C0180818F010E5F1F4FD1808630B1F042
:102E000048F4813079F0833009F042C0B80187EB93
:102E100095E00FC08A3379F08F3F09F448C08333BF
:102E2000B9F509C0B8018FEB95E003C0B8018FEA8E
:102E300095E0FDDD3AC0F80184E040E050E0BA01E1
:102E400091912227342F452F562F290F311D411DD7
:102E5000511D815019F0BA01A901F2CF2093280623
:102E60003093290640932A0650932B062F3F9FEF5D
:102E7000390749075907C9F0A8EEB3E03DD460937C
:102E800028067093290680932A0690932B060DC07E
:102E9000E0912306F0912406309739F090912506B1
:102EA000891303C04D2DB801099580E001C081E070
:102EB000F801ED0DF11D811104C0EE15FF0508F4B8
:102EC00098CF0E94E20860932C0670932D068093A1
:102ED0002E0690932F068091B705882319F087EB73
:102EE00095E02EDA83E0809338060CC08093380694
:102EF0000E94E20860933006709331068093320698
:102F0000909333060F900F900F900F90DF91CF9119
:102F10001F910F91FF90EF90DF9008956F927F9235
:102F20008F929F92AF92BF92CF92DF92EF92FF92D9
:102F30000F931F93CF93DF93EA012CE3C22ED12C82
:102F4000E12CF12CA701960184D36883CA01B90151
:102F5000A70196017ED36983CA01B90128E130E057
:102F600040E050E076D349015A016A83CA01B901B1
:102F70006C5F7F4F8F4F9F4F27E030E040E050E085
:102F800068D36F5F6B8300E010E0980140E054E687
:102F9000652E712C60E9C62EDD24D394E42FF0E079
:102FA000EE54F84F7F0183E0E822FF24E114F1049E
:102FB00079F4CF01B3013AD3892B29F08EE691E061
:102FC000A0E0B0E009C0CF01B60130D3892BB1F346
:102FD0008DE691E0A0E0B0E0080F191F2A1F3B1F0B
:102FE000D901C801AA27BB2788169906AA06BB06DD
:102FF00010F04F5FD3CF4E83E114F10489F4CF0179
:1030000064E670E013D3892B29F08EE691E0A0E00E
:10301000B0E00AC0CF0160E971E008D3892BA9F3C1
:103020008DE691E0A0E0B0E0081B190B2A0B3B0BEA
:10303000801A910AA20AB30ACF0164E670E0F6D2C0
:103040009C01CF0160E971E0F1D2E0EDF2E0A0E097
:10305000A13059F4E114F10451F42115310511F0B6
:103060004DE106C00097E1F302C0408101C04CE190
:1030700050E060E070E084169506A606B70640F0C2
:10308000841A950AA60AB70AAF5F3196AC3001F7E9
:10309000AF5FAD8383948C82DF91CF911F910F91AD
:1030A000FF90EF90DF90CF90BF90AF909F908F9068
:1030B0007F906F900895CF92DF92EF92FF926B0115
:1030C0007C018091470690914806A0914906B091F5
:1030D0004A06C816D906EA06FB0669F04BE456E034
:1030E000C701B6011BDFC0924706D0924806E092A6
:1030F0004906F0924A06FF90EF90DF90CF90089536
:10310000DADF80914E0690E00895D5DF8091510678
:1031100090E08E54984F08956F927F928F929F9275
:10312000AF92BF92CF92DF92EF92FF920F931F93D5
:10313000CF93DF93FC01C680AC2DB0E020E833E3F1
:1031400041EE51E0D9D24B015C0122EB37E06D0139
:10315000C4E6D0E000E911E0C901825B97408C151C
:103160009D05CCF4C90183709927892B89F4C90185
:10317000BE015CD2892B29F4C901B80157D2892B31
:1031800039F480E8880E81E5981E81E0A81EB11C04
:103190002F5F3F4FE1CF6580712C8EE4C81A88EF16
:1031A000D80AC60164E670E041D28C01C60160E92C
:1031B00071E03CD27C01C1E0D0E083E0C822DD2494
:1031C000C615D70524F5C230D10589F4C114D10440
:1031D00071F40115110519F4E114F10441F480E8CA
:1031E000880E8BE3981E86E2A81EB11C0EC0DE017D
:1031F000A153BD4FAC91B0E020E831E541E050E093
:103200007BD2860E971EA81EB91E2196D9CF41816A
:10321000228130E0A0E1BEE05AD26B017C01242F74
:1032200030E0ACE3B0E053D2C60ED71EE81EF91E64
:103230008081C80ED11CE11CF11CA481B0E0119763
:1032400020E831E541E050E061D2C60ED71EE81E0D
:10325000F91EC80CD91CEA1CFB1CC701B601DF9182
:10326000CF911F910F91FF90EF90DF90CF90BF9083
:10327000AF909F908F907F906F9008950F931F93C2
:1032800060934306709344068093450690934606E8
:103290000091540110915501209156013091570130
:1032A000060F171F281F391F00933B0610933C067B
:1032B00020933D0630933E0682E090E090933A06DC
:1032C000809339060E94E20860933F06709340069F
:1032D00080934106909342061F910F910895CF92DB
:1032E000DF92EF92FF920F931F93CF93DF93CDB7AF
:1032F000DEB72C970FB6F894DEBF0FBECDBFC982E4
:10330000DA82EB82FC820D831E832F833887498704
:103310005A876B877C872CE0FE013196DC01019097
:103320000D922A95E1F72CE0FE017796DC011C96C0
:1033300001900D922A95E1F72C960FB6F894DEBF16
:103340000FBECDBFDF91CF911F910F91FF90EF90F6
:10335000DF90CF900895AF92BF92CF92DF92EF921D
:10336000FF920F931F93CF93DF93CDB7DEB7639791
:103370000FB6F894DEBF0FBECDBF3F87598B122F1B
:10338000211109C04F5F4D3040F02FEFA21AB20A51
:1033900001E041E003C0022F01C001E089898B8375
:1033A0001A82198281E08D834E838EE48A0D8F8389
:1033B000CE010196B1DE6B017C01AF84B12CA0DEA1
:1033C000402F50E04150510927E0249FF001259FF4
:1033D000F00D11249501281B390BC901079667E0F0
:1033E00070E024D1E80FF91FDF0120E831E541E06A
:1033F00050E08CD16C0D7D1D8E1D9F1D111104C0E0
:1034000060587A438940910963960FB6F894DEBFFD
:103410000FBECDBFDF91CF911F910F91FF90EF9025
:10342000DF90CF90BF90AF9008958F929F92AF9210
:10343000BF92CF92DF92EF92FF920F931F93CF93A1
:10344000DF93EC015B01C880D980EA80FB800C81AE
:103450001D812E813F81488559856A857B857BDF6B
:1034600068A379A38AA39BA3CC84DD84EE84FF8424
:10347000088919892A893B894C895D896E897F89E8
:10348000CE0169DF6B017C016CA37DA38EA39FA39A
:10349000AE89BF892CE330E029D108A119A12AA166
:1034A0003BA1061B170B280B390B088F198F2A8F8E
:1034B0003B8FAA85BB852CE330E018D1C61AD70A0A
:1034C000E80AF90ACC8EDD8EEE8EFF8EDF91CF9169
:1034D0001F910F91FF90EF90DF90CF90BF90AF9032
:1034E0009F908F900895CF92DF92EF92FF920F936B
:1034F0001F93CF93DF93EC016A017B01CB01BA01EB
:1035000004DE8C01688D798D8A8D9B8DFEDD081718
:10351000190731F0C701B601F8DDBC01CE0185DF26
:103520008C8D9D8DAE8DBF8D488D598D6A8D7B8D17
:10353000481759076A077B0760F4C416D506E606E4
:10354000F70690F0C816D906EA06FB0668F481E093
:103550000CC0C816D906EA06FB06C8F381E0C416FB
:10356000D506E606F70608F480E0DF91CF911F91BB
:103570000F91FF90EF90DF90CF900895CF92DF9260
:10358000EF92FF920F931F93CF93DF93EC016A01A9
:103590007B01CB01BA01B9DD8C01688D798D8A8DF3
:1035A0009B8DB3DD0817190731F0C701B601ADDDFA
:1035B000BC01CE013ADFB701A601CE0194DF88231A
:1035C00019F0AA85BB8502C0AE89BF892CE330E023
:1035D0008DD06C0D7D1D8E1D9F1DDF91CF911F9194
:1035E0000F91FF90EF90DF90CF900895991B79E0B5
:1035F00004C0991F961708F0961B881F7A95C9F783
:1036000080950895AA1BBB1B51E107C0AA1FBB1FD1
:10361000A617B70710F0A61BB70B881F991F5A955E
:10362000A9F780959095BC01CD01089597FB072ED1
:1036300016F4009406D077FD08D0E4DF07FC05D02F
:103640003EF4909581959F4F0895709561957F4FB9
:103650000895A1E21A2EAA1BBB1BFD010DC0AA1FD3
:10366000BB1FEE1FFF1FA217B307E407F50720F0EB
:10367000A21BB30BE40BF50B661F771F881F991F66
:103680001A9469F760957095809590959B01AC01AF
:10369000BD01CF010895052E97FB16F400940FD0BD
:1036A00057FD05D0D6DF07FC02D046F408C0509580
:1036B0004095309521953F4F4F4F5F4F089590951E
:1036C0008095709561957F4F8F4F9F4F0895A29F72
:1036D000B001B39FC001A39F700D811D1124911DE6
:1036E000B29F700D811D1124911D0895F0DFB7FF69
:1036F0000895821B930B0895EADFA59F900DB49F58
:10370000900DA49F800D911D11240895B7FFF4CF53
:10371000F3DF821B930B0895EE0FFF1F0590F491CA
:10372000E02D0994CF93DF938230910510F482E06D
:1037300090E0E0915406F091550620E030E0A0E0E2
:10374000B0E0309739F14081518148175907B8F0FE
:103750004817590771F482819381109729F01396C5
:103760009C938E9312972CC0909355068093540689
:1037700027C02115310531F04217530718F0A90170
:10378000DB0101C0EF019A01BD01DF010280F3817D
:10379000E02DD7CF21153105F9F0281B390B243046
:1037A000310580F48A819B816115710521F0FB014F
:1037B0009383828304C09093550680935406FE0140
:1037C000329644C0FE01E20FF31F81939193225081
:1037D0003109398328833AC020915206309153062B
:1037E000232B41F4209102013091030130935306C1
:1037F00020935206209100013091010121153105DD
:1038000041F42DB73EB74091040150910501241BAE
:10381000350BE0915206F0915306E217F307A0F43E
:103820002E1B3F0B2817390778F0AC014E5F5F4F16
:103830002417350748F04E0F5F1F509353064093EF
:1038400052068193919302C0E0E0F0E0CF01DF9156
:10385000CF910895CF93DF93009709F487C0FC01BF
:10386000329713821282C0915406D0915506209748
:1038700081F420813181280F391F80915206909167
:1038800053068217930779F5F0935306E093520697
:103890006DC0DE0120E030E0AE17BF0750F4129695
:1038A0004D915C9113979D014115510509F1DA0184
:1038B000F3CFB383A28340815181840F951F8A1770
:1038C0009B0771F48D919C911197840F951F02961F
:1038D0009183808312968D919C9113979383828319
:1038E0002115310529F4F0935506E09354063EC0A6
:1038F000D9011396FC93EE9312974D915D91A40F0D
:10390000B51FEA17FB0779F480819181840F951F19
:103910000296D90111969C938E938281938113967E
:103920009C938E931297E0E0F0E08A819B81009750
:1039300019F0FE01EC01F9CFCE0102962881398100
:10394000820F931F20915206309153062817390792
:1039500069F4309729F4109255061092540602C06B
:1039600013821282D0935306C0935206DF91CF91F7
:103970000895A0E0B0E0EEEBFCE1A5C1EC01CB01C5
:10398000209711F4CFDEB4C0FE01E60FF71F9E01B1
:1039900022503109E217F30708F4A8C0D9010D91AC
:1039A0001C91119706171707B0F00530110508F4A0
:1039B0009BC0A801445051094617570708F494C00A
:1039C00002501109061B170B019311936D937C9301
:1039D000CF0140DF89C05B01A01AB10A4E01800E01
:1039E000911EA0915406B0915506612C712C60E097
:1039F00070E0109709F449C0A815B905C9F5ED9014
:103A0000FC901197670142E0C40ED11CCA14DB047C
:103A100078F147018A189B08640142E0C40ED11C6A
:103A20001296BC9012971396AC91B5E0CB16D104C8
:103A300040F0B282A38391828082D9018D939C93BE
:103A400009C00E5F1F4F0E0D1F1DF901118300836A
:103A5000EB2DFA2F6115710531F0DB011396FC9304
:103A6000EE93129741C0F0935506E09354063CC084
:103A70006D917C9111976616770608F43B01BD01A4
:103A800012960D90BC91A02DB4CF6091520670910A
:103A9000530668157905E9F468167906D0F4409163
:103AA0000001509101014115510541F44DB75EB738
:103AB0006091040170910501461B570BE417F5074F
:103AC000A8F4F0935306E0935206F90191838083A2
:103AD0000BC028DE7C01009749F0A801BE0148D048
:103AE000CE01B8DEC70104C0CE0102C080E090E084
:103AF000CDB7DEB7EEE003C11F93FC0199278827FD
:103B0000BC01E89411911032E9F3193010F01E3025
:103B1000C8F31B3249F01D3241F4689405C068D0E7
:103B2000610F711D811D911D119110531A30B8F351
:103B30003EF490958095709561957F4F8F4F9F4F84
:103B40001F910895FB01DC0102C005900D924150C8
:103B50005040D8F70895FB01DC0104C08D9101901D
:103B6000801921F441505040C8F7881B990B0895E3
:103B7000FB01DC0102C001900D9241505040D8F78A
:103B80000895FB01DC0101900D920020E1F70895FA
:103B9000FB01DC014150504030F08D9101908019C3
:103BA00019F40020B9F7881B990B08954532510587
:103BB00018F4423008F004C0FB011082CB010895D4
:103BC000BB274A3031F4992322F4BDE290958195C8
:103BD0009F4F45C0BB272A3051F4992342F4BDE2E0
:103BE00090958095709561957F4F8F4F9F4F16C030
:103BF000592F482F372F262F660F771F881F991FA1
:103C0000660F771F881F991F620F731F841F951FF0
:103C1000660F771F881F991F0895BB27FA01A62FEB
:103C20006217710581059105330B30FB66F0AA27F9
:103C3000660F771F881F991FAA1FA21710F0A21BDB
:103C400063953850A9F7A05DAA3308F0A95DA19348
:103C500036F7B111B1931082CA0121C0BB27FB0115
:103C60005527AA27880F991FAA1FA41710F0A41B75
:103C700083955051B9F7A05DAA3308F0A95DA193CF
:103C8000009779F7B111B1931192CB0108C0F9995E
:103C9000FECF92BD81BDF89A992780B50895DC01C9
:103CA000FC01672F71917723E1F7329704C07C9173
:103CB0006D9370836291AE17BF07C8F308952F927A
:103CC0003F924F925F926F927F928F929F92AF92AC
:103CD000BF92CF92DF92EF92FF920F931F93CF93F9
:103CE000DF93CDB7DEB7CA1BDB0B0FB6F894DEBF90
:103CF0000FBECDBF09942A88398848885F846E84B6
:103D00007D848C849B84AA84B984C884DF80EE80FF
:103D1000FD800C811B81AA81B981CE0FD11D0FB608
:103D2000F894DEBF0FBECDBFED010895F894FFCF2C
:103D30000000560620005554432B320000010A03B0
:103D40003C005554432B31000001030278007BC036
:103D5000A8026A7469692D30310150000A0163823A
:103D60005363350141726475696E6F2D3030000008
:103D70000000000000000000000000000000000043
:103D8000000000002C0100006578706563746564B4
:103D90003A2000474554202F006E6F2076616C69F1
:103DA00064204745542072657175657374003F70D7
:103DB000616E656C3D7570200050616E656C73209E
:103DC000676F696E672075702E003F70616E656C5D
:103DD0003D646F776E200050616E656C7320676F75
:103DE000696E6720646F776E2E003F70616E656C40
:103DF0003D73746F70200050616E656C7320737436
:103E00006F707065642F6E6F74206D6F76696E676A
:103E10002E003F70616E656C3D6175746F200041CE
:103E200075746F206D6F646520737769746368655E
:103E300064206F6E2E003F70616E656C3D6D616E2B
:103E400075616C20004175746F206D6F646520731F
:103E500077697463686564206F66662E003F6465E9
:103E600067726565733D002026233137363B00704D
:103E7000616E656C7320746F20646567726565732D
:103E80003A20003F75706461746500206175746F3D
:103E900000206D616E75616C0050616765206E6F0A
:103EA0007420666F756E6400416464726573733A62
:103EB00020687474703A2F2F00444E532066616955
:103EC0006C6564004C6F6F6B75702049502020202A
:103ED0003A200000000000E900B605000000004D97
:103EE00004B605D103EA03DC032C040D0A006E615D
:103EF0006E00696E66006F766600FFFFFFFFFFFFD2
:0C3F00001F1C1F1E1F1E1F1F1E1F1E1F48
:00000001FF
