:10000000B4C00000D9C00000D7C00000D5C00000B7
:10001000D3C00000D1C00000CFC00000CDC00000A0
:10002000CBC00000C9C00000C7C00000C5C00000B0
:10003000C3C00000C1C00000BFC00000BDC00000C0
:100040000C949608B9C00000ECC400001CC5000068
:10005000B3C00000B1C00000AFC00000ADC00000E0
:10006000ABC00000A9C00000244624530024463C35
:100070007469746C653E536F6C41726475696E6F20
:100080003C2F7469746C653E3C68313E24442444C2
:100090003A244424443A244424443C2F68313E000A
:1000A0004661696C656420746F2061636365737376
:1000B0002045746865726E657420636F6E74726F2C
:1000C0006C6C657200485454502F312E3020323001
:1000D00030204F4B0D0A436F6E74656E742D54794A
:1000E00070653A20746578742F68746D6C0D0A50D1
:1000F0007261676D613A206E6F2D63616368650D93
:100100000A0D0A00000000080002010000030407B5
:1001100000000000000000000102040810204080E0
:100120000102040810200102040810200404040441
:100130000404040402020202020203030303030391
:1001400000000000250028002B0000000000240013
:1001500027002A004500008200004000200001081E
:100160000006040001008203710511241FBECFEFB9
:10017000D8E0DEBFCDBF12E0A0E0B1E0E6EBF3E3F4
:1001800002C005900D92A23BB107D9F726E0A2EB81
:10019000B2E001C01D92A231B207E1F711E0CAE658
:1001A000D1E004C02297FE010E94D116C636D107C5
:1001B000C9F7B2D70C94D91923CFDC011696ED916B
:1001C000FC9117979F012F5F3F4F17963C932E93FB
:1001D0001697608381E090E00895CF93DF9385E1E7
:1001E0000E948109EC014AE050E0BC0187ED94E0F7
:1001F000DCD5CB3882E0D80724F0DE01AA58B24023
:1002000004C0AAE8B2E0AC1BBD0B24E630E00E94BB
:10021000BF162DE631E040E050E00E94941664E302
:10022000629FC001639F900D112464E670E00E94FC
:100230005F16CB010596DF91CF91089561E085E0CF
:100240000E94000A60E083E00E94000A61E084E00E
:100250000C94000A60E085E00E94000A61E083E0FF
:100260000E94000A60E084E00C94000A60E085E0EF
:100270000E94000A60E083E00E94000A60E084E0DF
:100280000C94000A61E083E00E94C70961E084E009
:100290000E94C70961E085E00E94C709E7DF26E008
:1002A00040E855E260E070E087ED94E058D34AE022
:1002B00062E271E084EF91E00E94720B811105C04F
:1002C00060EA70E087ED94E0BBD420E030E040E0ED
:1002D00050E060E070E08EE191E00E94940B69E9EB
:1002E00075E083E591E00C94B9130F931F93CF93BE
:1002F000DF93282F30E02550310944E6429FC001AA
:10030000439F900D112464E370E00E945F162DE678
:1003100031E0DB010E94BF1624E630E040E050E00F
:100320000E9494168901E901C657DD4F64E671E029
:1003300087ED94E07AD44AE050E0BE0187ED94E086
:1003400034D50E361140C8F485E1DBD7AC014C1B27
:100350005D0B57FF03C0519541955109443051053C
:100360003CF08C179D0714F475DFEECF67DFECCF00
:10037000DF91CF911F910F9179CFDF91CF911F9195
:100380000F9108954F925F926F927F928F929F92FA
:10039000AF92BF92CF92DF92EF92FF9211D728EEE9
:1003A00033E040E050E00E94721649015A01CA0150
:1003B000B90120E13EE040E050E00E94941629019E
:1003C0003A018CE3C82ED12CE12CF12CC501B401EB
:1003D000A70196010E949416B62ECA01B901A70181
:1003E00096010E949416462F1092B6021092B50202
:1003F00021EF32E03093B8022093B7023093BA0273
:100400002093B9022AE08B2D622F0E943F161F9283
:100410009F931F928F93842F0E943F161F929F934A
:100420001F928F93C2016AE070E00E944B169F9367
:100430008F937F936F9385EC90E09F938F938DE6DE
:1004400090E09F938F9383EB92E09F938F930E9412
:10045000740A8DB79EB742960FB6F8949EBF0FBE32
:100460008DBFFF90EF90DF90CF90BF90AF909F90A7
:100470008F907F906F905F904F9008951092B6028A
:100480001092B50221EF32E03093B8022093B70208
:100490003093BA022093B9029F938F9385EC90E03A
:1004A0009F938F9388E690E09F938F9383EB92E0E6
:1004B0009F938F930E94740A8DB79EB708960FB6CC
:1004C000F8949EBF0FBE8DBF0895EF92FF920F93D9
:1004D0001F93CF93DF93CDB7DEB72C970FB6F89469
:1004E000DEBF0FBECDBF0E94990D0E94AF108C01E0
:1004F000009709F4FAC061E070E080E090E08FD6E8
:100500001092B6021092B50281EF92E09093B80279
:100510008093B7029093BA028093B902C8018554C0
:100520009D4F7C0145E050E0BC018FE691E00E94C8
:100530000B19892B19F065E771E0C8C087010B5FC3
:100540001F4FF7018581803211F41CDFC2C04AE0E1
:1005500050E0B8018AE891E00E940B19892B21F440
:1005600079DE85E991E00CC04CE050E0B80186EA04
:1005700091E00E940B19892B39F460DE83EB91E046
:100580007DDF1092B202A5C04CE050E0B80186ECCD
:1005900091E00E940B19892B21F468DE83ED91E034
:1005A000EFCF4CE050E0B8018EEE91E00E940B19C5
:1005B000892B39F48BEF91E061DF81E08093B20207
:1005C00088C04CE050E0B80182E192E00E940B1933
:1005D000892B19F481E292E0D3CF49E050E0B801D1
:1005E00089E392E00E940B19892B09F03BC06EE968
:1005F00072E0CE0107966CD4F7016685CE010796AE
:1006000055D5F7016785CE01079650D5CE010796DF
:1006100077D5F62E062F172F4AE0B801CE010196A6
:10062000E0D4BE016F5F7F4FCE010796B9D4CE01F3
:100630000196E3D363E472E0CE01079628D56BE41C
:1006400072E087ED94E0F1D24AE050E0B80187ED26
:1006500094E0ABD38F2D49DE8F8198850FDF109208
:10066000B2022EC047E050E0B8018FE592E00E9450
:100670000B19892B49F5B1DD4AE0BC01CE01079683
:10068000B0D48091B202BE01695F7F4F882331F000
:10069000CE0101967DD467E672E005C0CE010196D9
:1006A00077D46DE672E0CE01019612D5BC01CE0181
:1006B000079659D4CE010196A0D38F819885DEDEAE
:1006C000CE0107969AD305C065E772E087ED94E006
:1006D000C7D28091B9029091BA022091B7023091AD
:1006E000B802821B930B0E94940F2C960FB6F894BD
:1006F000DEBF0FBECDBFDF91CF911F910F91FF9055
:10070000EF900895CF92DF92EF92FF920F931F9395
:100710008DB79EB70C970FB6F8949EBF0FBE8DBFD6
:10072000ADB7BEB711968CE0E6E0F1E001900D9216
:100730008A95E1F7C0901201D0901301E090140166
:10074000F0901501009116011091170120911801E8
:100750003091190140911A0150911B0160911C01C7
:1007600070911D018FEA94E00E9403161092B60268
:100770001092B50288E892E09093B4028093B3029D
:100780008DB79EB70C960FB6F8949EBF0FBE8DBF67
:100790001F910F91FF90EF90DF90CF900895FC0193
:1007A000818D228D90E0805C9F4F821B91098F7319
:1007B00099270895FC01918D828D981731F0828DD3
:1007C000E80FF11D858D90E008958FEF9FEF08955C
:1007D000FC01918D828D981761F0828DDF01A80F49
:1007E000B11D5D968C91928D9F5F9F73928F90E06B
:1007F00008958FEF9FEF089588E695E0892B41F0EB
:1008000080E090E0892B21F063D181110C940000ED
:100810000895FC01848DDF01A80FB11DA35ABF4FBD
:100820002C91848D90E001968F739927848FA689EF
:10083000B7892C93A089B1898C9180648C93938D16
:10084000848D981306C00288F389E02D80818F7D06
:1008500080830895CF93DF93EC01888D8823C1F0C6
:10086000EA89FB89808185FD05C0A889B9898C91B9
:1008700086FD0EC00FB607FCF5CF808185FFF2CF55
:10088000A889B9898C9185FFEDCFCE01C2DFE8CF71
:10089000DF91CF910895CF92DF92FF920F931F9334
:1008A000CF93DF931F92CDB7DEB76C0181E0D60105
:1008B00058968C9358975B969C915B975C968C911D
:1008C0005C97981307C05096ED91FC9151978081E9
:1008D00085FD2DC0F601038D10E00F5F1F4F0F73D4
:1008E0001127F02EF601848DF81210C00FB607FC08
:1008F000F9CFD6015096ED91FC915197808185FFFB
:10090000F1CFC601698385DF6981ECCF838DE80F64
:10091000F11DE35AFF4F6083D6015B960C935B9702
:100920005296ED91FC915397808180620CC0D60164
:100930005696ED91FC91579760835096ED91FC91FE
:10094000519780818064808381E090E00F90DF91F7
:10095000CF911F910F91FF90DF90CF900895BF929C
:10096000CF92DF92EF92FF92CF93DF93EC016A0177
:100970007B01B22EE889F98982E08083411581EEFE
:10098000580761057105A1F060E079E08DE390E022
:10099000A70196010E94721621503109410951099F
:1009A0005695479537952795211580E1380798F09A
:1009B000E889F989108260E874E88EE190E0A70187
:1009C00096010E947216215031094109510956952C
:1009D000479537952795EC85FD853083EE85FF8516
:1009E0002083188EEC89FD89B082EA89FB89808199
:1009F00080618083EA89FB89808188608083EA89BD
:100A0000FB89808180688083EA89FB8980818F7D72
:100A10008083DF91CF91FF90EF90DF90CF90BF90D8
:100A200008951F920F920FB60F9211242F938F9358
:100A30009F93EF93FF93E091E704F091E8048081A6
:100A4000E091ED04F091EE0482FD12C0908180915E
:100A5000F0048F5F8F732091F104821751F0E091C1
:100A6000F004F0E0E952FB4F958F8093F00401C051
:100A70008081FF91EF919F918F912F910F900FBEE9
:100A80000F901F9018951F920F920FB60F9211247E
:100A90002F933F934F935F936F937F938F939F9386
:100AA000AF93BF93EF93FF9387ED94E0B2DEFF9196
:100AB000EF91BF91AF919F918F917F916F915F91D6
:100AC0004F913F912F910F900FBE0F901F9018954F
:100AD00087ED94E064DE21E0892B09F420E0822F89
:100AE00008951092DA041092D90488EE93E0A0E001
:100AF000B0E08093DB049093DC04A093DD04B0931A
:100B0000DE0480E992E09093D8048093D70485ECCA
:100B100090E09093E4048093E30484EC90E090935D
:100B2000E6048093E50480EC90E09093E8048093E1
:100B3000E70481EC90E09093EA048093E90482EC6E
:100B400090E09093EC048093EB0486EC90E090931B
:100B5000EE048093ED041092F0041092F1041092D0
:100B6000F2041092F3040895CF92DF92EF92FF9275
:100B70000F931F93CF93DF937C016A01EB0100E099
:100B800010E00C151D0571F06991D701ED91FC91F4
:100B90000190F081E02DC7010995892B19F00F5FB5
:100BA0001F4FEFCFC801DF91CF911F910F91FF90A1
:100BB000EF90DF90CF9008956115710581F0DB0112
:100BC0000D900020E9F7AD0141505109461B570B2C
:100BD000DC01ED91FC910280F381E02D099480E02D
:100BE00090E00895EF92FF920F931F93CF93DF93BE
:100BF0008C017B01C0E0D0E0F701EC0FFD1F649198
:100C0000662359F0F801A081B181ED91FC91C801F2
:100C10000995892B11F02196EFCFCE01DF91CF916D
:100C20001F910F91FF90EF900895C6CFDC01ED91D9
:100C3000FC910190F081E02D09946CE972E0BCCF49
:100C40000F931F93CF93DF93EC01CCDF8C01CE0188
:100C5000F4DF800F911FDF91CF911F910F910895C5
:100C60000F931F93CF93DF93EC01A6DF8C01CE018E
:100C7000E4DF800F911FDF91CF911F910F910895B5
:100C80008F929F92AF92BF92DF92EF92FF920F935B
:100C90001F93CF93DF93CDB7DEB7A1970FB6F8942C
:100CA000DEBF0FBECDBF7C01F42FD52ECB0119A224
:100CB000223008F42AE08E010F5D1F4F822E912C06
:100CC000A12CB12C6F2F7D2DA50194010E947216CD
:100CD000F22FD32ECA01015011096A3014F4E0E357
:100CE00001C0E7E3E60FD801EC93232B242B252B3F
:100CF00049F7B801C70160DFA1960FB6F894DEBFCF
:100D00000FBECDBFDF91CF911F910F91FF90EF905C
:100D1000DF90BF90AF909F908F900895CF92DF9219
:100D2000EF92FF920F931F93CF93DF93EC016A0131
:100D30007B012115310579F4E881F9810190F08179
:100D4000E02D642FDF91CF911F910F91FF90EF90D5
:100D5000DF90CF9009942A303105D9F477FF18C07D
:100D60006DE264DF8C0144275527BA014C195D09F7
:100D70006E097F092AE0CE0183DF800F911FDF918A
:100D8000CF911F910F91FF90EF90DF90CF9008953A
:100D90002AE0B701A601CE01DF91CF911F910F91FB
:100DA000FF90EF90DF90CF906BCF0F931F93CF9377
:100DB000DF93EC019A01AB01662757FD6095762F12
:100DC000ADDF8C01CE0139DF800F911FDF91CF9114
:100DD0001F910F9108952115310541F4DC01ED912A
:100DE000FC910190F081E02D642F099449CF9A0184
:100DF000462F50E060E070E0EECFFC0180819181F1
:100E00000C946D17CF93DF93EC0188819981009743
:100E100011F00E946D17198218821D821C821B829C
:100E20001A82DF91CF9108950F931F93CF93DF9391
:100E3000EC018B016F5F7F4F888199810E94FC17C5
:100E4000009731F0998388831B830A8381E001C076
:100E500080E0DF91CF911F910F910895CF93DF93A1
:100E6000EC0188819981892B29F08A819B818617E1
:100E7000970758F4CE01D8DF882341F08C819D81FB
:100E8000892B19F4E881F981108281E0DF91CF91FB
:100E90000895EF92FF920F931F93CF93DF93EC018E
:100EA0007B018A01BA01DADF811103C0CE01AADF1A
:100EB00007C01D830C83B701888199810E940419A2
:100EC000CE01DF91CF911F910F91FF90EF90089588
:100ED000FC01118210821382128215821482611524
:100EE000710551F0FB0101900020E9F7AF0141507D
:100EF0005109461B570BCDCF08950F931F93CF93E6
:100F0000DF938C01EB01FC0180819181009799F0C6
:100F1000428153812C813D814217530750F06881F3
:100F200079810E9404198C819D81F80195838483C5
:100F300013C00E946D1788819981F8019183808385
:100F40008A819B81938382838C819D819583848315
:100F5000198218821B821A821D821C82DF91CF9116
:100F60001F910F910895CF93DF93EC01FB0186173A
:100F7000970751F0608171816115710521F04481FD
:100F8000558187DF01C03EDFCE01DF91CF9108950B
:100F9000FC01118210821382128215821482E3CF27
:100FA000CF93DF93EC018617970709F0A6DFCE01F8
:100FB000DF91CF910895CF93DF93EC016115710517
:100FC00059F0FB0101900020E9F7AF0141505109B0
:100FD000461B570B5EDF01C015DFCE01DF91CF91BD
:100FE00008950F931F93CF93DF93CDB7DEB762972A
:100FF0000FB6F894DEBF0FBECDBF8C01CB01F80158
:1010000011821082138212821582148250E0BE0176
:101010006F5F7F4F0E941919BE016F5F7F4FC8013C
:10102000CADF62960FB6F894DEBF0FBECDBFDF9168
:10103000CF911F910F910895EF92FF920F931F93FD
:10104000CF93DF93EC017B010C811D81611571054C
:1010500011F480E015C04115510589F0040F151FEA
:10106000B801FCDE8823A9F3288139818C819D8118
:10107000B701820F931F0E9404191D830C8381E026
:10108000DF91CF911F910F91FF90EF90089561151F
:10109000710551F0FB0101900020E9F7AF014150CB
:1010A0005109461B570BC8CF80E00895CF93DF93BB
:1010B00000D0CDB7DEB769831A8241E050E0BE01AF
:1010C0006F5F7F4FB9DF0F900F90DF91CF91089541
:1010D000CF93DF93EC016115710561F0FB01019085
:1010E0000020E9F7AF0141505109461B570BA4DF1F
:1010F000811102C0CE0186DECE01DF91CF9108952D
:10110000FC0180819181009711F00C94BF1860E080
:1011100070E0CB0108950895B9D0FDDFB3D8CCEFCE
:10112000D3E0D3D92097E9F367DBFBCF1F920F926F
:101130000FB60F9211242F933F938F939F93AF93EA
:10114000BF938091750590917605A0917705B09138
:1011500078053091740523E0230F2D3720F4019694
:10116000A11DB11D05C026E8230F0296A11DB11DCA
:10117000209374058093750590937605A093770569
:10118000B09378058091790590917A05A0917B05BF
:10119000B0917C050196A11DB11D809379059093B6
:1011A0007A05A0937B05B0937C05BF91AF919F9189
:1011B0008F913F912F910F900FBE0F901F90189518
:1011C0002FB7F89460917505709176058091770539
:1011D000909178052FBF08953FB7F89480917905D5
:1011E00090917A05A0917B05B0917C0526B5A89BCE
:1011F00005C02F3F19F00196A11DB11D3FBF662705
:10120000782F892F9A2F620F711D811D911D42E049
:10121000660F771F881F991F4A95D1F708958F92FF
:101220009F92AF92BF92CF92DF92EF92FF926B01AB
:101230007C01D2DF4B015C01C114D104E104F10453
:10124000E1F013D1C9DF681979098A099B09683E61
:1012500073408105910580F321E0C21AD108E108AD
:10126000F10888EE880E83E0981EA11CB11CC11401
:10127000D104E104F10431F7DFCFFF90EF90DF906C
:10128000CF90BF90AF909F908F900895789484B541
:10129000826084BD84B5816084BD85B5826085BD72
:1012A00085B5816085BDEEE6F0E080818160808358
:1012B000E1E8F0E01082808182608083808181603B
:1012C0008083E0E8F0E0808181608083E1EBF0E002
:1012D000808184608083E0EBF0E0808181608083A6
:1012E000EAE7F0E08081846080838081826080838F
:1012F0008081816080838081806880831092C100BA
:1013000008958E3008F08E5087702091280190E467
:10131000299F90011124822B80937C0080917A0078
:10132000806480937A0080917A0086FDFCCF809162
:1013300078002091790090E0922B0895833081F01D
:1013400028F4813099F08230A1F008958730A9F017
:101350008830B9F08430D1F4809180008F7D03C053
:10136000809180008F7780938000089584B58F7777
:1013700002C084B58F7D84BD08958091B0008F77C1
:1013800003C08091B0008F7D8093B0000895CF930B
:10139000DF9390E0FC01E85EFE4F2491FC01E45DE8
:1013A000FE4F8491882349F190E0880F991FFC013A
:1013B000E65BFE4FA591B491805C9E4FFC01C59108
:1013C000D4919FB7611108C0F8948C912095822325
:1013D0008C93888182230AC0623051F4F8948C91F6
:1013E000322F309583238C938881822B888304C08D
:1013F000F8948C91822B8C939FBFDF91CF910895AD
:101400000F931F93CF93DF931F92CDB7DEB7282F93
:1014100030E0F901EC5FFE4F8491F901E85EFE4F88
:101420001491F901E45DFE4F04910023C1F088237B
:1014300019F0698383DF6981E02FF0E0EE0FFF1F71
:10144000E05CFE4FA591B4919FB7F8948C91611127
:1014500003C01095812301C0812B8C939FBF0F90F7
:10146000DF91CF911F910F9108950895CF93DF934E
:10147000EC01FB018A30910540F06AE070E00E94C7
:101480004B16CB01BF01F2DFFC01CE016AE070E038
:101490000E944B16805D80831182CF010196DF91FF
:1014A000CF910895E82FF0E093E0F595E7959A95B0
:1014B000E1F7ED55FA4F877041E050E060E070E0F1
:1014C00004C0440F551F661F771F8A95D2F780818D
:1014D000842B80830895CF93C8E3C15019F08C2FDB
:1014E000E1DFFBCFCF910895AF92BF92CF92DF9211
:1014F000EF92FF920F931F93CF93DF93CDB7DEB799
:101500000D851E85EF84F8885E0121E1A20EB11CD5
:10151000C7010196F7014491442309F4D8C044322D
:1015200079F0D8011696ED91FC9117979F012F5FE6
:101530003F4F17963C932E93169740837C01E8CF3C
:10154000B2E0EB0EF11CFC018491863409F472C008
:1015500064F48434C9F0853409F09CC0F5018081BD
:101560009181F2E0AF0EB11C7DC0D80116964D916D
:101570005C9117978C3409F445C0833509F44FC04A
:10158000883409F087C00CC06501B2E0CB0ED11CD5
:10159000F80166817781D5018D919C9167DF88C0C4
:1015A00095012E5F3F4FF5016081862F992787FDBA
:1015B0009095E4E095958795EA95E1F78F70962FE1
:1015C0009F709A300CF0995F70E3D72ED90E8A3055
:1015D0000CF0895FBA016F5F7F4FD80117967C933B
:1015E0006E931697805DFA0180831696ED91FC91BB
:1015F0001797CF01019617969C938E931697D082DA
:10160000590186CF6501F4E0CF0ED11CD5016D9153
:101610007D918D919C912AE00E942D1949C0650110
:10162000B2E0CB0ED11CF50160817181CA010E942C
:1016300004193EC0F5010190F081E02D22E0A20ED8
:10164000B11C2491AF014F5F5F4F222309F460CF9B
:10165000F801A681B781CD010196978386832C93EB
:10166000FA01EFCF6C01BFEFCB1ADB0A0E948A1997
:10167000882309F44DCFD8011696ED91FC91179768
:101680009F012F5F3F4F17963C932E9316978083B1
:10169000C601E8CFD8011696ED91FC9117979F01EE
:1016A0002F5F3F4F17963C932E931697808330CF32
:1016B000D8011696ED91FC91179701900020E9F75B
:1016C00031971796FC93EE931697560121CFDF9131
:1016D000CF911F910F91FF90EF90DF90CF90BF902F
:1016E000AF9008950F931F93CF93DF9300D01F9275
:1016F000CDB7DEB78C011092800588E34B836983F8
:101700007A83E9DE69817A818DE995E00E949713F9
:101710004B816DE975E0C8010F900F900F90DF913C
:10172000CF911F910F9123C1EF92FF920F931F93BF
:10173000CF93DF938B017A01E90110928005009726
:1017400021F0BC0189E995E0E7D70115110511F0F9
:10175000C80171D4E114F10421F0B70185E895E0E6
:10176000DBD7209721F0BE0185E995E0D5D76ED46F
:1017700010927E0510927D0581E0DF91CF911F913F
:101780000F91FF90EF9008958EBD0DB407FEFDCF31
:10179000089561E08091AD0533DE78940895F89462
:1017A00060E08091AD052CCE1F93CF93DF9300D0E6
:1017B000CDB7DEB7182F4A836983F1DF6981862FA1
:1017C0008F71812BE1DF4A81842FDEDF0F900F9034
:1017D000DF91CF911F91DDCF1F93CF93DF93182F10
:1017E0001076C12FD0E02091AE0530E0C217D307AC
:1017F00091F043E06FE180EAD7DF1093AE05AE01D0
:1018000085E0559547958A95E1F76FE180E8DF918E
:10181000CF911F91C9CFDF91CF911F9108951F9351
:10182000CF93DF931F92CDB7DEB7182F6983D4DF34
:101830004981612F80E40F90DF91CF911F91B4CF48
:101840001F93CF93DF931F92CDB7DEB7182F798305
:10185000E6DF7981672F81E0810F0F90DF91CF91D3
:101860001F91DDCF0F931F93CF93DF93EC018B017B
:1018700096DF209729F4DF91CF911F910F9189CFA7
:101880008AE782DFF80181918EBDC00FD11FEC176E
:10189000FD0731F081910DB407FEFDCF8EBDF7CF6E
:1018A0000DB407FEFDCFE7CF0F931F93CF93DF93C8
:1018B000EC018B0174DF2097B9F08AE365DF1EBC71
:1018C000F801CE010197009739F00DB407FEFDCF66
:1018D0002EB51EBC2193F6CF2197C00FD11F0DB49A
:1018E00007FEFDCF8EB58883DF91CF911F910F91B9
:1018F00050CF1F93CF93DF931F92CDB7DEB7182F32
:101900004EDF812F8F7140DF80E03EDF17FF02C086
:1019100080E03ADF8EB589833CDF89810F90DF91CB
:10192000CF911F910895CF93C82F56DF8C2FCF9161
:10193000E0CF61E08AE02BDD61E08AE061DD61E01B
:101940008BE025DD61E08DE022DD60E08CE01FDDD5
:1019500061E08BE055DD60E08BE052DD60E08DE022
:101960004FDD80E58CBD8DB581608DBD08950F93F1
:101970001F93CF93DF931F92CDB7DEB78B01909368
:10198000B1058093B0050CB406FC03C04983D1DFD8
:1019900049814093AD0561E0842FF9DCFADE4FEF19
:1019A00060E08FEF01DF62E070E080E090E037DC24
:1019B0008DE19FDF8823E1F360E070E088E040DFA5
:1019C00060E070E08CE03CDF6FEF7BE08AE038DFC6
:1019D00060E07CE084E034DF6FEF71E186E030DFCF
:1019E00061EB88E31CDF6FE370E388E229DF69EFD6
:1019F00077EF80E325DF6DE080EC11DF60E081ECC4
:101A00000EDF42E362EC80E8CFDE62E17CE086EC50
:101A100017DF62E184EC03DF6CED75E08AEC10DF28
:101A2000F801608184EEFBDEF801618185EEF7DE6E
:101A3000F801628182EEF3DEF801638183EEEFDE6E
:101A4000F801648180EEEBDEF801658181EEE7DE6E
:101A500060E184EDE4DE60E071E086EDF1DE8AEEC7
:101A600062DF80FDFCCF8FE1B7DE40EC6BE180E808
:101A70009BDE44E06FE180E897DE82E754DF86304A
:101A800008F08F5F0F90DF91CF911F910F91089514
:101A900061E184EDC4DE61E082EDC1DE8AEE43DF08
:101AA00080FDFCCF60E082EDBADE89ED3CDF82FB99
:101AB000882780F90895CF93DF93EC0140E86FE128
:101AC00080E872DE40E86FE180EA6EDE4AE06CE1B9
:101AD00080EA6ADE60E07CE082E0B2DEBE01745F34
:101AE00086E0AEDE40E060E08AE75EDE6BEB72E04F
:101AF000CE01B8DE48E06FE180E856DEC0E0D0E01D
:101B00008CE111DF8A7029F42196C83E83E0D80762
:101B1000B9F78CE108DF81FD03C0C83ED34030F047
:101B200048E06FE180EADF91CF913ECEDF91CF9127
:101B300008950F931F93CF93DF9300D000D000D070
:101B4000CDB7DEB78091AC05882381F06091AA05FE
:101B50007091AB056115710519F46FEF7BE002C060
:101B6000615071098CE06CDE1092AC0589E3DBDE1C
:101B70008823A9F16091AA057091AB0580E060DE31
:101B8000BE016F5F7F4F86E090E08EDE89819A8193
:101B90009093AB058093AA058B819C810091B00541
:101BA0001091B1052D8127FF0CC004970150110938
:101BB0008017910708F48C016BEB72E0C80174DEAA
:101BC00002C000E010E0F801E554FD4F108281E012
:101BD0008093AC0540E46EE180E8E6DD02C000E001
:101BE00010E0C80126960FB6F894DEBF0FBECDBF39
:101BF000DF91CF911F910F910895CF93C82F88E364
:101C000092DE682F616088E30ADEC11103C081E0C3
:101C10008093AF05CF910895811102C01092AF0556
:101C20008091AF05811106C088E37DDE682F6E7F4D
:101C300088E3F5CD08950F931F93CF93DF9370E062
:101C400065547D4F213021F48A01075F1F4F05C085
:101C5000223031F48A010250110920E030E003C043
:101C600000E010E09801DB01FA01E230F10578F0C4
:101C7000CC91D0E0DC2FCC2711969C911197C92BE9
:101C80000C0F1D1F211D311D12963297EECFDA0168
:101C9000AE7FA60FB71F40FF0CC04C9150E060E034
:101CA00070E0762F652F542F4427040F151F261F31
:101CB000371FA90166277727411551056105710571
:101CC00019F022273327F1CF00951095E82FF0E087
:101CD000E554FD4F10830183DF91CF911F910F9148
:101CE00008951092D3021092D40280E48093CF0220
:101CF0001092D0028093D10220E044E150E06EE0E7
:101D000088E199CF2091DF023091DD023093DF022C
:101D10002093DD022091E0023091DE023093E00258
:101D20002093DE02E5EEF2E0A9EEB2E02291820F0E
:101D3000911D2E918C93662311F0208301C0108297
:101D4000892F992722E0E13EF20781F71092ED02F8
:101D50001092EE0280E58093E9020895CF93DF931D
:101D6000EC0188969093CB028093CC02BADF10925C
:101D7000ED021092EE02AE01445E5F4F22E06AE196
:101D800082E359DFCE01C696DF91CF9194CEBC019C
:101D90008BEB92E0CCD46DE975E081EC92E0C7C4A6
:101DA00081EC92E0F4DF65ED72E089ED92E0B4D46D
:101DB00069E975E085ED92E0AFD493CF262F2061DD
:101DC0002093EA02643021F0009711F481E090E062
:101DD00061E098DF1092CB0288E28093CC02E0DFD2
:101DE00084E08093EB021092EC0222E04CE150E0A0
:101DF0006AE182E320DF86E390E05DCECF93DF935C
:101E000000D0CDB7DEB769837A83C1DF69817A817B
:101E100089ED92E081D469E975E085ED92E00F905B
:101E20000F90DF91CF9178C41F93CF93DF93EC0194
:101E30008BEA92E0ACDF88E08093C70216E0109353
:101E4000C80248E050E06DE571E089EC92E00E9444
:101E5000E518EBEDF2E0DF011D921A95E9F76DE967
:101E600075E081ED92E063D4BE0181EE92E054D43E
:101E700069E975E087ED92E04FD48AE290E0DF9166
:101E8000CF911F9118CECF93DF93EB0144E050E048
:101E9000BC0187ED92E00E94EE18892B31F461EDD0
:101EA00072E0CE0144D481E001C080E0DF91CF91A7
:101EB0000895CF93DF93209199052223A9F0FC0187
:101EC0002081222389F0E9E9F5E0EC01A5E9B5E0FC
:101ED000219189919D918227892331F485E0ED3903
:101EE000F807B1F781E001C080E0DF91CF9108955C
:101EF0008091CB0290E0982F88272091CC02822BF2
:101F000044972091E90230E064E0359527956A9581
:101F1000E1F7220F331F220F331F821B930B97FF12
:101F200002C080E090E00895CF93DF93EC0160E081
:101F30008091B2059091B30541DF89E18093EA0277
:101F4000CE01DF91CF910ACFCF92DF92EF92FF9235
:101F50000F931F93CF93DF93F82EE92EEB01D42E2E
:101F6000C52ECB01A6DFBE01882319F08FEB95E0CB
:101F700002C085EB95E042DF2881207F203E91F072
:101F8000088119812A813B810F3F1F4F2F4F3F4FFF
:101F900049F044E050E0BE0181E995E00E94EE186E
:101FA000892B29F46BEA72E08BEB92E0C0D388E0D6
:101FB0008093C7021092C80249E050E064E571E0E6
:101FC00089EC92E00E94E5181092CB0281E18093A7
:101FD000D202C092DF02D092E002E092DD02F092E3
:101FE000DE021092E1021092E3021092E402DF910D
:101FF000CF911F910F91FF90EF90DF90CF900895B8
:10200000CF93DF93EC014C969093CB028093CC025C
:1020100068DECE0108969093E1028093E202AE0161
:10202000405F5F4F21E06AE188E205DECE018A96DB
:10203000DF91CF9140CD10927E0510927D0521E079
:102040002093B405BC018DE895E066C3CF93DF9380
:10205000E9E9F5E0C5E9D5E0A1E9B5E0919189911B
:102060008095892B8D9385E0ED39F807B9F7DF91DD
:10207000CF9108951F93CF93DF93EB014091DF023F
:1020800050E0292F30E04217530709F060C09091CB
:10209000E00298135CC01091EA0211FF37C0109261
:1020A000CB028CE28093CC027BDE82E18093EA0259
:1020B00060E081E090E026DE1092E1021092E20200
:1020C00080912B018093E3021092E4028D5F809354
:1020D0002B0182E08093F10284E08093F20285E09C
:1020E0008093F3021092F40290E69093E9028093B9
:1020F000EB0288E78093EC0222E040E250E06AE1E4
:1021000082E399DD8AE390E0D6DC21C014FF1FC092
:10211000EFDE9093B3058093B205892B91F0209167
:10212000E90230E044E0359527954A95E1F7220F22
:10213000331F220F331F2E5D3F4FC217D30750F4BA
:1021400006C010FF04C060E080E090E037DE80E071
:1021500090E001C0C901DF91CF911F910895EF92E6
:10216000FF920F931F93CF93DF931F92CDB7DEB7EC
:102170007C0180918005882311F0C701FCD3E11414
:10218000F10409F0B3C08091B405857049F08091E5
:102190007D0590917E05892B19F47ADC8111BDC0F3
:1021A00080917D0590917E05019690937E058093A8
:1021B0007D058091CD05813009F076C08091B40510
:1021C00081FF72C082E08093CD0580912C018F5FEA
:1021D00080932C011091CB050091CC058F71F82EC6
:1021E0008091CE0520E2829FC0011124F82A81E867
:1021F00095E05FDE61E875E0882319F08FEB95E0EC
:1022000002C085EB95E0FADDE8E0EE2EE092C70231
:102210001092C80249E050E064E571E089EC92E078
:10222000D4D78CE28093CC0286E08093D20259DD31
:102230000093DF021093E0028BE08093DD02F092C6
:10224000DE02E1EEF2E0DF011D92EA94E9F780910F
:102250002B018093E3028D5F80932B0180E68093B6
:10226000E90282E08093EA0293E09093EB021092FD
:10227000EC021092ED021092EE021092EF02109218
:10228000F0028093F10294E09093F2028093F302C3
:1022900086E28093F40222E040E250E06AE182E3C9
:1022A000CADC8AE390E007DC85E895E002DE88235B
:1022B00041F08091BD05811104C08091BE05882345
:1022C000A9F181E895E0F5DD882309F4B9C1809191
:1022D000BB058111B5C18091BC058111B1C181E8F7
:1022E00095E0A2DD81E08093BC05AAC1B9E2EB16BE
:1022F000F10408F4A5C11091C7021830F1F48091DF
:10230000C8028630D1F444E050E069E975E081EE1E
:1023100092E064D7892B89F440C08DE895E084DD94
:102320008091B40588608093B4053ACF85E895E044
:102330007BDD81E08093BE05C4CFFAE2EF16F104A5
:1023400008F47EC1183009F07BC18091C802811168
:1023500077C18091C902853409F072C144E050E030
:1023600069E975E089ED92E039D7892B09F476C0E7
:1023700044E050E061E975E089ED92E02FD7892BC8
:1023800009F46CC044E050E06BEA72E089ED92E041
:1023900025D7892B09F054C161C08091D0028130CA
:1023A000F9F481EC92E0F3DC1092CF0282E08093AA
:1023B000D00261ED72E08BED92E0B9D16DE975E08C
:1023C00081ED92E0B4D167ED72E081EE92E0A4D1AC
:1023D00069E975E087ED92E09FD18AE290E06BDBDE
:1023E0008091B40583FF0BC01091D002123039F4F4
:1023F00065EB75E08DE895E046DD811126C08091A2
:10240000BD0581110BC08091BE05882339F06FEBAB
:1024100075E085E895E037DD81111AC08091BB0534
:1024200081110EC18091BC05882309F409C16FEBAD
:1024300075E081E895E027DD882309F401C181E09A
:102440008093BB051092BC05FBC01093B405D7CF99
:1024500081E08093BD051092BE05E0CF8091D2024D
:102460008130F9F48091DD028830D9F4E091C5051E
:10247000F091C605309719F085ED92E0099590DC52
:102480001092DD029091DF02983F28F08091E002E7
:102490008F5F8093E002985F9093DF02C7010BDBB0
:1024A000CFC0D8D0811105C0E6E3EE16F10430F4B8
:1024B000C7C08091D2028131B9F7BDC08091D202EC
:1024C000863009F0BDC08091DF028B3009F0A6C0D4
:1024D00044E050E061E875E085ED92E07FD6892B1D
:1024E00009F0AEC02091EA0222FF13C0E091C905B5
:1024F000F091CA05309759F08091E00220E030E079
:1025000040E050E063E0829586958770099585E00C
:1025100073C02983EDDC8C018091CD052981823047
:1025200061F5822F807122712231D9F460E080E060
:1025300090E044DC88E18093EA02E091C705F091E5
:10254000C805309739F08091DE02829586958770B4
:10255000099502C080E090E023E02093CD05FEDBEA
:102560006FC091E09093CD05811103C0C801019621
:1025700002C080E090E064E039C0833009F03FC0E1
:102580000115110509F43DC0E091C905F091CA0596
:102590003097B9F14091E90250E064E055954795D4
:1025A0006A95E1F7440F551F440F551FC70108975F
:1025B0004E5D5F4F8417950708F4AC01C801840F86
:1025C000951FE816F90620F49701241B350B01C06E
:1025D00098018091E00260E0829586958770099568
:1025E00080917F05882321F068E0C801E7DB28C0DF
:1025F00069E0C801E3DB86E08093CD0521C085302A
:10260000F9F020FF06C08330D9F069E0C8010196D7
:10261000F1CF01151105A1F060E0E7CFB70180917E
:10262000290190912A010F90DF91CF911F910F9175
:10263000FF90EF901FCDC70114D0882309F434CF49
:1026400080E090E00F90DF91CF911F910F91FF906C
:10265000EF90089581E09091CF05911101C080E045
:102660000895AF92BF92CF92DF92EF92FF920F93B5
:102670001F93CF93DF93C0EDD5E074EDC72E75E0C7
:10268000D72EE12CF12C40E02091CF0530E0E2166E
:10269000F306B4F55A819B812091DF0230E0A92E28
:1026A000B12C2A153B0521F58091E002851320C04D
:1026B000F60120812223E1F00091E20210E00850AF
:1026C00011092091E10230E0322F2227020F131F5F
:1026D0004091DD0250E0542F44272091DE02422B2E
:1026E000E881F98125EE32E065ED72E0099541E07F
:1026F000FFEFEF1AFF0A259685E0C80ED11CC4CF64
:10270000842FDF91CF911F910F91FF90EF90DF9079
:10271000CF90BF90AF900895FB01408151816281BD
:102720007381FC014083518362837383089526E0A3
:10273000FB01DC0101900D922A95E1F708951F93AA
:10274000CF93DF93EC0110E069914AE050E087ED10
:1027500094E00E94F706133029F06EE287ED94E0D2
:102760000E9416061F5F143079F7DF91CF911F91F9
:102770000895CF93DF93EB01BC0187ED94E00E94B5
:102780001506CE01DCDF87ED94E0DF91CF910C944C
:102790001D06E091FB05F091FC059F012F5F3F4F67
:1027A0003093FC052093FB05808308951F93CF93FE
:1027B000DF93C62FD72F182F160F1C1719F08991EA
:1027C000E8DFFBCFDF91CF911F910895CF93DF9387
:1027D000EC0186E191E0EBEBF2E0DF019C011D9260
:1027E00021503040E1F780910D06833019F469E8FB
:1027F00075E002C06BEA72E043E450E084E490E0EC
:10280000A3DB6BEA72E08BEB92E091DF81E08093D7
:10281000E5028093E60286E08093E7024091090694
:1028200050910A0660910B0670910C064093E902E4
:102830005093EA026093EB027093EC0280910D06D4
:10284000833029F469E975E081EF92E065DF6DE995
:1028500075E081E093E06BDF81ED93E09093FC0500
:102860008093FB056DE271E086E0A0DF80910D06AC
:10287000811102C081E001C083E08BDF8DE389DF3D
:1028800087E087DF81E085DF6DE975E086E08EDF38
:102890008CE07FDF80E27DDF63E371E080E286DF52
:1028A000209779F082E375DF84E073DFBE0184E076
:1028B0007DDF86E36EDF84E06CDF69E875E084E04D
:1028C00075DFC091FA05C11102C0D3E001C0D4E0A8
:1028D00087E35FDF8D2F5DDF81E05BDF83E059DF22
:1028E00086E057DFCC2311F08C2F53DF8FEF51DFC1
:1028F0008091FB059091FC05855E9240DF91CF9120
:102900007FCB0F931F93A62F8634910580F12091E2
:10291000DE02233461F50091E9021091EA02209170
:10292000EB023091EC024091090650910A06609149
:102930000B0670910C060417150726073707B9F424
:10294000E5EDF3E085549D4F9F012E5F3F4F4181A0
:102950005081553319F452815A1739F0F901E40FB7
:10296000F11DE817F90780F302C081E001C080E0A3
:102970001F910F910895DF92EF92FF920F931F9393
:10298000CF93DF9300D000D0CDB7DEB78C0180911C
:102990000D06823009F490C030F48823C9F18130EB
:1029A00009F44FC024C1833021F0843009F484C07D
:1029B0001EC18091FD059091FE05A091FF05B0918B
:1029C00000068F3F9F4FAF4FBF4F09F410C10E94C9
:1029D000E008009101061091020620910306309153
:1029E0000406601B710B820B930B0091FD05109187
:1029F000FE052091FF0530910006601771078207E0
:102A0000930708F4F4C089E995E0E0DE84E0E3C0D0
:102A10000E94E0086093090670930A0680930B06F3
:102A200090930C061092990510929A0510929B05AE
:102A300010929C0580E090E0C9DE81E0DED881E064
:102A4000CAC062E0C8015DDF8823F9F065EF72E07B
:102A5000CE01019661DEE5EDF3E005541D4FBF01A7
:102A60006E5F7F4F81819081963321F489E895E0F4
:102A700053DE06C0FB01E80FF11DE017F10778F304
:102A8000CE010196A3DE82E0A6C00E94E00800917C
:102A90000506109106062091070630910806601B76
:102AA000710B820B930B613177428105910508F41C
:102AB0009EC010920D069BC065E0C80122DF8823EE
:102AC00021F381E0A9D865EF72E089E995E024DE81
:102AD000E5EDF3E0C80185549D4F7C0180818F01B5
:102AE0000E5F1F4FD1808630B1F048F4813079F00D
:102AF000833009F042C0B8018DE895E00FC08A33F9
:102B000079F08F3F09F448C08333B9F509C0B801A3
:102B100085E995E003C0B80185E895E0FDDD3AC0A0
:102B2000F80184E040E050E0BA0191912227342F6F
:102B3000452F562F290F311D411D511D815019F070
:102B4000BA01A901F2CF2093FD053093FE05409311
:102B5000FF05509300062F3F9FEF3907490759079C
:102B6000C9F0A8EEB3E011D16093FD057093FE05A6
:102B70008093FF05909300060DC0E091F805F09159
:102B8000F905309739F09091FA05891303C04D2D5E
:102B9000B801099580E001C081E0F801ED0DF11D5B
:102BA000811104C0EE15FF0508F498CF0E94E008DB
:102BB00060930106709302068093030690930406C7
:102BC00080918D05882319F08DE895E034DA83E053
:102BD00080930D060CC080930D060E94E008609360
:102BE00005067093060680930706909308060F90DB
:102BF0000F900F900F90DF91CF911F910F91FF9049
:102C0000EF90DF900895CF92DF92EF92FF920F93B3
:102C10001F93CF93DF93CDB7DEB72C970FB6F89401
:102C2000DEBF0FBECDBFC982DA82EB82FC820D838C
:102C30001E832F83388749875A876B877C872CE0D0
:102C4000FE013196DC0101900D922A95E1F72CE00E
:102C5000FE017796DC011C9601900D922A95E1F712
:102C60002C960FB6F894DEBF0FBECDBFDF91CF918B
:102C70001F910F91FF90EF90DF90CF900895991BD7
:102C800079E004C0991F961708F0961B881F7A9563
:102C9000C9F780950895AA1BBB1B51E107C0AA1F65
:102CA000BB1FA617B70710F0A61BB70B881F991FED
:102CB0005A95A9F780959095BC01CD01089597FB91
:102CC000072E16F4009406D077FD08D0E4DF07FC49
:102CD00005D03EF4909581959F4F0895709561952C
:102CE0007F4F0895A1E21A2EAA1BBB1BFD010DC048
:102CF000AA1FBB1FEE1FFF1FA217B307E407F507AC
:102D000020F0A21BB30BE40BF50B661F771F881F87
:102D1000991F1A9469F760957095809590959B011D
:102D2000AC01BD01CF010895052E97FB16F4009468
:102D30000FD057FD05D0D6DF07FC02D046F408C0FF
:102D400050954095309521953F4F4F4F5F4F0895D7
:102D500090958095709561957F4F8F4F9F4F089507
:102D6000A29FB001B39FC001A39F700D811D1124CC
:102D7000911DB29F700D811D1124911D0895F0DFEA
:102D8000B7FF0895821B930B0895EADFA59F900D6E
:102D9000B49F900DA49F800D911D11240895EE0FF6
:102DA000FF1F0590F491E02D0994CF93DF938230BB
:102DB000910510F482E090E0E0911006F091110688
:102DC00020E030E0A0E0B0E0309739F1408151815F
:102DD00048175907B8F04817590771F48281938151
:102DE000109729F013969C938E9312972CC0909372
:102DF00011068093100627C02115310531F04217C6
:102E0000530718F0A901DB0101C0EF019A01BD01D0
:102E1000DF010280F381E02DD7CF21153105F9F0D4
:102E2000281B390B2430310580F48A819B81611580
:102E3000710521F0FB019383828304C090931106F6
:102E400080931006FE01329644C0FE01E20FF31F8C
:102E50008193919322503109398328833AC020917C
:102E60000E0630910F06232B41F420910201309180
:102E7000030130930F0620930E062091000130913C
:102E800001012115310541F42DB73EB740910401F0
:102E900050910501241B350BE0910E06F0910F06B1
:102EA000E217F307A0F42E1B3F0B2817390778F021
:102EB000AC014E5F5F4F2417350748F04E0F5F1F80
:102EC00050930F0640930E068193919302C0E0E069
:102ED000F0E0CF01DF91CF910895CF93DF9300977A
:102EE00009F487C0FC01329713821282C091100648
:102EF000D0911106209781F420813181280F391F4C
:102F000080910E0690910F068217930779F5F09342
:102F10000F06E0930E066DC0DE0120E030E0AE1734
:102F2000BF0750F412964D915C9113979D01411586
:102F3000510509F1DA01F3CFB383A28340815181B6
:102F4000840F951F8A179B0771F48D919C9111979F
:102F5000840F951F02969183808312968D919C9188
:102F60001397938382832115310529F4F093110679
:102F7000E09310063EC0D9011396FC93EE9312978E
:102F80004D915D91A40FB51FEA17FB0779F480817D
:102F90009181840F951F0296D90111969C938E936F
:102FA0008281938113969C938E931297E0E0F0E0D8
:102FB0008A819B81009719F0FE01EC01F9CFCE01C7
:102FC000029628813981820F931F20910E0630913D
:102FD0000F062817390769F4309729F41092110663
:102FE0001092100602C013821282D0930F06C09373
:102FF0000E06DF91CF910895A0E0B0E0E1E0F8E1A6
:10300000A5C1EC01CB01209711F4CFDEB4C0FE01C5
:10301000E60FF71F9E0122503109E217F30708F46B
:10302000A8C0D9010D911C91119706171707B0F090
:103030000530110508F49BC0A801445051094617FA
:10304000570708F494C002501109061B170B01938F
:1030500011936D937C93CF0140DF89C05B01A01A6F
:10306000B10A4E01800E911EA0911006B09111067A
:10307000612C712C60E070E0109709F449C0A8152C
:10308000B905C9F5ED90FC901197670142E0C40EB7
:10309000D11CCA14DB0478F147018A189B0864012B
:1030A00042E0C40ED11C1296BC9012971396AC91BC
:1030B000B5E0CB16D10440F0B282A3839182808226
:1030C000D9018D939C9309C00E5F1F4F0E0D1F1DDC
:1030D000F90111830083EB2DFA2F6115710531F091
:1030E000DB011396FC93EE93129741C0F093110607
:1030F000E09310063CC06D917C911197661677069F
:1031000008F43B01BD0112960D90BC91A02DB4CFE7
:1031100060910E0670910F0668157905E9F468163E
:103120007906D0F4409100015091010141155105FB
:1031300041F44DB75EB76091040170910501461BE3
:10314000570BE417F507A8F4F0930F06E0930E066B
:10315000F901918380830BC028DE7C01009749F040
:10316000A801BE0148D0CE01B8DEC70104C0CE011F
:1031700002C080E090E0CDB7DEB7EEE003C11F9360
:10318000FC0199278827BC01E89411911032E9F3DA
:10319000193010F01E30C8F31B3249F01D3241F4D3
:1031A000689405C068D0610F711D811D911D11913A
:1031B00010531A30B8F33EF4909580957095619550
:1031C0007F4F8F4F9F4F1F910895FB01DC0102C07D
:1031D00005900D9241505040D8F70895FB01DC0155
:1031E00004C08D910190801921F441505040C8F7DE
:1031F000881B990B0895FB01DC0102C001900D9220
:1032000041505040D8F70895FB01DC0101900D9228
:103210000020E1F70895FB01DC014150504030F0FF
:103220008D910190801919F40020B9F7881B990B32
:1032300008954532510518F4423008F004C0FB01EE
:103240001082CB010895BB274A3031F4992322F430
:10325000BDE2909581959F4F45C0BB272A3051F420
:10326000992342F4BDE290958095709561957F4FCA
:103270008F4F9F4F16C0592F482F372F262F660F7D
:10328000771F881F991F660F771F881F991F620F6E
:10329000731F841F951F660F771F881F991F08953E
:1032A000BB27FA01A62F6217710581059105330B23
:1032B00030FB66F0AA27660F771F881F991FAA1F89
:1032C000A21710F0A21B63953850A9F7A05DAA338E
:1032D00008F0A95DA19336F7B111B1931082CA012C
:1032E00021C0BB27FB015527AA27880F991FAA1FBA
:1032F000A41710F0A41B83955051B9F7A05DAA3311
:1033000008F0A95DA193009779F7B111B1931192DB
:10331000CB0108C0F999FECF92BD81BDF89A9927DB
:1033200080B50895DC01FC01672F71917723E1F7E7
:10333000329704C07C916D9370836291AE17BF0782
:10334000C8F308952F923F924F925F926F927F92AF
:103350008F929F92AF92BF92CF92DF92EF92FF92A5
:103360000F931F93CF93DF93CDB7DEB7CA1BDB0B51
:103370000FB6F894DEBF0FBECDBF09942A883988F6
:1033800048885F846E847D848C849B84AA84B984FD
:10339000C884DF80EE80FD800C811B81AA81B98109
:1033A000CE0FD11D0FB6F894DEBF0FBECDBFED011D
:0633B0000895F894FFCF20
:1033B6000000120620005554432B320000010A0378
:1033C6003C005554432B3100000103027800C0A88D
:1033D600026A7469692D30310150000A0163825313
:1033E60063350141726475696E6F2D3030000000DF
:1033F60000000000000000000000000000000000C7
:10340600000000416464726573733A2068747470D6
:103416003A2F2F0065787065637465643A2000471B
:103426004554202F006E6F2076616C6964204745F5
:10343600542072657175657374003F70616E656CBA
:103446003D7570200050616E656C7320676F696E04
:10345600672075702E003F70616E656C3D646F77F6
:103466006E200050616E656C7320676F696E672011
:10347600646F776E2E003F70616E656C3D73746F7E
:1034860070200050616E656C732073746F70706588
:10349600642F6E6F74206D6F76696E672E003F70B5
:1034A600616E656C3D6175746F20004175746F20A7
:1034B6006D6F6465207377697463686564206F6EE9
:1034C6002E003F70616E656C3D6D616E75616C209E
:1034D600004175746F206D6F64652073776974633E
:1034E600686564206F66662E003F64656772656571
:1034F600733D002026233137363B0070616E656CC4
:103506007320746F20646567726565733A20003FA7
:1035160075706461746500206175746F00206D615B
:103526006E75616C0050616765206E6F7420666F02
:10353600756E640000000000DD00B40500000000A8
:103546004B04B405CF03E803DA032A040D0A006E20
:10355600616E00696E66006F766600FFFFFFFFFF13
:02356600FF0064
:00000001FF
