:100000001FC1000045C1000043C1000041C1000004
:100010003FC100003DC100003BC1000039C10000EC
:1000200037C1000035C1000033C1000031C10000FC
:100030002FC100002DC100002BC1000029C100000C
:100040000C94AB0B25C10000FAC600002AC70000C3
:100050001FC100001DC100001BC1000019C100002C
:1000600017C1000015C100002F696E6465782E70FD
:10007000687000244624530024463C7469746C65FF
:100080003E536F6C41726475696E6F3C2F74697476
:100090006C653E3C68313E244424443A2444244464
:1000A0003A244424443C2F68313E004661696C6523
:1000B0006420746F206163636573732045746865A1
:1000C000726E657420636F6E74726F6C6C65720013
:1000D000485454502F312E3020323030204F4B0DA9
:1000E0000A436F6E74656E742D547970653A20748E
:1000F0006578742F68746D6C0D0A507261676D615C
:100100003A206E6F2D63616368650D0A0D0A006504
:1001100075726F70652E706F6F6C2E6E74702E6FAF
:1001200072670000000008000201000003040700DD
:1001300000000000000000010204081020408001BF
:10014000020408102001020408102004040404041E
:100150000404040202020202020303030303030075
:10016000000000250028002B0000000000240027CC
:10017000002A00504F535420244620485454502FF6
:10018000312E300D0A486F73743A2024460D0A242C
:100190004624534163636570743A202A2F2A0D0A5E
:1001A000436F6E74656E742D4C656E6774683A208B
:1001B00024440D0A436F6E74656E742D5479706516
:1001C0003A206170706C69636174696F6E2F782D6D
:1001D0007777772D666F726D2D75726C656E636FB4
:1001E0006465640D0A0D0A24530000474554202419
:1001F00046245320485454502F312E300D0A486F56
:1002000073743A2024460D0A24460D0A0D0A004153
:1002100063636570743A20746578742F68746D6CCC
:1002200000E30004FA000100000001450000820024
:1002300000400020000108000604000190057F072F
:1002400011241FBECFEFD8E0DEBFCDBF13E0A0E08A
:10025000B1E0E0EDFAE402C005900D92A236B107DC
:10026000D9F726E0A2E6B3E001C01D92A93DB2078E
:10027000E1F712E0C0E4D2E004C02297FE010E9440
:100280003F20CC33D107C9F70E94A00B0C94662500
:10029000B7CEDC011696ED91FC9117979F012F5F69
:1002A0003F4F17963C932E931697608381E090E022
:1002B0000895CF93DF9385E10E94960CEC014AE00C
:1002C00050E0BC0185E795E07ED7CB3882E0D807C7
:1002D00024F0DE01AA58B24004C0AAE8B2E0AC1B88
:1002E000BD0B24E630E00E9427202DE631E040E0FF
:1002F00050E00E94FC1F64E3629FC001639F900D69
:10030000112464E670E00E94C71FCB010596DF91BF
:10031000CF9108954F925F926F927F928F929F92AA
:10032000AF92BF92CF92DF92EF92FF920E94F50BB5
:1003300028EE33E040E050E00E94DA1F49015A0104
:10034000CA01B90120E13EE040E050E00E94FC1FFC
:1003500029013A018CE3C82ED12CE12CF12CC501E6
:10036000B401A70196010E94FC1FB62ECA01B90173
:10037000A70196010E94FC1F462F1092660310925F
:10038000650321EA33E030936803209367033093D9
:100390006A03209369032AE08B2D622F0E94A71F16
:1003A0001F929F931F928F93842F0E94A71F1F92CB
:1003B0009F931F928F93C2016AE070E00E94B31F67
:1003C0009F938F937F936F9380ED90E09F938F9394
:1003D00088E790E09F938F9383E693E09F938F93BA
:1003E0000E94890D8DB79EB742960FB6F8949EBFB6
:1003F0000FBE8DBFFF90EF90DF90CF90BF90AF907A
:100400009F908F907F906F905F904F900895109283
:1004100066031092650321EA33E03093680320936A
:10042000670330936A03209369039F938F9380ED52
:1004300090E09F938F9383E790E09F938F9383E661
:1004400093E09F938F930E94890D8DB79EB7089676
:100450000FB6F8949EBF0FBE8DBF08950F931F93E4
:10046000CF93DF9300D000D0CDB7DEB760913601D7
:100470008FE196E00E947F140E94AF118C010E94D0
:100480005316012BC9F360913601CE0101960E94EB
:10049000CF14882389F349815A816B817C8140582C
:1004A0005E476A4A73488BE495E00E946F1F0F9085
:1004B0000F900F900F90DF91CF911F910F910895A2
:1004C00067E771E085E795E0D9D580EE95E7ABEB7E
:1004D000B7E58093060190930701A0930801B093BC
:1004E00009018AEE95E7ABEBB7E580930A0190939B
:1004F0000B01A0930C01B0930D016BE871E085E74F
:1005000095E0A1D525E735E040E050E06EE373E0EB
:1005100088E690E00E94D51510927405109273053C
:1005200008950F931F93CF93DF9306E011E0C0E08F
:10053000D0E0F80181919191A191B1918F01209129
:10054000460130914701813E9547AB4BB745ECF0F2
:10055000C217D3072CF164E971E085E795E073D504
:100560004AE050E0BE0185E795E02DD6D0937405B2
:10057000C0937305A5DF68EE73E080E090E0DF9143
:10058000CF911F910F910C94240CC217D30704F73D
:100590004AE050E0BE0185E795E015D62196C9CF27
:1005A0002197D0937405C093730566EA71E085E7DF
:1005B00095E049D5E0917305F0917405EE0FFF1FAA
:1005C000EE0FFF1FEE5EFE4F40815181628173810D
:1005D00022E030E085E795E014D7E0917305F091D3
:1005E0007405EE0FFF1FEE0FFF1FEE5EFE4F6081E2
:1005F000718182819381DF91CF911F910F919BC176
:1006000026E040E855E260E070E085E795E0B5D38C
:1006100061E083E00E94DC0C61E084E00E94DC0C7D
:1006200061E085E00E94DC0C4AE06FE371E080EE5F
:1006300091E00E94870E811105C06BEA70E085E7AA
:1006400095E00CD52CE133E047E351E060E273E044
:100650008BE391E00E94A90E67E376E086EC91E0DF
:100660000E94631960E08FE091E00E94DC0E81112E
:1006700005C067ED71E085E795E000D56FE176E0B4
:1006800082EE91E00E946319E9DE0E945F1D61EF36
:1006900071E085E795E0D7D40E94901DAB01BC01C5
:1006A0002AE030E085E795E0B6D520EC20931F06E0
:1006B00098EA9093200682E08093210637E03093F9
:1006C00022062093370190933801809339018EEFF1
:1006D00080933A012CE133E047E351E060E273E0BC
:1006E0008BE391E00E94A90E81E08093620319CF11
:1006F000CF92DF92EF92FF920F931F93CF93DF93EE
:10070000CDB7DEB72C970FB6F894DEBF0FBECDBFC6
:100710000E94AF110E9453168C01009709F4FCC08F
:1007200061E070E080E090E00E94240C109266038B
:100730001092650381EA93E09093680380936703C6
:1007400090936A038093690305591C4F45E050E07C
:10075000B80188EF91E00E949824892B19F06EEF80
:1007600071E0CBC0780185E0E80EF11CF8018581CD
:10077000803211F4CFDDC4C04AE050E0B70183E11C
:1007800092E00E949824892B19F48EE192E00BC02C
:100790004CE050E0B7018FE292E00E949824892B50
:1007A00031F48CE392E033DE10926203A9C04CE096
:1007B00050E0B7018FE492E00E949824892B19F44D
:1007C0008CE592E0F0CF4CE050E0B70187E792E093
:1007D0000E949824892B41F4A4DE84E892E017DE7D
:1007E00081E0809362038CC04CE050E0B7018BE95C
:1007F00092E00E949824892B19F48AEA92E0D3CFE0
:1008000049E050E0B70182EC92E00E949824892BE5
:1008100009F03FC06EE373E0CE0107966DD6F80194
:100820006685CE01079656D7F8016785CE010796F3
:1008300051D7CE01079678D76B017C014AE0CE01F3
:100840000196E3D6BE016F5F7F4FCE010796BCD6FF
:10085000CE010196E6D56CEC72E0CE0107962BD75F
:1008600064ED72E085E795E0EED34AE050E0B60132
:1008700085E795E0A8D4B601882777FD8095982F65
:100880000E94472158D08F819885C1DD1092620364
:100890002EC047E050E0B70188EE92E00E94982415
:1008A000892B49F506DD4AE0BC01CE010796ADD69D
:1008B00080916203BE01695F7F4F882331F0CE01D2
:1008C00001967AD660EF72E005C0CE01019674D62B
:1008D00066EF72E0CE0101960FD7BC01CE010796FC
:1008E00056D6CE0101969DD58F81988590DDCE019B
:1008F000079697D505C06EEF72E085E795E0BED309
:100900008091690390916A03209167033091680395
:10091000821B930B0E946F142C960FB6F894DEBFC7
:100920000FBECDBFDF91CF911F910F91FF90EF9040
:10093000DF90CF900895CF92DF92EF92FF92CF9306
:10094000DF936B017C0120E030E040EA50E40E943C
:10095000432020E030E040E552E40E94AC2020E05B
:1009600030E048EC52E40E94FB2120E030E846EB06
:1009700053E40E94FB210E94142124E630E040E071
:1009800050E00E94FC1FE901C657DD4F22E030E035
:10099000B701A60185E795E034D56DE073E085E702
:1009A00095E051D34AE050E0BE0185E795E00BD4D5
:1009B000C12CD12CE12CF12C6091450170E0C616C0
:1009C000D70644F485E1B2D7E80EF91E8FEFC81AB6
:1009D000D80AF2CFC7010E94C71FCB018C1B9D0B09
:1009E00097FF03C091958195910904979CF080DE53
:1009F000C12CD12CE12CF12C6091450170E0C61680
:100A0000D70644F785E192D7E80EF91E8FEFC81A92
:100A1000D80AF2CFDF91CF91FF90EF90DF90CF9087
:100A200008950E94AF110E94531662DE2091730553
:100A3000309174052F5F3F4F80914601909147019F
:100A40002817390734F03CDD68EE73E080E090E071
:100A5000FBC680916203882381F1A901440F551FD1
:100A6000440F551FFA01EA5FFE4F80819181A281F8
:100A7000B381813E9547AB4BB745FCF43093740589
:100A800020937305FA01EE5EFE4F40815181628131
:100A9000738122E030E085E795E0B3D4E0917305FF
:100AA000F0917405EE0FFF1FEE0FFF1FEE5EFE4F7D
:100AB00060817181828193813ECF0895CF93DF93CE
:100AC00000D0CDB7DEB72091D5063091D6062115DE
:100AD000310511F429ED36E0CE010196821B930B0E
:100AE0000F900F90DF91CF910895CF93DF93EB019B
:100AF00068E173E085E795E0C1D2BE0165597C4F9E
:100B0000FB01E052FE4F108285E795E09CD2D6DFD4
:100B10004AE050E0BC0185E795E0DF91CF9153C3F7
:100B2000CF92DF92EF92FF920F931F938DB79EB7F4
:100B30000C970FB6F8949EBF0FBE8DBFADB7BEB772
:100B400011968CE0EEE1F1E001900D928A95E1F7CB
:100B5000C0902A01D0902B01E0902C01F0902D0143
:100B600000912E0110912F0120913001309131011F
:100B700040913201509133016091340170913501FF
:100B80008BE495E00E94201E10926603109265038C
:100B900088E293E090936403809363038DB79EB7DC
:100BA0000C960FB6F8949EBF0FBE8DBF1F910F918C
:100BB000FF90EF90DF90CF900895FC01818D228D02
:100BC00090E0805C9F4F821B91098F739927089555
:100BD000FC01918D828D981731F0828DE80FF11D07
:100BE000858D90E008958FEF9FEF0895FC01918D22
:100BF000828D981761F0828DDF01A80FB11D5D967F
:100C00008C91928D9F5F9F73928F90E008958FEFEC
:100C10009FEF089586E797E0892B41F080E090E010
:100C2000892B21F063D181110C9400000895FC01FF
:100C3000848DDF01A80FB11DA35ABF4F2C91848D65
:100C400090E001968F739927848FA689B7892C939A
:100C5000A089B1898C9180648C93938D848D981335
:100C600006C00288F389E02D80818F7D80830895FE
:100C7000CF93DF93EC01888D8823C1F0EA89FB894B
:100C8000808185FD05C0A889B9898C9186FD0EC03B
:100C90000FB607FCF5CF808185FFF2CFA889B9890F
:100CA0008C9185FFEDCFCE01C2DFE8CFDF91CF91F0
:100CB0000895CF92DF92FF920F931F93CF93DF930C
:100CC0001F92CDB7DEB76C0181E0D60158968C93A8
:100CD00058975B969C915B975C968C915C97981368
:100CE00007C05096ED91FC915197808185FD2DC0F4
:100CF000F601038D10E00F5F1F4F0F731127F02EC9
:100D0000F601848DF81210C00FB607FCF9CFD6019A
:100D10005096ED91FC915197808185FFF1CFC601EE
:100D2000698385DF6981ECCF838DE80FF11DE35A7C
:100D3000FF4F6083D6015B960C935B975296ED91C3
:100D4000FC915397808180620CC0D6015696ED913C
:100D5000FC91579760835096ED91FC91519780815B
:100D60008064808381E090E00F90DF91CF911F91AC
:100D70000F91FF90DF90CF900895BF92CF92DF92B6
:100D8000EF92FF92CF93DF93EC016A017B01B22EC9
:100D9000E889F98982E08083411581EE5807610571
:100DA0007105A1F060E079E08DE390E0A701960184
:100DB0000E94DA1F21503109410951095695479582
:100DC00037952795211580E1380798F0E889F9894A
:100DD000108260E874E88EE190E0A70196010E941D
:100DE000DA1F215031094109510956954795379528
:100DF0002795EC85FD853083EE85FF852083188E51
:100E0000EC89FD89B082EA89FB89808180618083D9
:100E1000EA89FB89808188608083EA89FB898081F7
:100E200080688083EA89FB8980818F7D8083DF9160
:100E3000CF91FF90EF90DF90CF90BF9008951F92D9
:100E40000F920FB60F9211242F938F939F93EF93CE
:100E5000FF93E0918505F09186058081E0918B05F7
:100E6000F0918C0582FD12C0908180918E058F5F7C
:100E70008F7320918F05821751F0E0918E05F0E07D
:100E8000EB58FA4F958F80938E0501C08081FF91BA
:100E9000EF919F918F912F910F900FBE0F901F9008
:100EA00018951F920F920FB60F9211242F933F9314
:100EB0004F935F936F937F938F939F93AF93BF9362
:100EC000EF93FF9385E795E0B2DEFF91EF91BF913D
:100ED000AF919F918F917F916F915F914F913F91D2
:100EE0002F910F900FBE0F901F90189585E795E0FA
:100EF00064DE21E0892B09F420E0822F089510920E
:100F000078051092770588EE93E0A0E0B0E080933A
:100F1000790590937A05A0937B05B0937C0580E3D7
:100F200093E0909376058093750585EC90E090931F
:100F300082058093810584EC90E0909384058093F2
:100F4000830580EC90E0909386058093850581EC85
:100F500090E0909388058093870582EC90E09093D1
:100F60008A058093890586EC90E090938C058093A8
:100F70008B0510928E0510928F051092900510929D
:100F800091050895CF92DF92EF92FF920F931F93F6
:100F9000CF93DF937C016A01EB0100E010E00C15B8
:100FA0001D0571F06991D701ED91FC910190F081DF
:100FB000E02DC7010995892B19F00F5F1F4FEFCF67
:100FC000C801DF91CF911F910F91FF90EF90DF90BB
:100FD000CF9008956115710581F0DB010D9000201F
:100FE000E9F7AD0141505109461B570BDC01ED916A
:100FF000FC910280F381E02D099480E090E0089557
:10100000EF92FF920F931F93CF93DF938C017B019D
:10101000C0E0D0E0F701EC0FFD1F6491662359F0AA
:10102000F801A081B181ED91FC91C8010995892B4E
:1010300011F02196EFCFCE01DF91CF911F910F914B
:10104000FF90EF900895C6CFDC01ED91FC910190E7
:10105000F081E02D09946CE373E0BCCF0F931F93F4
:10106000CF93DF93EC01CCDF8C01CE01F4DF800F56
:10107000911FDF91CF911F910F9108950F931F93AF
:10108000CF93DF93EC01A6DF8C01CE01E4DF800F6C
:10109000911FDF91CF911F910F9108958F929F9291
:1010A000AF92BF92DF92EF92FF920F931F93CF9375
:1010B000DF93CDB7DEB7A1970FB6F894DEBF0FBEB2
:1010C000CDBF7C01F42FD52ECB0119A2223008F41C
:1010D0002AE08E010F5D1F4F822E912CA12CB12C86
:1010E0006F2F7D2DA50194010E94DA1FF22FD32EC0
:1010F000CA01015011096A3014F4E0E301C0E7E3CA
:10110000E60FD801EC93232B242B252B49F7B801AC
:10111000C70160DFA1960FB6F894DEBF0FBECDBF4A
:10112000DF91CF911F910F91FF90EF90DF90BF90D3
:10113000AF909F908F900895CF92DF92EF92FF92A1
:101140000F931F93CF93DF93EC016A017B0121156D
:10115000310579F4E881F9810190F081E02D642F67
:10116000DF91CF911F910F91FF90EF90DF90CF9083
:1011700009942A303105D9F477FF18C06DE264DF95
:101180008C0144275527BA014C195D096E097F0966
:101190002AE0CE0183DF800F911FDF91CF911F9155
:1011A0000F91FF90EF90DF90CF9008952AE0B70164
:1011B000A601CE01DF91CF911F910F91FF90EF908B
:1011C000DF90CF906BCF0F931F93CF93DF93EC0102
:1011D0009A01AB01662757FD6095762FADDF8C0134
:1011E000CE0139DF800F911FDF91CF911F910F91B9
:1011F00008952115310541F4DC01ED91FC91019038
:10120000F081E02D642F099449CF9A01462F50E0D8
:1012100060E070E0EECF0F931F93CF93DF93EC016C
:10122000E8DF8C01CE0117DF800F911FDF91CF9196
:101230001F910F9108954F925F926F927F928F92BC
:101240009F92AF92BF92CF92DF92EF92FF920F9355
:101250001F93CF93DF93EC016A017B01B22E9A01B9
:10126000AB01C701B6010E945E22882319F06FE32B
:1012700073E027C026013701E89477F82FEF3FEF9E
:101280004FE75FE7C301B2010E945E2281110DC0EA
:101290002FEF3FEF4FE75FE7C301B2010E94A820A5
:1012A00018161CF463E473E00CC02FEF3FEF4FE718
:1012B0005FE4C701B6010E94F7211816A4F467E4A1
:1012C00073E0CE01DF91CF911F910F91FF90EF90CE
:1012D000DF90CF90BF90AF909F908F907F906F9056
:1012E0005F904F9077CE2FEF3FEF4FE75FECC70156
:1012F000B6010E94A82087FDE2CF20E030E0A901DE
:10130000C701B6010E94A82087FF09C06DE2CE0187
:101310009BDE8C01F7FAF094F7F8F09402C000E03D
:1013200010E0A12C60E070E080E09FE3AB1441F09E
:1013300020E030E040E251E40E94AC20A394F6CFDC
:101340009B01AC01C701B6010E9444206B017C01E6
:101350000E9419212B013C010E9445219B01AC01F7
:10136000C701B6010E9443206B017C012AE0B30152
:10137000A201CE0193DE080F191FBB2031F060ECF3
:1013800072E0CE0127DE080F191F7B2C772039F180
:1013900020E030E040E251E4C701B6010E94FB21A9
:1013A0006B017C010E9414214B01AA2497FCA0949C
:1013B000BA2C2AE030E0B501A401CE01BDDE080F51
:1013C000191FC501B4010E9447219B01AC01C7014F
:1013D000B6010E9443206B017C017A94D7CFC801EB
:1013E000DF91CF911F910F91FF90EF90DF90CF9001
:1013F000BF90AF909F908F907F906F905F904F9035
:1014000008950F931F93CF93DF93EC0114DF8C01AA
:10141000CE0121DE800F911FDF91CF911F910F919F
:101420000895FC01808191810C94FA22CF93DF937F
:10143000EC0188819981009711F00E94FA221982AB
:1014400018821D821C821B821A82DF91CF9108951F
:101450000F931F93CF93DF93EC018B016F5F7F4F4F
:10146000888199810E948923009731F0998388832C
:101470001B830A8381E001C080E0DF91CF911F913F
:101480000F910895CF93DF93EC0188819981892B87
:1014900029F08A819B818617970758F4CE01D8DFFF
:1014A000882341F08C819D81892B19F4E881F98191
:1014B000108281E0DF91CF910895EF92FF920F9318
:1014C0001F93CF93DF93EC017B018A01BA01DADF2E
:1014D000811103C0CE01AADF07C01D830C83B701B1
:1014E000888199810E949124CE01DF91CF911F9133
:1014F0000F91FF90EF900895FC01118210821382EA
:101500001282158214826115710551F0FB01019060
:101510000020E9F7AF0141505109461B570BCDCFD1
:1015200008950F931F93CF93DF938C01EB01FC0180
:1015300080819181009799F0428153812C813D8176
:101540004217530750F0688179810E9491248C8161
:101550009D81F8019583848313C00E94FA228881BB
:101560009981F801918380838A819B81938382830F
:101570008C819D8195838483198218821B821A82B3
:101580001D821C82DF91CF911F910F910895CF93FF
:10159000DF93EC01FB018617970751F060817181A1
:1015A0006115710521F04481558187DF01C03EDF5F
:1015B000CE01DF91CF910895FC0111821082138238
:1015C000128215821482E3CFCF93DF93EC0186174A
:1015D000970709F0A6DFCE01DF91CF910895CF9351
:1015E000DF93EC016115710559F0FB0101900020BA
:1015F000E9F7AF0141505109461B570B5EDF01C0AF
:1016000015DFCE01DF91CF9108950F931F93CF93F4
:10161000DF93CDB7DEB762970FB6F894DEBF0FBE8B
:10162000CDBF8C01CB01F80111821082138212828E
:101630001582148250E0BE016F5F7F4F0E94A62486
:10164000BE016F5F7F4FC801CADF62960FB6F89484
:10165000DEBF0FBECDBFDF91CF911F910F910895D7
:10166000EF92FF920F931F93CF93DF93EC017B01D7
:101670000C811D816115710511F480E015C04115C3
:10168000510589F0040F151FB801FCDE8823A9F36A
:10169000288139818C819D81B701820F931F0E941F
:1016A00091241D830C8381E0DF91CF911F910F91D5
:1016B000FF90EF9008956115710551F0FB010190C5
:1016C0000020E9F7AF0141505109461B570BC8CF25
:1016D00080E00895CF93DF9300D0CDB7DEB7698364
:1016E0001A8241E050E0BE016F5F7F4FB9DF0F907B
:1016F0000F90DF91CF910895CF93DF93EC016115A7
:10170000710561F0FB0101900020E9F7AF01415044
:101710005109461B570BA4DF811102C0CE0186DEA2
:10172000CE01DF91CF910895FC01808191810097D6
:1017300011F00C944C2460E070E0CB010895089502
:10174000BAD0FDDF0E940003CAE0D6E06AD9209734
:10175000E9F360DAFBCF1F920F920FB60F921124BC
:101760002F933F938F939F93AF93BF9380911306D3
:1017700090911406A0911506B091160630911206AC
:1017800023E0230F2D3720F40196A11DB11D05C0C4
:1017900026E8230F0296A11DB11D20931206809307
:1017A000130690931406A0931506B0931606809125
:1017B000170690911806A0911906B0911A06019685
:1017C000A11DB11D8093170690931806A0931906CA
:1017D000B0931A06BF91AF919F918F913F912F9136
:1017E0000F900FBE0F901F9018952FB7F89460912F
:1017F00013067091140680911506909116062FBF5E
:1018000008953FB7F8948091170690911806A0911B
:101810001906B0911A0626B5A89B05C02F3F19F0EE
:101820000196A11DB11D3FBF6627782F892F9A2FE2
:10183000620F711D811D911D42E0660F771F881F89
:10184000991F4A95D1F708958F929F92AF92BF92B8
:10185000CF92DF92EF92FF926B017C01D2DF4B01BE
:101860005C01C114D104E104F104E1F013D1C9DF3A
:10187000681979098A099B09683E734081059105B9
:1018800080F321E0C21AD108E108F10888EE880E41
:1018900083E0981EA11CB11CC114D104E104F10421
:1018A00031F7DFCFFF90EF90DF90CF90BF90AF90F8
:1018B0009F908F900895789484B5826084BD84B59C
:1018C000816084BD85B5826085BD85B5816085BD3B
:1018D000EEE6F0E0808181608083E1E8F0E0108254
:1018E000808182608083808181608083E0E8F0E095
:1018F000808181608083E1EBF0E08081846080837F
:10190000E0EBF0E0808181608083EAE7F0E08081B5
:101910008460808380818260808380818160808315
:101920008081806880831092C10008958E3008F015
:101930008E5087702091480190E4299F90011124D6
:10194000822B80937C0080917A00806480937A005F
:1019500080917A0086FDFCCF8091780020917900FB
:1019600090E0922B0895833081F028F4813099F033
:101970008230A1F008958730A9F08830B9F0843022
:10198000D1F4809180008F7D03C0809180008F779B
:1019900080938000089584B58F7702C084B58F7DD1
:1019A00084BD08958091B0008F7703C08091B0000E
:1019B0008F7D8093B0000895CF93DF9390E0FC017A
:1019C000E95CFE4F2491FC01E55BFE4F8491882386
:1019D00049F190E0880F991FFC01E759FE4FA5914E
:1019E000B491815A9E4FFC01C591D4919FB761116A
:1019F00008C0F8948C91209582238C93888182234F
:101A00000AC0623051F4F8948C91322F30958323C0
:101A10008C938881822B888304C0F8948C91822BCC
:101A20008C939FBFDF91CF9108950F931F93CF9316
:101A3000DF931F92CDB7DEB7282F30E0F901ED5DBF
:101A4000FE4F8491F901E95CFE4F1491F901E55BC9
:101A5000FE4F04910023C1F0882319F0698383DFCE
:101A60006981E02FF0E0EE0FFF1FE15AFE4FA591D4
:101A7000B4919FB7F8948C91611103C010958123A4
:101A800001C0812B8C939FBF0F90DF91CF911F914D
:101A90000F9108950895CF93DF93EC01FB018A30F5
:101AA000910540F06AE070E00E94B31FCB01BF01D6
:101AB000F2DFFC01CE016AE070E00E94B31F805D9E
:101AC00080831182CF010196DF91CF910895E82F95
:101AD000F0E093E0F595E7959A95E1F7EF5BF94F24
:101AE000877041E050E060E070E004C0440F551F93
:101AF000661F771F8A95D2F78081842B8083089593
:101B0000CF93C8E3C15019F08C2FE1DFFBCFCF9109
:101B10000895AF92BF92CF92DF92EF92FF920F9310
:101B20001F93CF93DF93CDB7DEB70D851E85EF846E
:101B3000F8885E0121E1A20EB11CC7010196F701F0
:101B40004491442309F4D8C0443279F0D801169660
:101B5000ED91FC9117979F012F5F3F4F17963C9394
:101B60002E93169740837C01E8CFB2E0EB0EF11C78
:101B7000FC018491863409F472C064F48434C9F0A1
:101B8000853409F09CC0F50180819181F2E0AF0EAF
:101B9000B11C7DC0D80116964D915C9117978C347D
:101BA00009F445C0833509F44FC0883409F087C073
:101BB0000CC06501B2E0CB0ED11CF80166817781C3
:101BC000D5018D919C9167DF88C095012E5F3F4FB5
:101BD000F5016081862F992787FD9095E4E0959522
:101BE0008795EA95E1F78F70962F9F709A300CF0E9
:101BF000995F70E3D72ED90E8A300CF0895FBA0155
:101C00006F5F7F4FD80117967C936E931697805D18
:101C1000FA0180831696ED91FC911797CF010196FA
:101C200017969C938E931697D082590186CF6501A3
:101C3000F4E0CF0ED11CD5016D917D918D919C91D9
:101C40002AE00E94BA2449C06501B2E0CB0ED11C43
:101C5000F50160817181CA010E9491243EC0F501A5
:101C60000190F081E02D22E0A20EB11C2491AF0181
:101C70004F5F5F4F222309F460CFF801A681B7813F
:101C8000CD010196978386832C93FA01EFCF6C01E7
:101C9000BFEFCB1ADB0A0E941725882309F44DCF2A
:101CA000D8011696ED91FC9117979F012F5F3F4F3A
:101CB00017963C932E9316978083C601E8CFD801E0
:101CC0001696ED91FC9117979F012F5F3F4F179646
:101CD0003C932E931697808330CFD8011696ED91C2
:101CE000FC91179701900020E9F731971796FC9324
:101CF000EE931697560121CFDF91CF911F910F914F
:101D0000FF90EF90DF90CF90BF90AF9008950F932A
:101D10001F93CF93DF9300D01F92CDB7DEB78C0116
:101D200010921E0688E34B8369837A83E9DE69811A
:101D30007A818BE396E00E9441194B816BE376E058
:101D4000C8010F900F900F90DF91CF911F910F91CD
:101D500024C2EF92FF920F931F93CF93DF938B01D7
:101D60007A01E90110921E06009729F0BC0187E371
:101D700096E00E9436190115110511F0C801B8D678
:101D8000E114F10429F0B70183E296E00E943619CC
:101D9000209729F0BE0183E396E00E943619B3D65E
:101DA00010921C0610921B0681E0DF91CF911F91CB
:101DB0000F91FF90EF900895EF92FF920F931F9372
:101DC000CF93DF93D82FF92EE62E0FDD8B0176D23D
:101DD000C82F811110C009DD601B710B603375477E
:101DE000B0F3C0E0DFC0BBD25ED7FFDC601B710B7D
:101DF00060337547B0F76DD68111F5CF10921F068D
:101E00001092200610922106109222068091480618
:101E10008F5F809348069091230691110BC048E094
:101E200058E0BA0140932306509324066093250698
:101E30007093260690E045E350E063E276E0906E12
:101E4000D1D58CE0E5E9F3E0DF011D928A95E9F751
:101E5000A1EAB3E06D2F7F2D362F3D1BFB01EE2055
:101E600011F0208101C024916F5F7F4F2E3251F01D
:101E7000222341F0862F8D1BAD01480F511DFA0121
:101E80002083EACFCD0101963C93DC01A30FB11D65
:101E9000222319F0D62FF72EDDCF1C9211961C921B
:101EA000119721E012962C93129713961C92139778
:101EB00014962C9314978BE693E0A81BA552A0933D
:101EC000950380914806809396032093970320936F
:101ED0009A038A2F90E0E2D588DC8B0180911F065F
:101EE000811160C082DC601B710B6033754708F0A4
:101EF00078CF35D27C01009789F3D5D6892B71F73D
:101F000046E4E416F10450F380918E03853331F7F3
:101F100080918F03803E11F7809190039091480645
:101F20008913DCCF909196039813D8CF80919803B2
:101F30008F7009F056CFE0919503F0E0EB56FC4F1F
:101F4000C70185599C4F2081207C19F0DF01129632
:101F50000BC03196DF01E817F90730F4FD01319627
:101F60002C912111F7CFDF019D01225F3F4F821796
:101F7000930708F4B3CF11962C9111971996EC9111
:101F80001997213051F4E43041F4BD01665F7F4F71
:101F90008FE196E00E943619A1CFF0E03A96EA0F61
:101FA000FB1FD1CF8C2FDF91CF911F910F91FF900D
:101FB000EF9008958EBD0DB407FEFDCF089561E04A
:101FC00080914C0632DD78940895F89460E0809119
:101FD0004C062BCD1F93CF93DF9300D0CDB7DEB748
:101FE000182F4A836983F1DF6981862F8F71812BD6
:101FF000E1DF4A81842FDEDF0F900F90DF91CF91D8
:102000001F91DDCF1F93CF93DF93182F1076C12F31
:10201000D0E020914D0630E0C217D30791F043E0A5
:102020006FE180EAD7DF10934D06AE0185E055954C
:1020300047958A95E1F76FE180E8DF91CF911F9195
:10204000C9CFDF91CF911F9108951F93CF93DF9355
:102050001F92CDB7DEB7182F6983D4DF4981612F76
:1020600080E40F90DF91CF911F91B4CF1F93CF9356
:10207000DF931F92CDB7DEB7182F7983E6DF798122
:10208000672F81E0810F0F90DF91CF911F91DDCFFE
:102090000F931F93CF93DF93EC018B0196DF209773
:1020A00029F4DF91CF911F910F9189CF8AE782DFC9
:1020B000F80181918EBDC00FD11FEC17FD0731F0E3
:1020C00081910DB407FEFDCF8EBDF7CF0DB407FE95
:1020D000FDCFE7CF0F931F93CF93DF93EC018B01DD
:1020E00074DF2097B9F08AE365DF1EBCF801CE01EA
:1020F0000197009739F00DB407FEFDCF2EB51EBC39
:102100002193F6CF2197C00FD11F0DB407FEFDCF4D
:102110008EB58883DF91CF911F910F9150CF1F9380
:10212000CF93DF931F92CDB7DEB7182F4EDF812FED
:102130008F7140DF80E03EDF17FF02C080E03ADFB2
:102140008EB589833CDF89810F90DF91CF911F91FC
:102150000895CF93C82F56DF8C2FCF91E0CF61E049
:102160008AE02ADC61E08AE060DC61E08BE024DC6C
:1021700061E08DE021DC60E08CE01EDC61E08BE062
:1021800054DC60E08BE051DC60E08DE04EDC80E50B
:102190008CBD8DB581608DBD08950F931F93CF9336
:1021A000DF931F92CDB7DEB78B01909350068093DB
:1021B0004F060CB406FC03C04983D1DF498140932C
:1021C0004C0661E0842FF8DBFADE4FEF60E08FEF22
:1021D00001DF62E070E080E090E036DB8DE19FDFC0
:1021E0008823E1F360E070E088E040DF60E070E0C9
:1021F0008CE03CDF6FEF7BE08AE038DF60E07CE082
:1022000084E034DF6FEF71E186E030DF61EB88E37B
:102210001CDF6FE370E388E229DF69EF77EF80E38B
:1022200025DF6DE080EC11DF60E081EC0EDF42E342
:1022300062EC80E8CFDE62E17CE086EC17DF62E1F1
:1022400084EC03DF6CED75E08AEC10DFF80160814F
:1022500084EEFBDEF801618185EEF7DEF801628134
:1022600082EEF3DEF801638183EEEFDEF801648134
:1022700080EEEBDEF801658181EEE7DE60E184ED62
:10228000E4DE60E071E086EDF1DE8AEE62DF80FD83
:10229000FCCF8FE1B7DE40EC6BE180E89BDE44E0F1
:1022A0006FE180E897DE82E754DF863008F08F5FC9
:1022B0000F90DF91CF911F910F91089561E184ED0F
:1022C000C4DE61E082EDC1DE8AEE43DF80FDFCCF3B
:1022D00060E082EDBADE89ED3CDF82FB882780F981
:1022E0000895CF93DF93EC0140E86FE180E872DE60
:1022F00040E86FE180EA6EDE4AE06CE180EA6ADE87
:1023000060E07CE082E0B2DEBE01745F86E0AEDEBB
:1023100040E060E08AE75EDE6BE673E0CE01B8DEA7
:1023200048E06FE180E856DEC0E0D0E08CE111DFEC
:102330008A7029F42196C83E83E0D807B9F78CE16A
:1023400008DF81FD03C0C83ED34030F048E06FE1B4
:1023500080EADF91CF913ECEDF91CF9108950F9328
:102360001F93CF93DF9300D000D000D0CDB7DEB75E
:1023700080914B06882381F06091490670914A064E
:102380006115710519F46FEF7BE002C061507109AE
:102390008CE06CDE10924B0689E3DBDE8823A9F12A
:1023A0006091490670914A0680E060DEBE016F5F71
:1023B0007F4F86E090E08EDE89819A8190934A0675
:1023C000809349068B819C8100914F0610915006A5
:1023D0002D8127FF0CC00497015011098017910728
:1023E00008F48C016BE673E0C80174DE02C000E003
:1023F00010E0F801E559FC4F108281E080934B0614
:1024000040E46EE180E8E6DD02C000E010E0C801D3
:1024100026960FB6F894DEBF0FBECDBFDF91CF91E9
:102420001F910F910895CF93C82F88E392DE682FF4
:10243000616088E30ADEC11103C081E080934E062B
:10244000CF910895811102C010924E0680914E06E0
:10245000811106C088E37DDE682F6E7F88E3F5CDAD
:1024600008950F931F93CF93DF9370E065597C4FCE
:10247000213021F48A01075F1F4F05C0223031F45B
:102480008A010250110920E030E003C000E010E0B2
:102490009801DB01FA01E230F10578F0CC91D0E04F
:1024A000DC2FCC2711969C911197C92B0C0F1D1F67
:1024B000211D311D12963297EECFDA01AE7FA60FA5
:1024C000B71F40FF0CC04C9150E060E070E0762FE9
:1024D000652F542F4427040F151F261F371FA901EE
:1024E00066277727411551056105710519F02227E7
:1024F0003327F1CF00951095E82FF0E0E559FC4F18
:1025000010830183DF91CF911F910F910895109255
:1025100083031092840380E480937F0310928003EE
:102520008093810320E044E150E06EE088E199CFA0
:1025300020918F0330918D0330938F0320938D036F
:102540002091900330918E033093900320938E035B
:10255000E5E9F3E0A9E9B3E02291820F911D2E9104
:102560008C93662311F0208301C01082892F992754
:1025700023E0E139F20781F710929D0310929E0348
:1025800080E5809399030895CF93DF93EC018896BB
:1025900090937B0380937C03BADF10929D0310928B
:1025A0009E03AE01445E5F4F22E06AE182E359DFA1
:1025B000CE01C696DF91CF9194CEBC018BE693E01D
:1025C00060D66BE376E081E793E05BC681E793E05A
:1025D000F4DF65E873E089E893E048D667E376E0E6
:1025E00085E893E043D693CF262F206120939A036A
:1025F000643021F0009711F481E090E061E098DF11
:1026000010927B0388E280937C03E0DF84E0809378
:102610009B0310929C0322E04CE150E06AE182E3CC
:1026200020DF86E390E05DCECF93DF9300D0CDB77F
:10263000DEB769837A83C1DF69817A8189E893E0B3
:1026400015D667E376E085E893E00F900F90DF9171
:10265000CF910CC61F93CF93DF93EC018FE493E0EF
:10266000ACDF88E08093770316E01093780348E0AE
:1026700050E064E372E089E793E00E947224EBE8A3
:10268000F3E0DF011D921A95E9F76BE376E081E84C
:1026900093E0F7D5BE0181E993E0E8D567E376E002
:1026A00087E893E0E3D58AE290E0DF91CF911F9134
:1026B00018CECF93DF93EB0144E050E0BC0187E8F4
:1026C00093E00E947B24892B31F461E873E0CE0112
:1026D000D8D581E001C080E0DF91CF9108950F93BC
:1026E0001F93CF93DF93CDB7DEB728970FB6F8943B
:1026F000DEBF0FBECDBF1C821B8228E233E03A83CF
:10270000298321EA33E03E832D8338872F839091FC
:102710007206891355C0A0916C06B0916D060091A8
:1027200067061091660670916B0660916A06CE018D
:1027300001961097C1F420916F062F9320916E0699
:102740002F930F931F93209169062F932091680672
:102750002F937F936F932BEE31E03F932F939F93B3
:102760008F93D7D928C020916E0630916F06FD0156
:1027700001900020E9F73197EA1BFB0B2115310589
:1027800029F44EE353E02AEE31E002C04CE353E07B
:10279000BF93AF93FF93EF935F934F933F932F9329
:1027A0000F931F937F936F9323E731E03F932F9312
:1027B0009F938F93AED90FB6F894DEBF0FBECDBFF7
:1027C0008F8198852D813E81821B930B28960FB6B1
:1027D000F894DEBF0FBECDBFDF91CF911F910F9157
:1027E00008950F931F93CF93DF9389019091720601
:1027F000891751F0E0917006F091710640E050E0C9
:1028000060E070E084E029C0611128C02D303105FE
:1028100028F1C0917006D09171062097F9F0BA01A5
:102820006C587C4F43E050E08BE493E00E94982486
:102830006091990370E034E0759567953A95E1F7FA
:10284000660F771F660F771F6E5D7F4F21E0892B24
:1028500009F420E0A801822FFE01099580E0DF91B4
:10286000CF911F910F910895CF93DF932091370659
:102870002223A9F0FC012081222389F0E7E3F6E07E
:10288000EC01A3E3B6E0219189919D9182278923F0
:1028900031F486E0EB33F807B1F781E001C080E066
:1028A000DF91CF91089580917B0390E0982F882746
:1028B00020917C03822B44972091990330E064E0BF
:1028C000359527956A95E1F7220F331F220F331FA5
:1028D000821B930B97FF02C080E090E00895CF9396
:1028E000DF93EC0160E080915106909152067CDE0E
:1028F00089E180939A03CE01DF91CF9145CE1F935A
:10290000CF93DF93EC01162FAFDFBE01882319F0C0
:102910008EE596E002C084E596E086DE88E080934E
:1029200077031092780349E050E06BE272E089E7A8
:1029300093E00E9472248CE480937C0381E1809375
:102940008203E5DD10928F038BE7809390038AE08A
:1029500080938D0310938E031092910388E38093EC
:102960009203109293031092940380E3E5E9F3E05D
:10297000DF011D928A95E9F74AE050E061E272E0DA
:10298000CF010E94722421E040E450E06AE188E235
:1029900068DD8AE590E0DF91CF911F91A2CCFC0128
:1029A000662321F08091900386131AC080919103D1
:1029B000811116C080919203883391F480918E0327
:1029C0008B3771F48091BD0383838091BE03828332
:1029D0008091BF0381838091C003808381E008954B
:1029E00080E00895CF92DF92EF92FF920F931F93B2
:1029F000CF93DF93F82EE92EEB01D42EC52ECB0119
:102A000033DFBE01882319F08EE596E002C084E52D
:102A100096E00ADE2881207F203E91F0088119810E
:102A20002A813B810F3F1F4F2F4F3F4F49F044E01A
:102A300050E0BE018FE296E00E947B24892B29F4AE
:102A40006FE473E08BE693E01CD488E08093770317
:102A50001092780349E050E06BE272E089E793E07E
:102A60000E94722410927B0381E180938203C092C2
:102A70008F03D0929003E0928D03F0928E03109218
:102A800091031092930310929403DF91CF911F91C1
:102A90000F91FF90EF90DF90CF900895CF93DF9349
:102AA000EC014C9690937B0380937C0330DDCE0148
:102AB00008969093910380939203AE01405F5F4F1D
:102AC00021E06AE188E2CDDCCE018A96DF91CF91E8
:102AD00008CC83E296E0C8DE882319F080915C067A
:102AE00004C0809153068695817091E089270895EE
:102AF00010921C0610921B0621E020935306BC0185
:102B00008BE296E0B3C3CF93DF93E7E3F6E0C3E352
:102B1000D6E0AFE2B6E0919189918095892B8D93B3
:102B200086E0EB33F807B9F7DF91CF9108959093E2
:102B300076068093750670937406609373065093BF
:102B400078064093770681E08093790680917A0633
:102B50008F5F877080937A0608950F931F939093E9
:102B60006B0680936A0670936906609368065093BB
:102B700067064093660630936F0620936E061092A8
:102B80006D0610926C0610937106009370064091CA
:102B9000490150914A016FE673E181EF93E1C7DF8C
:102BA000809372061F910F9108950F931F938901CF
:102BB0002FE032E0D2DF1F910F9108951F93CF9342
:102BC000DF93EB0140918F0350E0292F30E0421753
:102BD000530709F060C09091900398135CC0109166
:102BE0009A0311FF37C010927B038CE280937C0321
:102BF000EDDC82E180939A0360E081E090E098DC74
:102C0000109291031092920380914B018093930351
:102C1000109294038D5F80934B0182E08093A10317
:102C200084E08093A20385E08093A3031092A40321
:102C300090E69093990380939B0388E780939C038D
:102C400022E040E250E06AE182E30BDC8AE390E0BC
:102C500048DB21C014FF1FC026DE909352068093EC
:102C60005106892B91F02091990330E044E035958D
:102C700027954A95E1F7220F331F220F331F2E5D50
:102C80003F4FC217D30750F406C010FF04C060E0E6
:102C900080E090E0A9DC80E090E001C0C901DF9114
:102CA000CF911F910895EF92FF920F931F93CF93AF
:102CB000DF931F92CDB7DEB77C0180911E0688237B
:102CC00011F0C70102D4E114F10409F0B4C08091FD
:102CD0005306857049F080911B0690911C06892B44
:102CE00019F4ECDA8111BFC080911B0690911C068B
:102CF000019690931C0680931B0680917906813083
:102D000009F077C08091530681FF73C082E0809301
:102D1000790680914C018F5F80934C01109177066A
:102D2000009178068F71F82E80917A0620E2829FBA
:102D3000C0011124F82A8FE196E096DD6FE176E07C
:102D4000882319F08EE596E002C084E596E06CDCFD
:102D5000E8E0EE2EE09277031092780349E050E02D
:102D60006BE272E089E793E00E9472248CE2809328
:102D70007C0386E080938203CADB00938F03109369
:102D800090038BE080938D03F0928E03E1E9F3E0F2
:102D9000DF011D92EA94E9F780914B018093930340
:102DA0008D5F80934B0180E68093990382E080934E
:102DB0009A0393E090939B0310929C0310929D03BF
:102DC00010929E0310929F031092A0038093A10380
:102DD00094E09093A2038093A30386E28093A403DC
:102DE00022E040E250E06AE182E33BDB8AE390E0EC
:102DF00078DA83E296E038DD882341F080915C0642
:102E0000811104C080915D068823B1F18FE196E0C5
:102E10002BDD882309F4BEC180915A068111BAC105
:102E200080915B068111B6C18FE196E013DC81E0F1
:102E300080935B06AFC1B9E2EB16F10408F4AAC1B6
:102E4000109177031830F9F4809178038630D9F423
:102E500044E050E067E376E081E993E00E947B2460
:102E6000892B89F443C08BE296E0F4DB8091530612
:102E700088608093530638CF83E296E0EBDB81E0F5
:102E800080935D06C3CFFAE2EF16F10408F482C125
:102E9000183009F07FC18091780381117BC1809146
:102EA0007903853409F076C144E050E067E376E0C9
:102EB00089E893E00E947B24892B09F478C044E0E0
:102EC00050E06FE276E089E893E00E947B24892B52
:102ED00009F46DC044E050E06FE473E089E893E0EA
:102EE0000E947B24892B09F055C161C08091800329
:102EF0008130F9F481E793E060DB10927F0382E098
:102F00008093800361E873E08BE893E0BAD16BE3D0
:102F100076E081E893E0B5D167E873E081E993E07A
:102F2000A5D167E376E087E893E0A0D18AE290E05C
:102F3000D8D98091530683FF0BC0109180031230C3
:102F400039F464E576E08BE296E0B3DB811126C0CC
:102F500080915C0681110BC080915D06882339F059
:102F60006EE576E083E296E0A4DB81111AC08091E1
:102F70005A0681110FC180915B06882309F40AC1AA
:102F80006EE576E08FE196E094DB882309F402C1D8
:102F900081E080935A0610925B06FCC010935306A2
:102FA000D7CF81E080935C0610925D06E0CF8091E0
:102FB00082038130F9F480918D038830D9F4E09157
:102FC0006406F0916506309719F085E893E009955D
:102FD000FDDA10928D0390918F03983F28F0809135
:102FE00090038F5F80939003985F90938F03C70146
:102FF00078D9D0C0D9D0811105C0E6E3EE16F1042E
:1030000030F4C8C0809182038131B9F7BEC080918D
:103010008203863009F0BEC080918F038B3009F0A7
:10302000A7C044E050E06FE176E085E893E00E94BD
:103030007B24892B09F0AEC020919A0322FF13C094
:10304000E0917506F0917606309759F080919003E3
:1030500020E030E040E050E063E0829586958770A4
:10306000099585E073C029831EDC8C018091790667
:103070002981823061F5822F807122712231D9F449
:1030800060E080E090E0B0DA88E180939A03E0911C
:103090007306F0917406309739F080918E03829513
:1030A00086958770099502C080E090E023E0209328
:1030B00079066ADA6FC091E090937906811103C0B6
:1030C000C801019602C080E090E064E039C083301E
:1030D00009F03FC00115110509F43DC0E0917506E6
:1030E000F09176063097B9F14091990350E064E091
:1030F000559547956A95E1F7440F551F440F551FA5
:10310000C70108974E5D5F4F8417950708F4AC011F
:10311000C801840F951FE816F90620F49701241BB7
:10312000350B01C098018091900360E082958695EF
:103130008770099580911D06882321F068E0C801F9
:1031400053DA28C069E0C8014FDA86E08093790637
:1031500021C08530F9F020FF06C08330D9F069E046
:10316000C8010196F1CF01151105A1F060E0E7CF8C
:10317000B7018091490190914A010F90DF91CF9161
:103180001F910F91FF90EF9019CDC70114D08823A4
:1031900009F433CF80E090E00F90DF91CF911F9141
:1031A0000F91FF90EF90089581E090917B0691112F
:1031B00001C080E00895AF92BF92CF92DF92EF926C
:1031C000FF920F931F93CF93DF93CCE7D6E070E885
:1031D000C72E76E0D72EE12CF12C40E020917B0623
:1031E00030E0E216F306B4F55A819B8120918F03FB
:1031F00030E0A92EB12C2A153B0521F580919003D2
:10320000851320C0F60120812223E1F00091920372
:1032100010E0085011092091910330E0322F22274D
:10322000020F131F40918D0350E0542F442720912B
:103230008E03422BE881F98125E933E065E873E0EC
:10324000099541E0FFEFEF1AFF0A259685E0C80EC9
:10325000D11CC4CF842FDF91CF911F910F91FF908C
:10326000EF90DF90CF90BF90AF900895FB01408129
:10327000518162817381FC01408351836283738336
:10328000089526E0FB01DC0101900D922A95E1F7FB
:1032900008951F93CF93DF93EC0110E069914AE00A
:1032A00050E085E795E00E940509133029F06EE2B1
:1032B00085E795E00E9424081F5F143079F7DF91BD
:1032C000CF911F910895CF93DF93EB01BC0185E768
:1032D00095E00E942308CE01DCDF85E795E0DF91D1
:1032E000CF910C942B08E091A706F091A8069F01BE
:1032F0002F5F3F4F3093A8062093A7068083089541
:103300001F93CF93DF93C62FD72F182F160F1C179D
:1033100019F08991E8DFFBCFDF91CF911F910895DC
:10332000CF93DF93EC0186E191E0EBE6F3E0DF0180
:103330009C011D9221503040E1F78091B906833005
:1033400019F467E276E002C06FE473E043E450E012
:1033500084E490E047DB6FE473E08BE693E091DF79
:1033600081E0809395038093960386E08093970392
:103370004091B5065091B6066091B7067091B806B7
:103380004093990350939A0360939B0370939C031B
:103390008091B906833029F467E376E081EA93E00F
:1033A00065DF6BE376E081EB93E06BDF81E894E02F
:1033B0009093A8068093A7066DE471E086E0A0DFF5
:1033C0008091B906811102C081E001C083E08BDFEA
:1033D0008DE389DF87E087DF81E085DF6BE376E0DF
:1033E00086E08EDF8CE07FDF80E27DDF63E571E0E9
:1033F00080E286DF209779F082E375DF84E073DF77
:10340000BE0184E07DDF86E36EDF84E06CDF67E28F
:1034100076E084E075DFC091A606C11102C0D3E05A
:1034200001C0D4E087E35FDF8D2F5DDF81E05BDFEC
:1034300083E059DF86E057DFCC2311F08C2F53DF78
:103440008FEF51DF8091A7069091A8068559934090
:10345000DF91CF9123CB0F931F93A62F8634910535
:1034600080F120918E03233461F50091990310912E
:103470009A0320919B0330919C034091B506509193
:10348000B6066091B7067091B806041715072607AF
:103490003707B9F4E5E8F4E085599C4F9F012E5FAA
:1034A0003F4F41815081553319F452815A1739F0F9
:1034B000F901E40FF11DE817F90780F302C081E07C
:1034C00001C080E01F910F910895DF92EF92FF926B
:1034D0000F931F93CF93DF9300D000D0CDB7DEB70B
:1034E0008C018091B906823009F491C030F48823B0
:1034F000C9F1813009F450C026C1833021F08430F5
:1035000009F485C020C18091A9069091AA06A091D6
:10351000AB06B091AC068F3F9F4FAF4FBF4F09F442
:1035200012C10E94F50B0091AD061091AE062091DC
:10353000AF063091B006601B710B820B930B0091AC
:10354000A9061091AA062091AB063091AC0660172F
:1035500071078207930708F4F6C087E396E0E0DE80
:1035600084E0E5C00E94F50B6093B5067093B60643
:103570008093B7069093B8061092370610923806DB
:103580001092390610923A0680E090E0C9DE81E0A0
:103590000E94131281E0CBC062E0C8015CDF882387
:1035A000F9F065EA73E0CE01019660DEE5E8F4E04B
:1035B00005591C4FBF016E5F7F4F8181908196330B
:1035C00021F487E296E052DE06C0FB01E80FF11D10
:1035D000E017F10778F3CE010196A2DE82E0A7C0E2
:1035E0000E94F50B0091B1061091B2062091B3062E
:1035F0003091B406601B710B820B930B61317742E3
:103600008105910508F49FC01092B9069CC065E041
:10361000C80121DF882321F381E00E94221265EA9C
:1036200073E087E396E022DEE5E8F4E0C80185591F
:103630009C4F7C0180818F010E5F1F4FD1808630AF
:10364000B1F048F4813079F0833009F042C0B8011C
:103650008BE296E00FC08A3379F08F3F09F448C0BF
:103660008333B9F509C0B80183E396E003C0B8011C
:1036700083E296E0FBDD3AC0F80184E040E050E0F0
:10368000BA0191912227342F452F562F290F311D32
:10369000411D511D815019F0BA01A901F2CF2093AB
:1036A000A9063093AA064093AB065093AC062F3F71
:1036B0009FEF390749075907C9F0A8EEB3E0CDD409
:1036C0006093A9067093AA068093AB069093AC060C
:1036D0000DC0E091A406F091A506309739F09091C5
:1036E000A606891303C04D2DB801099580E001C0DD
:1036F00081E0F801ED0DF11D811104C0EE15FF050B
:1037000008F498CF0E94F50B6093AD067093AE0657
:103710008093AF069093B00680912B06882319F012
:103720008BE296E0E5D983E08093B9060CC08093E4
:10373000B9060E94F50B6093B1067093B2068093B0
:10374000B3069093B4060F900F900F900F90DF91F7
:10375000CF911F910F91FF90EF90DF9008956F929E
:103760007F928F929F92AF92BF92CF92DF92EF9211
:10377000FF920F931F93CF93DF93EA012CE3C22EA6
:10378000D12CE12CF12CA701960114D46883CA0135
:10379000B901A70196010ED46983CA01B90128E1D4
:1037A00030E040E050E006D449015A016A83CA0182
:1037B000B9016C5F7F4F8F4F9F4F27E030E040E0B3
:1037C00050E0F8D36F5F6B8300E010E0980140E0B9
:1037D00054E6652E712C60E9C62EDD24D394E42FC7
:1037E000F0E0EE54F84F7F0183E0E822FF24E1147B
:1037F000F10479F4CF01B301CAD3892B29F08EE605
:1038000091E0A0E0B0E009C0CF01B601C0D3892BA0
:10381000B1F38DE691E0A0E0B0E0080F191F2A1F78
:103820003B1FD901C801AA27BB2788169906AA06FB
:10383000BB0610F04F5FD3CF4E83E114F10489F43F
:10384000CF0164E670E0A3D3892B29F08EE691E0E6
:10385000A0E0B0E00AC0CF0160E971E098D3892B05
:10386000A9F38DE691E0A0E0B0E0081B190B2A0B4C
:103870003B0B801A910AA20AB30ACF0164E670E0FA
:1038800086D39C01CF0160E971E081D3E5E5F3E0E7
:10389000A0E0A13059F4E114F10451F421153105EF
:1038A00011F04DE106C00097E1F302C0408101C074
:1038B0004CE150E060E070E084169506A606B7067D
:1038C00040F0841A950AA60AB70AAF5F3196AC3069
:1038D00001F7AF5FAD8383948C82DF91CF911F910D
:1038E0000F91FF90EF90DF90CF90BF90AF909F909F
:1038F0008F907F906F900895CF92DF92EF92FF921A
:103900006B017C018091CA069091CB06A091CC06F8
:10391000B091CD06C816D906EA06FB0669F04EEC52
:1039200056E0C701B6011BDFC092CA06D092CB0693
:10393000E092CC06F092CD06FF90EF90DF90CF9012
:103940000895DADF8091D10690E00895D5DF809167
:10395000D40690E08E54984F08956F927F928F9284
:103960009F92AF92BF92CF92DF92EF92FF920F930E
:103970001F93CF93DF93FC01C680AC2DB0E020E80D
:1039800033E341EE51E069D34B015C0122EB37E0B8
:103990006D01C4E6D0E000E911E0C901825B974007
:1039A0008C159D05CCF4C90183709927892B89F466
:1039B000C901BE01ECD2892B29F4C901B801E7D2B3
:1039C000892B39F480E8880E81E5981E81E0A81ED5
:1039D000B11C2F5F3F4FE1CF6580712C8EE4C81A78
:1039E00088EFD80AC60164E670E0D1D28C01C60126
:1039F00060E971E0CCD27C01C1E0D0E083E0C82274
:103A0000DD24C615D70524F5C230D10589F4C114CB
:103A1000D10471F40115110519F4E114F10441F414
:103A200080E8880E8BE3981E86E2A81EB11C0EC0AB
:103A3000DE01AC5ABC4FAC91B0E020E831E541E08A
:103A400050E00BD3860E971EA81EB91E2196D9CF23
:103A50004181228130E0A0E1BEE0EAD26B017C012D
:103A6000242F30E0ACE3B0E0E3D2C60ED71EE81E50
:103A7000F91E8081C80ED11CE11CF11CA481B0E0AC
:103A8000119720E831E541E050E0F1D2C60ED71E93
:103A9000E81EF91EC80CD91CEA1CFB1CC701B601A4
:103AA000DF91CF911F910F91FF90EF90DF90CF901A
:103AB000BF90AF909F908F907F906F9008950F93DD
:103AC0001F936093C6067093C7068093C8069093B1
:103AD000C906009173011091740120917501309114
:103AE0007601060F171F281F391F0093BE0610937B
:103AF000BF062093C0063093C10682E090E0909309
:103B0000BD068093BC060E94F50B6093C2067093BD
:103B1000C3068093C4069093C5061F910F91089524
:103B2000CF92DF92EF92FF920F931F930E94F50BBB
:103B3000C090C206D090C306E090C406F090C506BF
:103B40006C197D098E099F090091C6061091C70660
:103B50002091C8063091C906683E734081059105E1
:103B6000D8F00F5F1F4F2F4F3F4F0093C6061093A3
:103B7000C7062093C8063093C90648EEC40E43E03A
:103B8000D41EE11CF11CC092C206D092C306E09282
:103B9000C406F092C506CACF8091BE069091BF06BA
:103BA000A091C006B091C106081719072A073B0764
:103BB000C0F1E091BA06F091BB06309791F10995FA
:103BC000611571058105910511F079DF2AC0809199
:103BD000730190917401A0917501B09176014091AB
:103BE000C6065091C7066091C8067091C906840F39
:103BF000951FA61FB71F8093BE069093BF06A09384
:103C0000C006B093C10681E090E02091BC063091DF
:103C1000BD06232B11F480E090E09093BD068093C5
:103C2000BC066091C6067091C7068091C806909147
:103C3000C9061F910F91FF90EF90DF90CF900895EC
:103C4000CF92DF92EF92FF920F931F93CF93DF9368
:103C5000CDB7DEB72C970FB6F894DEBF0FBECDBF41
:103C6000C982DA82EB82FC820D831E832F83388720
:103C700049875A876B877C872CE0FE013196DC01EF
:103C800001900D922A95E1F72CE0FE017796DC0178
:103C90001C9601900D922A95E1F72C960FB6F89498
:103CA000DEBF0FBECDBFDF91CF911F910F91FF906F
:103CB000EF90DF90CF900895AF92BF92CF92DF92B6
:103CC000EF92FF920F931F93CF93DF93CDB7DEB7A1
:103CD00063970FB6F894DEBF0FBECDBF3F87598BF9
:103CE000122F211109C04F5F4D3040F02FEFA21A63
:103CF000B20A01E041E003C0022F01C001E089895E
:103D00008B831A82198281E08D834E838EE48A0D23
:103D10008F83CE01019621DE6B017C01AF84B12C33
:103D200010DE402F50E04150510927E0249FF00160
:103D3000259FF00D11249501281B390BC901079609
:103D400067E070E024D1E80FF91FDF0120E831E5DA
:103D500041E050E08CD16C0D7D1D8E1D9F1D111119
:103D600004C060587A438940910963960FB6F8946D
:103D7000DEBF0FBECDBFDF91CF911F910F91FF909E
:103D8000EF90DF90CF90BF90AF9008958F929F9269
:103D9000AF92BF92CF92DF92EF92FF920F931F9359
:103DA000CF93DF93EC015B01C880D980EA80FB8070
:103DB0000C811D812E813F81488559856A857B85CF
:103DC0007BDF68A379A38AA39BA3CC84DD84EE84E4
:103DD000FF84088919892A893B894C895D896E8904
:103DE0007F89CE0169DF6B017C016CA37DA38EA36B
:103DF0009FA3AE89BF892CE330E029D108A119A186
:103E00002AA13BA1061B170B280B390B088F198F12
:103E10002A8F3B8FAA85BB852CE330E018D1C61AC8
:103E2000D70AE80AF90ACC8EDD8EEE8EFF8EDF917E
:103E3000CF911F910F91FF90EF90DF90CF90BF90A7
:103E4000AF909F908F900895CF92DF92EF92FF9264
:103E50000F931F93CF93DF93EC016A017B01CB019A
:103E6000BA0174DD8C01688D798D8A8D9B8D6EDD34
:103E70000817190731F0C701B60168DDBC01CE0192
:103E800085DF8C8D9D8DAE8DBF8D488D598D6A8D52
:103E90007B8D481759076A077B0760F4C416D5065F
:103EA000E606F70690F0C816D906EA06FB0668F49F
:103EB00081E00CC0C816D906EA06FB06C8F381E00B
:103EC000C416D506E606F70608F480E0DF91CF9128
:103ED0001F910F91FF90EF90DF90CF900895CF92B8
:103EE000DF92EF92FF920F931F93CF93DF93EC013A
:103EF0006A017B01CB01BA0129DD8C01688D798DC6
:103F00008A8D9B8D23DD0817190731F0C701B60193
:103F10001DDDBC01CE013ADFB701A601CE0194DF61
:103F2000882319F0AA85BB8502C0AE89BF892CE31E
:103F300030E08DD06C0D7D1D8E1D9F1DDF91CF91CA
:103F40001F910F91FF90EF90DF90CF900895991BF4
:103F500079E004C0991F961708F0961B881F7A9580
:103F6000C9F780950895AA1BBB1B51E107C0AA1F82
:103F7000BB1FA617B70710F0A61BB70B881F991F0A
:103F80005A95A9F780959095BC01CD01089597FBAE
:103F9000072E16F4009406D077FD08D0E4DF07FC66
:103FA00005D03EF4909581959F4F08957095619549
:103FB0007F4F0895A1E21A2EAA1BBB1BFD010DC065
:103FC000AA1FBB1FEE1FFF1FA217B307E407F507C9
:103FD00020F0A21BB30BE40BF50B661F771F881FA5
:103FE000991F1A9469F760957095809590959B013B
:103FF000AC01BD01CF010895052E97FB16F4009486
:104000000FD057FD05D0D6DF07FC02D046F408C01C
:1040100050954095309521953F4F4F4F5F4F0895F4
:1040200090958095709561957F4F8F4F9F4F089524
:10403000A29FB001B39FC001A39F700D811D1124E9
:10404000911DB29F700D811D1124911D0895F0DF07
:10405000B7FF0895821B930B0895EADFA59F900D8B
:10406000B49F900DA49F800D911D11240895B7FF5A
:10407000F4CFF3DF821B930B0895EE0FFF1F059023
:10408000F491E02D09945058BB27AA270ED075C192
:1040900066D130F06BD120F031F49F3F11F41EF463
:1040A0005BC10EF4E095E7FB51C1E92F77D180F3B6
:1040B000BA17620773078407950718F071F49EF525
:1040C0008FC10EF4E0950B2EBA2FA02D0B01B90174
:1040D00090010C01CA01A0011124FF27591B99F07E
:1040E000593F50F4503E68F11A16F040A22F232F8A
:1040F000342F4427585FF3CF469537952795A795DA
:10410000F0405395C9F77EF41F16BA0B620B730B80
:10411000840BBAF09150A1F0FF0FBB1F661F771FF1
:10412000881FC2F70EC0BA0F621F731F841F48F4A6
:10413000879577956795B795F7959E3F08F0B3CF2C
:104140009395880F08F09927EE0F97958795089516
:10415000D9D008F481E008950CD00FC107D140F008
:10416000FED030F021F45F3F19F0F0C0511139C199
:10417000F3C014D198F39923C9F35523B1F3951BD8
:10418000550BBB27AA2762177307840738F09F5F78
:104190005F4F220F331F441FAA1FA9F333D00E2EE7
:1041A0003AF0E0E830D091505040E695001CCAF754
:1041B00029D0FE2F27D0660F771F881FBB1F261719
:1041C00037074807AB07B0E809F0BB0B802DBF01EC
:1041D000FF2793585F4F2AF09E3F510568F0B6C005
:1041E00000C15F3FECF3983EDCF3869577956795C9
:1041F000B795F7959F5FC9F7880F911D969587959D
:1042000097F90895E1E0660F771F881FBB1F6217BB
:1042100073078407BA0720F0621B730B840BBA0B79
:10422000EE1F88F7E095089504D06894B111D9C0C5
:104230000895BCD088F09F5790F0B92F9927B751B7
:10424000A0F0D1F0660F771F881F991F1AF0BA955A
:10425000C9F712C0B13081F0C3D0B1E00895C0C039
:10426000672F782F8827B85F39F0B93FCCF3869550
:1042700077956795B395D9F73EF4909580957095AD
:1042800061957F4F8F4F9F4F0895E89409C097FB2A
:104290003EF490958095709561957F4F8F4F9F4F1D
:1042A0009923A9F0F92F96E9BB279395F695879561
:1042B00077956795B795F111F8CFFAF4BB0F11F424
:1042C00060FF1BC06F5F7F4F8F4F9F4F16C08823CB
:1042D00011F096E911C0772321F09EE8872F762F01
:1042E00005C0662371F096E8862F70E060E02AF042
:1042F0009A95660F771F881FDAF7880F969587952E
:1043000097F90895990F0008550FAA0BE0E8FEEF02
:1043100016161706E807F907C0F012161306E40789
:10432000F50798F0621B730B840B950B39F40A2682
:1043300061F0232B242B252B21F408950A2609F460
:10434000A140A6958FEF811D811D089597F99F6764
:1043500080E870E060E008959FEF80EC089500240D
:104360000A941616170618060906089500240A94DA
:1043700012161306140605060895092E0394000C60
:1043800011F4882352F0BB0F40F4BF2B11F460FFEF
:1043900004C06F5F7F4F8F4F9F4F089557FD905818
:1043A000440F551F59F05F3F71F04795880F97FBF9
:1043B000991F61F09F3F79F08795089512161306B3
:1043C0001406551FF2CF4695F1DF08C016161706E2
:1043D0001806991FF1CF8695710561050894089517
:1043E000E894BB2766277727CB0197F908958ADFE2
:1043F00008F48FEF08950BD0C0CFB1DF28F0B6DFFF
:1044000018F0952309F0A2CFA7CF1124EACFC6DF79
:10441000A0F3959FD1F3950F50E0551F629FF001D7
:10442000729FBB27F00DB11D639FAA27F00DB11D30
:10443000AA1F649F6627B00DA11D661F829F2227B9
:10444000B00DA11D621F739FB00DA11D621F839F40
:10445000A00D611D221F749F3327A00D611D231F16
:10446000849F600D211D822F762F6A2F11249F5764
:1044700050408AF0E1F088234AF0EE0FFF1FBB1F87
:10448000661F771F881F91505040A9F79E3F510526
:1044900070F05CCFA6CF5F3FECF3983EDCF38695DF
:1044A00077956795B795F795E7959F5FC1F7FE2BD1
:1044B000880F911D9695879597F9089523DF880BAE
:1044C000990B0895CF93DF938230910510F482E029
:1044D00090E0E091D706F091D80620E030E0A0E02F
:1044E000B0E0309739F14081518148175907B8F051
:1044F0004817590771F482819381109729F0139618
:104500009C938E9312972CC09093D8068093D706D5
:1045100027C02115310531F04217530718F0A901C2
:10452000DB0101C0EF019A01BD01DF010280F381CF
:10453000E02DD7CF21153105F9F0281B390B243098
:10454000310580F48A819B816115710521F0FB01A1
:104550009383828304C09093D8068093D706FE018C
:10456000329644C0FE01E20FF31F819391932250D3
:104570003109398328833AC02091D5063091D60677
:10458000232B41F420910201309103013093D60690
:104590002093D506209100013091010121153105AC
:1045A00041F42DB73EB74091040150910501241B01
:1045B000350BE091D506F091D606E217F307A0F48B
:1045C0002E1B3F0B2817390778F0AC014E5F5F4F69
:1045D0002417350748F04E0F5F1F5093D6064093BF
:1045E000D5068193919302C0E0E0F0E0CF01DF9126
:1045F000CF910895CF93DF93009709F487C0FC0112
:10460000329713821282C091D706D091D806209794
:1046100081F420813181280F391F8091D506909136
:10462000D6068217930779F5F093D606E093D50660
:104630006DC0DE0120E030E0AE17BF0750F41296E7
:104640004D915C9113979D014115510509F1DA01D6
:10465000F3CFB383A28340815181840F951F8A17C2
:104660009B0771F48D919C911197840F951F029671
:104670009183808312968D919C911397938382836B
:104680002115310529F4F093D806E093D7063EC0F2
:10469000D9011396FC93EE9312974D915D91A40F5F
:1046A000B51FEA17FB0779F480819181840F951F6C
:1046B0000296D90111969C938E93828193811396D1
:1046C0009C938E931297E0E0F0E08A819B810097A3
:1046D00019F0FE01EC01F9CFCE0102962881398153
:1046E000820F931F2091D5063091D60628173907DF
:1046F00069F4309729F41092D8061092D70602C0B8
:1047000013821282D093D606C093D506DF91CF9143
:104710000895A0E0B0E0EEE8F3E2A5C1EC01CB0122
:10472000209711F4CFDEB4C0FE01E60FF71F9E0103
:1047300022503109E217F30708F4A8C0D9010D91FE
:104740001C91119706171707B0F00530110508F4F2
:104750009BC0A801445051094617570708F494C05C
:1047600002501109061B170B019311936D937C9353
:10477000CF0140DF89C05B01A01AB10A4E01800E53
:10478000911EA091D706B091D806612C712C60E0E3
:1047900070E0109709F449C0A815B905C9F5ED9066
:1047A000FC901197670142E0C40ED11CCA14DB04CF
:1047B00078F147018A189B08640142E0C40ED11CBD
:1047C0001296BC9012971396AC91B5E0CB16D1041B
:1047D00040F0B282A38391828082D9018D939C9311
:1047E00009C00E5F1F4F0E0D1F1DF90111830083BD
:1047F000EB2DFA2F6115710531F0DB011396FC9357
:10480000EE93129741C0F093D806E093D7063CC0D0
:104810006D917C9111976616770608F43B01BD01F6
:1048200012960D90BC91A02DB4CF6091D5067091D9
:10483000D60668157905E9F468167906D0F4409132
:104840000001509101014115510541F44DB75EB78A
:104850006091040170910501461B570BE417F507A1
:10486000A8F4F093D606E093D506F90191838083EE
:104870000BC028DE7C01009749F0A801BE0148D09A
:10488000CE01B8DEC70104C0CE0102C080E090E0D6
:10489000CDB7DEB7EEE003C11F93FC01992788274F
:1048A000BC01E89411911032E9F3193010F01E3078
:1048B000C8F31B3249F01D3241F4689405C068D03A
:1048C000610F711D811D911D119110531A30B8F3A4
:1048D0003EF490958095709561957F4F8F4F9F4FD7
:1048E0001F910895FB01DC0102C005900D9241501B
:1048F0005040D8F70895FB01DC0104C08D91019070
:10490000801921F441505040C8F7881B990B089535
:10491000FB01DC0102C001900D9241505040D8F7DC
:104920000895FB01DC0101900D920020E1F708954C
:10493000FB01DC014150504030F08D910190801915
:1049400019F40020B9F7881B990B089545325105D9
:1049500018F4423008F004C0FB011082CB01089526
:10496000BB274A3031F4992322F4BDE2909581951A
:104970009F4F45C0BB272A3051F4992342F4BDE232
:1049800090958095709561957F4F8F4F9F4F16C082
:10499000592F482F372F262F660F771F881F991FF3
:1049A000660F771F881F991F620F731F841F951F43
:1049B000660F771F881F991F0895BB27FA01A62F3E
:1049C0006217710581059105330B30FB66F0AA274C
:1049D000660F771F881F991FAA1FA21710F0A21B2E
:1049E00063953850A9F7A05DAA3308F0A95DA1939B
:1049F00036F7B111B1931082CA0121C0BB27FB0168
:104A00005527AA27880F991FAA1FA41710F0A41BC7
:104A100083955051B9F7A05DAA3308F0A95DA19321
:104A2000009779F7B111B1931192CB0108C0F999B0
:104A3000FECF92BD81BDF89A992780B50895DC011B
:104A4000FC01672F71917723E1F7329704C07C91C5
:104A50006D9370836291AE17BF07C8F308952F92CC
:104A60003F924F925F926F927F928F929F92AF92FE
:104A7000BF92CF92DF92EF92FF920F931F93CF934B
:104A8000DF93CDB7DEB7CA1BDB0B0FB6F894DEBFE2
:104A90000FBECDBF09942A88398848885F846E8408
:104AA0007D848C849B84AA84B984C884DF80EE8052
:104AB000FD800C811B81AA81B981CE0FD11D0FB65B
:104AC000F894DEBF0FBECDBFED010895F894FFCF7F
:104AD0000000D9062000E0D2B8576024BA57E0752C
:104AE000BB57CF260942928B0B4220E30D4255540F
:104AF000432B320000010A03C4FF5554432B3100FD
:104B00000001030200007BC3790122C0A8026A747D
:104B100069692D30310503000150000A0163825399
:104B200063350141726475696E6F2D30300000008D
:104B30000000000000000000000000000000000075
:104B40000000002C01000072657175657374696E58
:104B500067206E65772064617461003C3C3C2052A4
:104B600045512000696E64657820746F6F206C6118
:104B70007267653A2000736574206F6E20617574EA
:104B80006F2C20676F696E6720746F206465677291
:104B90006565733A2000416464726573733A2068F6
:104BA0007474703A2F2F00444E53206661696C650F
:104BB00064004C6F6F6B75702049502020203A20A4
:104BC0000074696D653A2000474554202F006E6FD0
:104BD0002076616C69642047455420726571756563
:104BE0007374003F70616E656C3D7570200050619C
:104BF0006E656C7320676F696E672075702E003F5D
:104C000070616E656C3D646F776E200050616E65FB
:104C10006C7320676F696E6720646F776E2E003F3C
:104C200070616E656C3D73746F70200050616E65CD
:104C30006C732073746F707065642F6E6F74206D69
:104C40006F76696E672E003F70616E656C3D6175B1
:104C5000746F20004175746F206D6F6465207377E9
:104C6000697463686564206F6E2E003F70616E65C5
:104C70006C3D6D616E75616C20004175746F206DC7
:104C80006F6465207377697463686564206F666616
:104C90002E003F646567726565733D0020262331F1
:104CA00037363B0070616E656C7320746F206465ED
:104CB00067726565733A20003F75706461746500C2
:104CC000206175746F00206D616E75616C005061BC
:104CD0006765206E6F7420666F756E64006578700E
:104CE00065637465643A20003E3E3E00FFFFFF00AE
:104CF000C0A802FE000000004901C2070000000039
:104D00005906C207DD05F605E80538060D0A006EEE
:104D1000616E00696E66006F76660032303000FFAB
:104D2000FFFFFFFFFF1F1C1F1E1F1E1F1F1E1F1E3A
:024D30001F0062
:00000001FF
