:100000008AC00000B0C00000AEC00000ACC000005C
:10001000AAC00000A8C00000A6C00000A4C0000044
:10002000A2C00000A0C000009EC000009CC0000054
:100030009AC0000098C0000096C0000094C0000064
:100040000C94820990C00000D4C6000004C70000D0
:100050008AC0000088C0000086C0000084C0000084
:1000600082C0000080C00000036EDB363D9A999983
:10007000993DABAAAA2A3E000000803F084AD73B20
:100080003BCE016E84BCBFFDC12F3D6C74319ABD67
:1000900056833DDA3D00C77F11BED9E4BB4C3E918B
:1000A0006BAAAABE000000803F072C7AA5BA6CC5D7
:1000B00090DA3B9365FC8BBC53F810FD3C56928361
:1000C0004DBD879D3AB63DCBC9BF5BBE73DA0FC944
:1000D0003F05A84CCDB2D44EB93836A9020C50B960
:1000E000918688083CA6AAAA2ABE000000803F0686
:1000F00064EC1B3C04BC163E3BE5B93CC93C37C232
:100100009E5A3D660498083EEA69AAAA3E0000008D
:10011000803F6205590711241FBECFEFD8E0DEBF34
:10012000CDBF11E0A0E0B1E0EEE4FCE102C005903B
:100130000D92A235B107D9F722E0A2E5B1E001C0E6
:100140001D92A432B207E1F711E0C6E1D1E004C08C
:100150002297FE010E94670AC231D107C9F70E94A7
:1001600077090C94250E4CCF08952DE430E54CE72B
:100170005FE30E943E0D2AEB33EC42EB53E40E9416
:100180007A0A209120013091210140912201509161
:1001900023010C943E0D2F923F924F925F926F92EB
:1001A0007F928F929F92AF92BF92CF92DF92EF9207
:1001B000FF920F931F93CF93DF93CDB7DEB72897AE
:1001C0000FB6F894DEBF0FBECDBF1C0140902001DA
:1001D000509021016090220170902301BC0188277A
:1001E00077FD8095982F0E94F90B6B017C010E948E
:1001F000A10D4B015C018101000F111FB80188277F
:1002000077FD8095982F0E94F90B0E94A10D6983BC
:100210007A838B839C83B801620D731D882777FDD9
:100220008095982F0E94F90B0E94A10D6D837E830B
:100230008F8398872AE037ED43EA5CE369817A810E
:100240008B819C810E943E0D9B01AC01C501B401D4
:100250000E947A0A4B015C0122E539E44DE959E339
:100260006D817E818F8198850E943E0D9B01AC013E
:10027000C501B4010E947A0A9B01AC01C301B2011D
:100280000E943E0D9B01AC01C701B6010E947A0A93
:100290006B017C0129ED3FED4DEC52E4C301B2014D
:1002A0000E943E0D9B01AC01C701B6010E947A0A73
:1002B0002BED3FE049E450E40E947A0A28960FB6FD
:1002C000F894DEBF0FBECDBFDF91CF911F910F918C
:1002D000FF90EF90DF90CF90BF90AF909F908F9066
:1002E0007F906F905F904F903F902F9008954F9226
:1002F0005F926F927F928F929F92AF92BF92CF92B6
:10030000DF92EF92FF92CF93DF93CDB7DEB7609786
:100310000FB6F894DEBF0FBECDBF2B013C01CA0162
:10032000B9012D873E874F87588B0E94A10D4B0145
:100330005C01C0907A01D0907B01E0907C01F0904C
:100340007D01C701B6010E945B0B69837A838B83B1
:100350009C832D853E854F855889CA01B9010E942D
:100360005B0B6D837E838F839887C701B6010E94E4
:10037000A10D69877A878B879C87C301B2010E9490
:10038000A10D2B013C0129813A814B815C81C50182
:10039000B4010E943E0D4B015C0129853A854B85D5
:1003A0005C856D817E818F8198850E943E0DA301C1
:1003B00092010E943E0D9B01AC01C501B4010E9457
:1003C0007A0A60960FB6F894DEBF0FBECDBFDF91FC
:1003D000CF91FF90EF90DF90CF90BF90AF909F9024
:1003E0008F907F906F905F904F900C94DE0A4F92A9
:1003F0005F926F927F928F929F92AF92BF92CF92B5
:10040000DF92EF92FF92CF93DF93CDB7DEB72C97B9
:100410000FB6F894DEBF0FBECDBF6B017C012987FC
:100420003A874B875C870E945B0B69837A838B8357
:100430009C83C701B6010E94A10D2B013C01809055
:100440007A0190907B01A0907C01B0907D01C50164
:10045000B4010E945B0B6D837E838F83988729850F
:100460003A854B855C85CA01B9010E94EC0D6B0190
:100470007C01C501B4010E94A10D4B015C012D81DD
:100480003E814F815885C301B2010E943E0D2B0170
:100490003C01A5019401C701B6010E943E0D9B01DC
:1004A000AC01C301B2010E94790A29813A814B81D2
:1004B0005C812C960FB6F894DEBF0FBECDBFDF91E6
:1004C000CF91FF90EF90DF90CF90BF90AF909F9033
:1004D0008F907F906F905F904F900C94040BCF9211
:1004E000DF92EF92FF92CF93DF93EC0180E090E0F8
:1004F000A0E8BFE388839983AA83BB8380E090E070
:10050000A0E4B0E48C839D83AE83BF83CB01BA01AA
:100510002CDE0E94C60BCB013EDE6B017C0120E08D
:1005200030E0A901E4DE688379838A839B8320E03D
:1005300030E0A901C701B6015ADF6C837D838E8349
:100540009F83DF91CF91FF90EF90DF90CF90089540
:10055000CF92DF92EF92FF926A017B01BC01882764
:1005600077FD8095982F0E94F90B29E23EE744EB36
:1005700053E40E943E0D2BE734E14CE853E4BAD734
:1005800020912001309121014091220150912301BD
:100590000E943E0DA7019601ACD7FF90EF90DF902F
:1005A000CF9008954F925F926F927F928F929F9219
:1005B000AF92BF92CF92DF92EF92FF920F931F9371
:1005C000CF93DF93CDB7DEB72C970FB6F894DEBF8D
:1005D0000FBECDBF4B015C0129013A0167017801D3
:1005E0000E945B0B69837A838B839C83C301B20176
:1005F0000E94A10D9B01AC01C701B60129873A8772
:100600004B875C870E94EC0D6B017C01C301B2013A
:100610000E945B0B6D837E838F839887C501B40135
:100620000E94A10D4B015C0129853A854B855C85B3
:1006300069817A818B819C810E943E0D2B013C0156
:100640002D813E814F815885C701B6010E943E0D24
:100650009B01AC01C301B2014CD79B01AC01C501A8
:10066000B401D2D72BED3FE049E450E443D72C96B8
:100670000FB6F894DEBF0FBECDBFDF91CF911F91B3
:100680000F91FF90EF90DF90CF90BF90AF909F9031
:100690008F907F906F905F904F9008954F925F92F0
:1006A0006F927F928F929F92AF92BF92CF92DF9282
:1006B000EF92FF920F931F93CF93DF93CDB7DEB7E7
:1006C00064970FB6F894DEBF0FBECDBF4B015C013F
:1006D00067017801CA01B901298B3A8B4B8B5C8B7E
:1006E0000E94A10D2B013C01C701B6010E94A10D82
:1006F00069837A838B839C8329893A894B895C89B6
:10070000CA01B901D8D76D837E838F839887C701CB
:10071000B601D1D769877A878B879C87C501B401D9
:10072000CAD76D877E878F87988B29813A814B81C5
:100730005C81C301B2010E943E0D4B015C01298521
:100740003A854B855C856D817E818F8198850E947D
:100750003E0D2D853E854F8558890E943E0D9B019B
:10076000AC01C501B401C6D664960FB6F894DEBFDD
:100770000FBECDBFDF91CF911F910F91FF90EF90F2
:10078000DF90CF90BF90AF909F908F907F906F90B1
:100790005F904F9013C72F923F924F925F926F924C
:1007A0007F928F929F92AF92BF92CF92DF92EF9201
:1007B000FF920F931F93CF93DF93CDB7DEB7609770
:1007C0000FB6F894DEBF0FBECDBF1C014A015B011E
:1007D00040902001509021016090220170902301EF
:1007E000A90198015058C301B2010E943E0D6987CA
:1007F0007A878B879C87A5019401C301B2010E946F
:100800003E0D6D877E878F87988BB701A601CE013D
:10081000019665DEC701B601B9D7DC01CB01498578
:100820005A856B857C8594DE2D813E814F8158856C
:1008300060D64B015C0149805A806B807C808301CB
:1008400072012D853E854F855889ACDE69877A8790
:100850008B879C872D853E854F855889C501B401BE
:100860001DDF6B017C0120E030E044E353E4698547
:100870007A858B859C850E943E0D2BED3FE049E4F7
:1008800050E41CD7F101608371838283938320E05D
:1008900030E044E353E4C701B6010E943E0D2BED66
:1008A0003FE049E450E40AD7F1016483758386830D
:1008B000978360960FB6F894DEBF0FBECDBFDF9171
:1008C000CF911F910F91FF90EF90DF90CF90BF904D
:1008D000AF909F908F907F906F905F904F903F90E0
:1008E0002F9008954F925F926F927F928F929F9276
:1008F000AF92BF92CF92DF92EF92FF920F931F932E
:10090000CF93DF93CDB7DEB760970FB6F894DEBF15
:100910000FBECDBF6B017C015A01009118011091EF
:10092000190120911A0130911B0140911C01509135
:100930001D0160911E0170911F01CE0101962BDFF8
:1009400064E271E08EE791E035D349815A816B8191
:100950007C8122E030E08EE791E0B8D44090200125
:100960005090210160902201709023012D813E81E1
:100970004F815885C301B2010E943E0D6B017C017D
:10098000B501882777FD8095982F33D7A301920171
:100990000E943E0D4B015C0129813A814B815C81B3
:1009A000C301B2010E943E0D9B01AC0160E070E00A
:1009B000CB019FD580D62B013C01C701B6017BD668
:1009C0009B01AC01C501B4012D873E874F87588B31
:1009D0000E94A10D69877A878B879C87C501B40126
:1009E0006AD64B015C01C701B6010E94A10D6B01E3
:1009F0007C012D853E854F855889C301B2010E9437
:100A00003E0D29853A854B855C850E943E0D2B0164
:100A10003C01A7019601C501B4010E943E0D9B0156
:100A2000AC01C301B20166D556D56B017C0120E053
:100A300030E04AE754E40E943E0DAB01BC0122E0E5
:100A400030E08EE791E042D4C701B60134D620E011
:100A500030E048EC52E40E943E0D9B01AC0160E0A6
:100A600070E080E89FE345D591D6CB0160960FB644
:100A7000F894DEBF0FBECDBFDF91CF911F910F91D4
:100A8000FF90EF90DF90CF90BF90AF909F908F90AE
:100A90007F906F905F904F90089526E040E855E278
:100AA00060E070E08EE791E044D14EE150E061E318
:100AB0007DE68CEB95E416DF4AE050E0BC018EE762
:100AC00091E017C3CF92DF92EF92FF920F931F93A3
:100AD00021E834E84BEB51E4609120017091210151
:100AE0008091220190912301C9D760937A0170937C
:100AF0007B0180937C0190937D018DB79EB70C970D
:100B00000FB6F8949EBF0FBE8DBFADB7BEB711969E
:100B10008CE0E0E0F1E001900D928A95E1F7C09061
:100B20000C01D0900D01E0900E01F0900F010091AA
:100B30001001109111012091120130911301409187
:100B4000140150911501609116017091170182E511
:100B500091E05DD48DB79EB70C960FB6F8949EBF0A
:100B60000FBE8DBF1F910F91FF90EF90DF90CF9040
:100B70000895FC01818D228D90E0805C9F4F821B47
:100B800091098F7399270895FC01918D828D981793
:100B900031F0828DE80FF11D858D90E008958FEF83
:100BA0009FEF0895FC01918D828D981761F0828DE1
:100BB000DF01A80FB11D5D968C91928D9F5F9F7391
:100BC000928F90E008958FEF9FEF089580E597E072
:100BD000892B41F080E090E0892B21F061D18111D7
:100BE0000C9400000895FC01848DDF01A80FB11D55
:100BF000A35ABF4F2C91848D90E001968F73992753
:100C0000848FA689B7892C93A089B1898C9180643F
:100C10008C93938D848D981306C00288F389E02D00
:100C200080818F7D80830895CF93DF93EC01888D41
:100C30008823C1F0EA89FB89808185FD05C0A889E8
:100C4000B9898C9186FD0EC00FB607FCF5CF808167
:100C500085FFF2CFA889B9898C9185FFEDCFCE01B0
:100C6000C2DFE8CFDF91CF910895CF92DF92FF925C
:100C70000F931F93CF93DF931F92CDB7DEB76C0115
:100C800081E0D60158968C9358975B969C915B9720
:100C90005C968C915C97981307C05096ED91FC91EF
:100CA0005197808185FD2DC0F601038D10E00F5F07
:100CB0001F4F0F731127F02EF601848DF81210C00C
:100CC0000FB607FCF9CFD6015096ED91FC915197E4
:100CD000808185FFF1CFC601698385DF6981ECCF13
:100CE000838DE80FF11DE35AFF4F6083D6015B96B9
:100CF0000C935B975296ED91FC91539780818062A3
:100D00000CC0D6015696ED91FC9157976083509692
:100D1000ED91FC91519780818064808381E090E027
:100D20000F90DF91CF911F910F91FF90DF90CF90A7
:100D30000895BF92CF92DF92EF92FF92CF93DF930D
:100D4000EC016A017B01B22EE889F98982E0808397
:100D5000411581EE58076105710599F060E079E071
:100D60008DE390E0A70196018ED32150310941090E
:100D700051095695479537952795211580E13807F4
:100D800090F0E889F989108260E874E88EE190E0DB
:100D9000A701960178D3215031094109510956958F
:100DA000479537952795EC85FD853083EE85FF8542
:100DB0002083188EEC89FD89B082EA89FB898081C5
:100DC00080618083EA89FB89808188608083EA89E9
:100DD000FB89808180688083EA89FB8980818F7D9F
:100DE0008083DF91CF91FF90EF90DF90CF90BF9005
:100DF00008951F920F920FB60F9211242F938F9385
:100E00009F93EF93FF93E0918E01F0918F0180818A
:100E1000E0919401F091950182FD12C09081809142
:100E200097018F5F8F7320919801821751F0E091A5
:100E30009701F0E0E258FE4F958F8093970101C033
:100E40008081FF91EF919F918F912F910F900FBE15
:100E50000F901F9018951F920F920FB60F921124AA
:100E60002F933F934F935F936F937F938F939F93B2
:100E7000AF93BF93EF93FF938EE791E0B4DEFF91C2
:100E8000EF91BF91AF919F918F917F916F915F9102
:100E90004F913F912F910F900FBE0F901F9018957B
:100EA0008EE791E066DE21E0892B09F420E0822FB5
:100EB0000895109281011092800188EE93E0A0E0E5
:100EC000B0E08093820190938301A0938401B0935A
:100ED000850184E391E090937F0180937E0185EC0E
:100EE00090E090938B0180938A0184EC90E0909342
:100EF0008D0180938C0180EC90E090938F01809322
:100F00008E0181EC90E0909391018093900182ECAE
:100F100090E0909393018093920186EC90E09093FF
:100F2000950180939401109297011092980110926C
:100F3000990110929A010895CF92DF92EF92FF9259
:100F40000F931F93CF93DF937C016A01EB0100E0C5
:100F500010E00C151D0571F06991D701ED91FC9120
:100F60000190F081E02DC7010995892B19F00F5FE1
:100F70001F4FEFCFC801DF91CF911F910F91FF90CD
:100F8000EF90DF90CF9008956115710581F0DB013E
:100F90000D900020E9F7AD0141505109461B570B58
:100FA000DC01ED91FC910280F381E02D099480E059
:100FB00090E00895E9CFDC01ED91FC910190F08182
:100FC000E02D099460E471E0DFCF8F929F92AF92A1
:100FD000BF92DF92EF92FF920F931F93CF93DF9315
:100FE000CDB7DEB7A1970FB6F894DEBF0FBECDBF69
:100FF0007C01F42FD52ECB0119A2223008F42AE06F
:101000008E010F5D1F4F822E912CA12CB12C6F2FC2
:101010007D2DA501940137D2F22FD32ECA010150A4
:1010200011096A3014F4E0E301C0E7E3E60FD801E8
:10103000EC93232B242B252B51F7B801C701A4DFF8
:10104000A1960FB6F894DEBF0FBECDBFDF91CF9152
:101050001F910F91FF90EF90DF90BF90AF909F9006
:101060008F900895CF92DF92EF92FF920F931F938C
:10107000CF93DF93EC016A017B012115310579F4EF
:10108000E881F9810190F081E02D642FDF91CF910B
:101090001F910F91FF90EF90DF90CF9009942A302D
:1010A0003105D9F477FF18C06DE285DF8C01442744
:1010B0005527BA014C195D096E097F092AE0CE0156
:1010C00084DF800F911FDF91CF911F910F91FF90CF
:1010D000EF90DF90CF9008952AE0B701A601CE01EE
:1010E000DF91CF911F910F91FF90EF90DF90CF9004
:1010F0006CCF0F931F93CF93DF93EC019A01AB0159
:10110000662757FD6095762FADDF8C01CE015ADF43
:10111000800F911FDF91CF911F910F9108954F92F2
:101120005F926F927F928F929F92AF92BF92CF9277
:10113000DF92EF92FF920F931F93CF93DF93EC0117
:101140006A017B01B22E9A01AB01C701B60164D5D9
:10115000882319F063E471E024C026013701E89484
:1011600077F82FEF3FEF4FE75FE7C301B20154D5A8
:1011700081110CC02FEF3FEF4FE75FE7C301B201D2
:1011800096D218161CF467E471E00BC02FEF3FEF06
:101190004FE75FE4C701B60166D41816A4F46BE408
:1011A00071E0CE01DF91CF911F910F91FF90EF90F1
:1011B000DF90CF90BF90AF909F908F907F906F9077
:1011C0005F904F90E1CE2FEF3FEF4FE75FECC7010D
:1011D000B6016DD287FDE3CF20E030E0A901C70161
:1011E000B60165D287FF09C06DE2CE01E4DE8C0155
:1011F000F7FAF094F7F8F09402C000E010E0A12CA8
:1012000060E070E080E09FE3AB1439F020E030E074
:1012100040E251E453D2A394F7CF9B01AC01C70144
:10122000B60168D16B017C01B6D22B013C01DFD243
:101230009B01AC01C701B6015CD16B017C012AE0C6
:10124000B301A201CE01C1DE080F191FBB2031F08E
:101250006FE471E0CE0198DE080F191F7B2C772018
:1012600019F120E030E040E251E4C701B60106D4B4
:101270006B017C018BD24B01AA2497FCA094BA2C61
:101280002AE030E0B501A401CE01ECDE080F191F01
:10129000C501B401AED29B01AC01C701B60129D191
:1012A0006B017C017A94DBCFC801DF91CF911F9154
:1012B0000F91FF90EF90DF90CF90BF90AF909F90F5
:1012C0008F907F906F905F904F9008950F931F9332
:1012D000CF93DF93EC0123DF8C01CE0173DE800F0F
:1012E000911FDF91CF911F910F910895089554D0D0
:1012F000FDDFD3DBC6EED5E00E94B4002097E1F31A
:1013000065DCFACF1F920F920FB60F9211242F9324
:101310003F938F939F93AF93BF9380911C029091C3
:101320001D02A0911E02B0911F0230911B0223E00A
:10133000230F2D3720F40196A11DB11D05C026E80D
:10134000230F0296A11DB11D20931B0280931C0246
:1013500090931D02A0931E02B0931F028091200261
:1013600090912102A0912202B09123020196A11D29
:10137000B11D8093200290932102A0932202B0938A
:101380002302BF91AF919F918F913F912F910F9029
:101390000FBE0F901F901895789484B5826084BD1D
:1013A00084B5816084BD85B5826085BD85B5816069
:1013B00085BDEEE6F0E0808181608083E1E8F0E0C9
:1013C0001082808182608083808181608083E0E8F8
:1013D000F0E0808181608083E1EBF0E080818460D7
:1013E0008083E0EBF0E0808181608083EAE7F0E0D9
:1013F000808184608083808182608083808181603D
:1014000080838081806880831092C1000895CF928C
:10141000DF92EF92FF920F931F93CF93DF93CDB79D
:10142000DEB72C970FB6F894DEBF0FBECDBFC982D2
:10143000DA82EB82FC820D831E832F8338874987F3
:101440005A876B877C872CE0FE013196DC01019086
:101450000D922A95E1F72CE0FE017796DC011C96AF
:1014600001900D922A95E1F72C960FB6F894DEBF05
:101470000FBECDBFDF91CF911F910F91FF90EF90E5
:10148000DF90CF900895A1E21A2EAA1BBB1BFD018D
:101490000DC0AA1FBB1FEE1FFF1FA217B307E40753
:1014A000F50720F0A21BB30BE40BF50B661F771FAB
:1014B000881F991F1A9469F760957095809590958B
:1014C0009B01AC01BD01CF010895EE0FFF1F0590F8
:1014D000F491E02D09949F939F77C6D10F9000203F
:1014E0003AF49058A2EA2AED3FE049E450E413D0E0
:1014F0006FC25058BB27AA270ED06AC233D230F031
:1015000038D220F031F49F3F11F41EF4F2C10EF4F2
:10151000E095E7FBE8C1E92F7DD280F3BA176207B7
:1015200073078407950718F071F49EF595C20EF4C1
:10153000E0950B2EBA2FA02D0B01B90190010C01E3
:10154000CA01A0011124FF27591B99F0593F50F4FB
:10155000503E68F11A16F040A22F232F342F442753
:10156000585FF3CF469537952795A795F04053954B
:10157000C9F77EF41F16BA0B620B730B840BBAF01B
:101580009150A1F0FF0FBB1F661F771F881FC2F786
:101590000EC0BA0F621F731F841F48F4879577959A
:1015A0006795B795F7959E3F08F0B3CF9395880F51
:1015B00008F09927EE0F9795879508959F939F7749
:1015C000EEE389379E0720F4E8E6F0E0BAD109C0DF
:1015D0004BD19058A2EA2AED3FE049EC5FE39BDF54
:1015E000F7D10F9007FC90580895BCD158F080E8CF
:1015F00091E009F49EEFBDD128F040E851E059F4A4
:101600005EEF09C076C128C2E92FE07803D268F303
:10161000092E052AC1F3261737074807590738F05E
:101620000E2E07F8E02569F0E025E0640AC0EF63BC
:1016300007F8009407FADB01B9019D01DC01CA013A
:10164000AD01EF934AD0C4D10AD05F91552331F058
:101650002BED3FE049E450FD49EC4CCF0895DF937A
:10166000DD27B92FBF7740E85FE316161706480756
:101670005B0710F4D92FFBD19F938F937F936F93C8
:10168000A8D2ECE7F0E038D1A3D12F913F914F9150
:101690005F9100D2DD2349F09058A2EA2AED3FE0A5
:1016A00049EC5FE3D0785D2736DFDF9191C1F7D059
:1016B00008F481E0089565D1E3959BC10CD088C101
:1016C00058D140F04FD130F021F45F3F19F00BC1F9
:1016D0005111C3C10EC19ED198F39923C9F355236B
:1016E000B1F3951B550BBB27AA2762177307840715
:1016F00038F09F5F5F4F220F331F441FAA1FA9F3CB
:1017000033D00E2E3AF0E0E830D091505040E695BC
:10171000001CCAF729D0FE2F27D0660F771F881F1D
:10172000BB1F261737074807AB07B0E809F0BB0B0C
:10173000802DBF01FF2793585F4F2AF09E3F510530
:1017400068F0D1C08AC15F3FECF3983EDCF3869528
:1017500077956795B795F7959F5FC9F7880F911DA6
:101760009695879597F90895E1E0660F771F881F92
:10177000BB1F621773078407BA0720F0621B730B45
:10178000840BBA0BEE1F88F7E095089504D0689497
:10179000B11163C1089546D188F09F5790F0B92FD9
:1017A0009927B751A0F0D1F0660F771F881F991FB6
:1017B0001AF0BA95C9F712C0B13081F04DD1B1E03D
:1017C00008954AC1672F782F8827B85F39F0B93F4D
:1017D000CCF3869577956795B395D9F73EF49095B8
:1017E0008095709561957F4F8F4F9F4F0895E89436
:1017F00009C097FB3EF490958095709561957F4F59
:101800008F4F9F4F9923A9F0F92F96E9BB27939506
:10181000F695879577956795B795F111F8CFFAF416
:10182000BB0F11F460FF1BC06F5F7F4F8F4F9F4F47
:1018300016C0882311F096E911C0772321F09EE8A5
:10184000872F762F05C0662371F096E8862F70E00B
:1018500060E02AF09A95660F771F881FDAF7880FE5
:101860009695879597F90895DF93CF931F930F93DC
:101870008B01EC01E9EAF0E03FD0AAD09801AE017B
:101880008B01EC0160E070E080E89FE332DE63D121
:101890009801AE010F911F91CF91DF91FBC0990F7D
:1018A0000008550FAA0BE0E8FEEF16161706E8072A
:1018B000F907C0F012161306E407F50798F0621B4B
:1018C000730B840B950B39F40A2661F0232B242B20
:1018D000252B21F408950A2609F4A140A6958FEF3F
:1018E000811D811D089597F99F6780E870E060E091
:1018F00008959FEF80EC0895DF93CF931F930F938C
:10190000FF92EF92DF927B018C01689405C0DA2E82
:10191000EF01C0D0FE01E894A59125913591459144
:101920005591AEF3EF01F7DDFE019701A801DA94BE
:1019300079F7DF90EF90FF900F911F91CF91DF919A
:1019400008959F938F937F936F93FF93EF939B01E2
:10195000AC0194D0EF91FF91CFDF2F913F914F9148
:101960005F918CC000240A94161617061806090603
:10197000089500240A941216130614060506089505
:10198000B8CF50D0E8F3E894E0E0BB279F57F0F0E1
:101990002AED3FE049EC06C0EE0FBB0F661F771F34
:1019A000881F28F0B23A62077307840728F0B25AFA
:1019B000620B730B840BE3959A9572F7803830F4C1
:1019C0009A95BB0F661F771F881FD2F790482AC1D0
:1019D000092E0394000C11F4882352F0BB0F40F43D
:1019E000BF2B11F460FF04C06F5F7F4F8F4F9F4F7D
:1019F0000895EF93E0FF06C0A2EA2AED3FE049EC2C
:101A00005FEB89DDE5DF0F90039401FC9058E1ED79
:101A1000F0E097CF57FD9058440F551F59F05F3FA6
:101A200071F04795880F97FB991F61F09F3F79F000
:101A300087950895121613061406551FF2CF469582
:101A4000F1DF08C0161617061806991FF1CF869504
:101A50007105610508940895E894BB2766277727E8
:101A6000CB0197F908951BDF08F48FEF08959B01D0
:101A7000AC0160E070E080E89FE320CE0BD0A8CFFF
:101A800071DF28F076DF18F0952309F02CCF31CFE5
:101A90001124E3CFBFDFA0F3959FD1F3950F50E062
:101AA000551F629FF001729FBB27F00DB11D639F10
:101AB000AA27F00DB11DAA1F649F6627B00DA11DB6
:101AC000661F829F2227B00DA11D621F739FB00D5C
:101AD000A11D621F839FA00D611D221F749F3327CC
:101AE000A00D611D231F849F600D211D822F762F65
:101AF0006A2F11249F5750408AF0E1F088234AF062
:101B0000EE0FFF1FBB1F661F771F881F91505040AD
:101B1000A9F79E3F510570F0E6CE9FCF5F3FECF3F3
:101B2000983EDCF3869577956795B795F795E79599
:101B30009F5FC1F7FE2B880F911D9695879597F9AA
:101B400008959F931EDF0F9007FCEE5F52CF11F4B4
:101B50000EF4CFCE65C066DFD0F39923D9F3CEF370
:101B60009F57550B87FF6AD00024A0E640EA9001FA
:101B700080585695979528F4805C660F771F881FCC
:101B800020F026173707480730F4621B730B840BCD
:101B9000202931294A2BA695179407942025312511
:101BA0004A2758F7660F771F881F20F02617370738
:101BB000480730F4620B730B840B200D311D411D5F
:101BC000A09581F7B901842F9158880F9695879534
:101BD00008959B01AC0152CFDF93D92FD2DEE69559
:101BE000D7952AED3FE049E45FE3B33A6207730714
:101BF00084079507D7952AF0A2EA49EC90688BDC18
:101C0000E7DEEFEEF0E09DDEDD0F0BF030DFDD0F05
:101C10000BF49058DF91089542DE880B990B0895DC
:101C20009F3F31F0915020F4879577956795B79550
:101C3000880F911D9695879597F90895915050407A
:0E1C4000660F771F881FD2F70895F894FFCF24
:101C4E005554432B320000010A033C005554432BDC
:101C5E003100000103027800602F8D40F32F4E42B9
:101C6E0035FA8E3C706F736974696F6E5F30200049
:101C7E000000000035069C07B905D205C405140600
:101C8E000D0A006E616E00696E66006F7666002E3C
:021C9E00000044
:00000001FF
