:10000000B4C00000D9C00000D7C00000D5C00000B7
:10001000D3C00000D1C00000CFC00000CDC00000A0
:10002000CBC00000C9C00000C7C00000C5C00000B0
:10003000C3C00000C1C00000BFC00000BDC00000C0
:10004000E0C70000B9C0000057C4000087C400002A
:10005000B3C00000B1C00000AFC00000ADC00000E0
:10006000ABC00000A9C00000244624530024463C35
:100070007469746C653E536F6C41726475696E6F20
:100080003C2F7469746C653E3C68313E24442444C2
:100090003A244424443A244424443C2F68313E000A
:1000A0004661696C656420746F2061636365737376
:1000B0002045746865726E657420636F6E74726F2C
:1000C0006C6C657200485454502F312E3020323001
:1000D00030204F4B0D0A436F6E74656E742D54794A
:1000E00070653A20746578742F68746D6C0D0A50D1
:1000F0007261676D613A206E6F2D63616368650D93
:100100000A0D0A00000000080002010000030407B5
:1001100000000000000000000102040810204080E0
:100120000102040810200102040810200404040441
:100130000404040402020202020203030303030391
:1001400000000000250028002B0000000000240013
:1001500027002A004500008200004000200001081E
:100160000006040001002F03DC0411241FBECFEFA2
:10017000D8E0DEBFCDBF12E0A0E0B1E0E4E1F2E301
:1001800002C005900D92AA39B107D9F725E0AAE976
:10019000B2E001C01D92A23DB207E1F711E0CAE64C
:1001A000D1E004C02297FE010E94F115C636D107A6
:1001B000C9F71DD70C94081923CFDC011696ED91D1
:1001C000FC9117979F012F5F3F4F17963C932E93FB
:1001D0001697608381E090E00895CF93DF9385E1E7
:1001E000FBD7EC014AE050E0BC0187E994E048D538
:1001F000C23882E0D80724F0DE01A158B24004C022
:10020000A1E8B2E0AC1BBD0B24E630E00E94DF1594
:1002100026E731E040E050E00E94C31564E3629FAE
:10022000C001639F900D112464E670E00E948E155A
:10023000CB010596DF91CF91089561E085E00E94A2
:100240006B0960E083E00E946B0961E084E00C943C
:100250006B0960E085E00E946B0961E083E00E9429
:100260006B0960E084E00C946B0960E085E00E941B
:100270006B0960E083E00E946B0960E084E00C940D
:100280006B0961E083E0EED761E084E0EBD761E0E9
:1002900085E0E8D7EADF26E040E855E260E070E07C
:1002A00087E994E0C7D24AE06AE071E084EF91E028
:1002B0000E94DD0A811105C060EA70E087E994E0E0
:1002C0002AD420E030E040E050E060E070E086E0DA
:1002D00091E00E94FF0A69E575E08BE391E00C94E0
:1002E00024134F925F926F927F928F929F92AF9260
:1002F000BF92CF92DF92EF92FF92CDD628EE33E0FD
:1003000040E050E00E94A11549015A01CA01B9011B
:1003100020E13EE040E050E00E94C31529013A018F
:100320008CE3C82ED12CE12CF12CC501B401A7011E
:1003300096010E94C315B62ECA01B901A701960104
:100340000E94C315462F10929E0210929D0229ED25
:1003500032E03093A00220939F023093A2022093B8
:10036000A1022AE08B2D622F0E946E151F929F938F
:100370001F928F93842F0E946E151F929F931F923E
:100380008F93C2016AE070E00E947A159F938F9369
:100390007F936F9385EC90E09F938F938DE690E031
:1003A0009F938F938BE992E09F938F930E94DF0935
:1003B0008DB79EB742960FB6F8949EBF0FBE8DBF05
:1003C000FF90EF90DF90CF90BF90AF909F908F9075
:1003D0007F906F905F904F90089510929E021092C0
:1003E0009D0229ED32E03093A00220939F023093CA
:1003F000A2022093A1029F938F9385EC90E09F939C
:100400008F9388E690E09F938F938BE992E09F9380
:100410008F93D5D78DB79EB708960FB6F8949EBF29
:100420000FBE8DBF0895CF92DF92EF92FF920F9390
:100430001F93CF93DF93CDB7DEB72C970FB6F89409
:10044000DEBF0FBECDBF0E94040D0E941A108C01AA
:10045000009709F4F5C061E070E080E090E04AD6D2
:1004600010929E0210929D0289ED92E09093A0025C
:1004700080939F029093A2028093A1020D551D4F7D
:1004800045E050E0B80187E591E00E943A18892BD9
:1004900019F06DE571E0C5C0780185E0E80EF11C4A
:1004A000F8018581803211F41CDFBEC04AE050E0C3
:1004B000B70182E791E00E943A18892B21F4C9DE46
:1004C0008DE791E00CC04CE050E0B7018EE891E080
:1004D0000E943A18892B39F4B0DE8BE991E07DDF78
:1004E00010929A02A1C04CE050E0B7018EEA91E070
:1004F0000E943A18892B21F4B8DE8BEB91E0EFCF04
:100500004CE050E0B70186ED91E00E943A18892B4B
:1005100039F483EE91E061DF81E080939A0284C038
:100520004CE050E0B7018AEF91E00E943A18892B25
:1005300019F489E092E0D3CF49E050E0B70181E2BD
:1005400092E00E943A18892B09F037C066E872E001
:10055000CE01079628D4F8016685CE01079611D5FD
:10056000F8016785CE0107960CD5CE01079633D5E5
:100570006B017C014AE0CE0101969ED4BE016F5F03
:100580007F4FCE01079677D4CE010196A1D36BE2BF
:1005900072E0CE010796E6D463E372E087E994E067
:1005A000AFD24AE050E0B60187E994E069D38F8189
:1005B000988513DF10929A022EC047E050E0B701F1
:1005C00087E492E00E943A18892B49F506DE4AE05A
:1005D000BC01CE01079670D480919A02BE01695F7A
:1005E0007F4F882331F0CE0101963DD46FE472E055
:1005F00005C0CE01019637D465E572E0CE010196C3
:10060000D2D4BC01CE01079619D4CE01019660D395
:100610008F819885E2DECE0107965AD305C06DE53D
:1006200072E087E994E087D28091A1029091A202C2
:1006300020919F023091A002821B930B0E94FF0E1B
:100640002C960FB6F894DEBF0FBECDBFDF91CF91D1
:100650001F910F91FF90EF90DF90CF90089510922F
:100660009E0210929D0280E792E090939C028093FC
:100670009B020895FC01818D228D90E0805C9F4F4C
:10068000821B91098F7399270895FC01918D828DAA
:10069000981731F0828DE80FF11D858D90E0089557
:1006A0008FEF9FEF0895FC01918D828D981761F077
:1006B000828DDF01A80FB11D5D968C91928D9F5F99
:1006C0009F73928F90E008958FEF9FEF089583EDD1
:1006D00094E0892B41F080E090E0892B21F063D1F8
:1006E00081110C9400000895FC01848DDF01A80F96
:1006F000B11DA35ABF4F2C91848D90E001968F734A
:100700009927848FA689B7892C93A089B1898C9168
:1007100080648C93938D848D981306C00288F3892E
:10072000E02D80818F7D80830895CF93DF93EC014E
:10073000888D8823C1F0EA89FB89808185FD05C009
:10074000A889B9898C9186FD0EC00FB607FCF5CF3C
:10075000808185FFF2CFA889B9898C9185FFEDCF83
:10076000CE01C2DFE8CFDF91CF910895CF92DF9223
:10077000FF920F931F93CF93DF931F92CDB7DEB7F6
:100780006C0181E0D60158968C9358975B969C91AA
:100790005B975C968C915C97981307C05096ED918F
:1007A000FC915197808185FD2DC0F601038D10E0ED
:1007B0000F5F1F4F0F731127F02EF601848DF81273
:1007C00010C00FB607FCF9CFD6015096ED91FC9101
:1007D0005197808185FFF1CFC601698385DF6981EB
:1007E000ECCF838DE80FF11DE35AFF4F6083D601F4
:1007F0005B960C935B975296ED91FC915397808199
:1008000080620CC0D6015696ED91FC91579760839B
:100810005096ED91FC91519780818064808381E0B6
:1008200090E00F90DF91CF911F910F91FF90DF909B
:10083000CF900895BF92CF92DF92EF92FF92CF9325
:10084000DF93EC016A017B01B22EE889F98982E02D
:100850008083411581EE580761057105A1F060E0C4
:1008600079E08DE390E0A70196010E94A115215047
:100870003109410951095695479537952795211515
:1008800080E1380798F0E889F989108260E874E817
:100890008EE190E0A70196010E94A1152150310937
:1008A000410951095695479537952795EC85FD8562
:1008B0003083EE85FF852083188EEC89FD89B08218
:1008C000EA89FB89808180618083EA89FB89808154
:1008D00088608083EA89FB89808180688083EA89D7
:1008E000FB8980818F7D8083DF91CF91FF90EF9096
:1008F000DF90CF90BF9008951F920F920FB60F9286
:1009000011242F938F939F93EF93FF93E091A7046C
:10091000F091A8048081E091AD04F091AE0482FDD5
:1009200012C090818091B0048F5F8F732091B104C9
:10093000821751F0E091B004F0E0E956FB4F958F3B
:100940008093B00401C08081FF91EF919F918F91BE
:100950002F910F900FBE0F901F9018951F920F921E
:100960000FB60F9211242F933F934F935F936F9382
:100970007F938F939F93AF93BF93EF93FF9387E9F9
:1009800094E0B2DEFF91EF91BF91AF919F918F9173
:100990007F916F915F914F913F912F910F900FBE7B
:1009A0000F901F90189587E994E064DE21E0892B71
:1009B00009F420E0822F089510929A04109299046D
:1009C00088EE93E0A0E0B0E080939B0490939C04B9
:1009D000A0939D04B0939E0488E792E090939804BE
:1009E0008093970485EC90E09093A4048093A304F3
:1009F00084EC90E09093A6048093A50480EC90E0B2
:100A00009093A8048093A70481EC90E09093AA04AB
:100A10008093A90482EC90E09093AC048093AB04A3
:100A200086EC90E09093AE048093AD041092B004F5
:100A30001092B1041092B2041092B3040895CF92B0
:100A4000DF92EF92FF920F931F93CF93DF937C017E
:100A50006A01EB0100E010E00C151D0571F06991D1
:100A6000D701ED91FC910190F081E02DC70109952E
:100A7000892B19F00F5F1F4FEFCFC801DF91CF9186
:100A80001F910F91FF90EF90DF90CF900895611527
:100A9000710581F0DB010D900020E9F7AD014150B7
:100AA0005109461B570BDC01ED91FC910280F3814B
:100AB000E02D099480E090E00895EF92FF920F936B
:100AC0001F93CF93DF938C017B01C0E0D0E0F7014F
:100AD000EC0FFD1F6491662359F0F801A081B181EC
:100AE000ED91FC91C8010995892B11F02196EFCF6A
:100AF000CE01DF91CF911F910F91FF90EF9008955C
:100B0000C6CFDC01ED91FC910190F081E02D0994BC
:100B100064E872E0BCCF0F931F93CF93DF93EC0197
:100B2000CCDF8C01CE01F4DF800F911FDF91CF91DC
:100B30001F910F9108950F931F93CF93DF93EC01B3
:100B4000A6DF8C01CE01E4DF800F911FDF91CF91F2
:100B50001F910F9108958F929F92AF92BF92DF9253
:100B6000EF92FF920F931F93CF93DF93CDB7DEB732
:100B7000A1970FB6F894DEBF0FBECDBF7C01F42F56
:100B8000D52ECB0119A2223008F42AE08E010F5D88
:100B90001F4F822E912CA12CB12C6F2F7D2DA501E2
:100BA00094010E94A115F22FD32ECA010150110900
:100BB0006A3014F4E0E301C0E7E3E60FD801EC93F8
:100BC000232B242B252B49F7B801C70160DFA19601
:100BD0000FB6F894DEBF0FBECDBFDF91CF911F914E
:100BE0000F91FF90EF90DF90BF90AF909F908F900C
:100BF0000895CF92DF92EF92FF920F931F93CF93BE
:100C0000DF93EC016A017B012115310579F4E8815C
:100C1000F9810190F081E02D642FDF91CF911F9138
:100C20000F91FF90EF90DF90CF9009942A3031051B
:100C3000D9F477FF18C06DE264DF8C014427552793
:100C4000BA014C195D096E097F092AE0CE0183DFE4
:100C5000800F911FDF91CF911F910F91FF90EF9027
:100C6000DF90CF9008952AE0B701A601CE01DF9171
:100C7000CF911F910F91FF90EF90DF90CF906BCFAE
:100C80000F931F93CF93DF93EC019A01AB0166277B
:100C900057FD6095762FADDF8C01CE0139DF800FD7
:100CA000911FDF91CF911F910F910895211531056B
:100CB00041F4DC01ED91FC910190F081E02D642F75
:100CC000099449CF9A01462F50E060E070E0EECFE2
:100CD000FC01808191810C949C16CF93DF93EC01F1
:100CE00088819981009711F00E949C1619821882C0
:100CF0001D821C821B821A82DF91CF9108950F936F
:100D00001F93CF93DF93EC018B016F5F7F4F88813F
:100D100099810E942B17009731F0998388831B8358
:100D20000A8381E001C080E0DF91CF911F910F9194
:100D30000895CF93DF93EC0188819981892B29F065
:100D40008A819B818617970758F4CE01D8DF8823C4
:100D500041F08C819D81892B19F4E881F981108201
:100D600081E0DF91CF910895EF92FF920F931F934F
:100D7000CF93DF93EC017B018A01BA01DADF8111A5
:100D800003C0CE01AADF07C01D830C83B701888191
:100D900099810E943318CE01DF91CF911F910F915D
:100DA000FF90EF900895FC0111821082138212824D
:100DB000158214826115710551F0FB01019000202C
:100DC000E9F7AF0141505109461B570BCDCF0895AC
:100DD0000F931F93CF93DF938C01EB01FC01808174
:100DE0009181009799F0428153812C813D81421776
:100DF000530750F0688179810E9433188C819D815E
:100E0000F8019583848313C00E949C168881998180
:100E1000F801918380838A819B81938382838C8173
:100E20009D8195838483198218821B821A821D8278
:100E30001C82DF91CF911F910F910895CF93DF9383
:100E4000EC01FB018617970751F0608171816115F4
:100E5000710521F04481558187DF01C03EDFCE015D
:100E6000DF91CF910895FC011182108213821282CA
:100E700015821482E3CFCF93DF93EC018617970797
:100E800009F0A6DFCE01DF91CF910895CF93DF93D4
:100E9000EC016115710559F0FB0101900020E9F7A3
:100EA000AF0141505109461B570B5EDF01C015DFF2
:100EB000CE01DF91CF9108950F931F93CF93DF93CE
:100EC000CDB7DEB762970FB6F894DEBF0FBECDBFC9
:100ED0008C01CB01F80111821082138212821582DB
:100EE000148250E0BE016F5F7F4F0E944818BE0120
:100EF0006F5F7F4FC801CADF62960FB6F894DEBFFE
:100F00000FBECDBFDF91CF911F910F910895EF924A
:100F1000FF920F931F93CF93DF93EC017B010C8122
:100F20001D816115710511F480E015C04115510551
:100F300089F0040F151FB801FCDE8823A9F328816E
:100F400039818C819D81B701820F931F0E943318D4
:100F50001D830C8381E0DF91CF911F910F91FF9052
:100F6000EF9008956115710551F0FB01019000208B
:100F7000E9F7AF0141505109461B570BC8CF80E03C
:100F80000895CF93DF9300D0CDB7DEB769831A827F
:100F900041E050E0BE016F5F7F4FB9DF0F900F90CF
:100FA000DF91CF910895CF93DF93EC016115710527
:100FB00061F0FB0101900020E9F7AF0141505109B8
:100FC000461B570BA4DF811102C0CE0186DECE0185
:100FD000DF91CF910895FC0180819181009711F0FC
:100FE0000C94EE1760E070E0CB0108950895B9D03D
:100FF000FDDF47D9C7E6D3E016DA2097E9F367DBD0
:10100000FBCF1F920F920FB60F9211242F933F9395
:101010008F939F93AF93BF93809135059091360541
:10102000A0913705B09138053091340523E0230FA6
:101030002D3720F40196A11DB11D05C026E8230F10
:101040000296A11DB11D2093340580933505909320
:101050003605A0933705B0933805809139059091F6
:101060003A05A0913B05B0913C050196A11DB11D2B
:101070008093390590933A05A0933B05B0933C05C6
:10108000BF91AF919F918F913F912F910F900FBE84
:101090000F901F9018952FB7F894609135057091B7
:1010A000360580913705909138052FBF08953FB7D9
:1010B000F8948091390590913A05A0913B05B09143
:1010C0003C0526B5A89B05C02F3F19F00196A11D30
:1010D000B11D3FBF6627782F892F9A2F620F711D90
:1010E000811D911D42E0660F771F881F991F4A9549
:1010F000D1F708958F929F92AF92BF92CF92DF92D5
:10110000EF92FF926B017C01D2DF4B015C01C114B5
:10111000D104E104F104E1F013D1C9DF68197909C0
:101120008A099B09683E73408105910580F321E09F
:10113000C21AD108E108F10888EE880E83E0981EF3
:10114000A11CB11CC114D104E104F10431F7DFCFBB
:10115000FF90EF90DF90CF90BF90AF909F908F90D7
:101160000895789484B5826084BD84B5816084BD1F
:1011700085B5826085BD85B5816085BDEEE6F0E010
:10118000808181608083E1E8F0E01082808182606C
:101190008083808181608083E0E8F0E080818160ED
:1011A0008083E1EBF0E0808184608083E0EBF0E01D
:1011B000808181608083EAE7F0E0808184608083C1
:1011C000808182608083808181608083808180686B
:1011D00080831092C10008958E3008F08E50877081
:1011E0002091100190E4299F90011124822B80937B
:1011F0007C0080917A00806480937A0080917A00EC
:1012000086FDFCCF809178002091790090E0922BB0
:101210000895833081F028F4813099F08230A1F074
:1012200008958730A9F08830B9F08430D1F48091E6
:1012300080008F7D03C0809180008F778093800035
:10124000089584B58F7702C084B58F7D84BD0895DD
:101250008091B0008F7703C08091B0008F7D809324
:10126000B0000895CF93DF9390E0FC01E85EFE4F5D
:101270002491FC01E45DFE4F8491882349F190E0C4
:10128000880F991FFC01E65BFE4FA591B491805C2D
:101290009E4FFC01C591D4919FB7611108C0F8948D
:1012A0008C91209582238C93888182230AC062309E
:1012B00051F4F8948C91322F309583238C9388814C
:1012C000822B888304C0F8948C91822B8C939FBFCF
:1012D000DF91CF9108950F931F93CF93DF931F92C8
:1012E000CDB7DEB7282F30E0F901EC5FFE4F8491D7
:1012F000F901E85EFE4F1491F901E45DFE4F04919F
:101300000023C1F0882319F0698383DF6981E02F0E
:10131000F0E0EE0FFF1FE05CFE4FA591B4919FB788
:10132000F8948C91611103C01095812301C0812B29
:101330008C939FBF0F90DF91CF911F910F910895D4
:101340000895CF93DF93EC01FB018A30910540F0C3
:101350006AE070E00E947A15CB01BF01F2DFFC0168
:10136000CE016AE070E00E947A15805D8083118270
:10137000CF010196DF91CF910895E82FF0E093E03F
:10138000F595E7959A95E1F7ED59FA4F877041E0A9
:1013900050E060E070E004C0440F551F661F771FE7
:1013A0008A95D2F78081842B80830895CF93C8E3F8
:1013B000C15019F08C2FE1DFFBCFCF910895AF9290
:1013C000BF92CF92DF92EF92FF920F931F93CF9332
:1013D000DF93CDB7DEB70D851E85EF84F8885E01FB
:1013E00021E1A20EB11CC7010196F70144914423EB
:1013F00009F4D8C0443279F0D8011696ED91FC91E9
:1014000017979F012F5F3F4F17963C932E93169788
:1014100040837C01E8CFB2E0EB0EF11CFC0184912B
:10142000863409F472C064F48434C9F0853409F058
:101430009CC0F50180819181F2E0AF0EB11C7DC0AE
:10144000D80116964D915C9117978C3409F445C0DC
:10145000833509F44FC0883409F087C00CC065019A
:10146000B2E0CB0ED11CF80166817781D5018D9158
:101470009C9167DF88C095012E5F3F4FF501608129
:10148000862F992787FD9095E4E095958795EA95B5
:10149000E1F78F70962F9F709A300CF0995F70E390
:1014A000D72ED90E8A300CF0895FBA016F5F7F4F5B
:1014B000D80117967C936E931697805DFA0180830E
:1014C0001696ED91FC911797CF01019617969C9374
:1014D0008E931697D082590186CF6501F4E0CF0E26
:1014E000D11CD5016D917D918D919C912AE00E9436
:1014F0005C1849C06501B2E0CB0ED11CF5016081DA
:101500007181CA010E9433183EC0F5010190F0813B
:10151000E02D22E0A20EB11C2491AF014F5F5F4F7E
:10152000222309F460CFF801A681B781CD0101968D
:10153000978386832C93FA01EFCF6C01BFEFCB1A10
:10154000DB0A0E94B918882309F44DCFD8011696FA
:10155000ED91FC9117979F012F5F3F4F17963C939A
:101560002E9316978083C601E8CFD8011696ED9189
:10157000FC9117979F012F5F3F4F17963C932E9337
:101580001697808330CFD8011696ED91FC9117976E
:1015900001900020E9F731971796FC93EE93169788
:1015A000560121CFDF91CF911F910F91FF90EF90C6
:1015B000DF90CF90BF90AF9008950F931F93CF937C
:1015C000DF9300D01F92CDB7DEB78C01109240059B
:1015D00088E34B8369837A83E9DE69817A818DE5CB
:1015E00095E00E9402134B816DE575E0C8010F90F4
:1015F0000F900F90DF91CF911F910F9123C1EF9228
:10160000FF920F931F93CF93DF938B017A01E90130
:1016100010924005009721F0BC0189E595E0E7D7DD
:101620000115110511F0C80171D4E114F10421F084
:10163000B70185E495E0DBD7209721F0BE0185E571
:1016400095E0D5D76ED410923E0510923D0581E00D
:10165000DF91CF911F910F91FF90EF9008958EBD74
:101660000DB407FEFDCF089561E080916D0533DE76
:1016700078940895F89460E080916D052CCE1F93C6
:10168000CF93DF9300D0CDB7DEB7182F4A8369839D
:10169000F1DF6981862F8F71812BE1DF4A81842FF1
:1016A000DEDF0F900F90DF91CF911F91DDCF1F9361
:1016B000CF93DF93182F1076C12FD0E020916E05C5
:1016C00030E0C217D30791F043E06FE180EAD7DF43
:1016D00010936E05AE0185E0559547958A95E1F723
:1016E0006FE180E8DF91CF911F91C9CFDF91CF915A
:1016F0001F9108951F93CF93DF931F92CDB7DEB74D
:10170000182F6983D4DF4981612F80E40F90DF9126
:10171000CF911F91B4CF1F93CF93DF931F92CDB77B
:10172000DEB7182F7983E6DF7981672F81E0810F9B
:101730000F90DF91CF911F91DDCF0F931F93CF9328
:10174000DF93EC018B0196DF209729F4DF91CF9195
:101750001F910F9189CF8AE782DFF80181918EBDB9
:10176000C00FD11FEC17FD0731F081910DB407FEBA
:10177000FDCF8EBDF7CF0DB407FEFDCFE7CF0F93A2
:101780001F93CF93DF93EC018B0174DF2097B9F0A7
:101790008AE365DF1EBCF801CE010197009739F09E
:1017A0000DB407FEFDCF2EB51EBC2193F6CF2197B9
:1017B000C00FD11F0DB407FEFDCF8EB58883DF911A
:1017C000CF911F910F9150CF1F93CF93DF931F9213
:1017D000CDB7DEB7182F4EDF812F8F7140DF80E04D
:1017E0003EDF17FF02C080E03ADF8EB589833CDF21
:1017F00089810F90DF91CF911F910895CF93C82FCA
:1018000056DF8C2FCF91E0CF61E08AE02BDD61E0E5
:101810008AE061DD61E08BE025DD61E08DE022DDC5
:1018200060E08CE01FDD61E08BE055DD60E08BE087
:1018300052DD60E08DE04FDD80E58CBD8DB58160CF
:101840008DBD08950F931F93CF93DF931F92CDB754
:10185000DEB78B0190937105809370050CB406FC84
:1018600003C04983D1DF498140936D0561E0842F36
:10187000F9DCFADE4FEF60E08FEF01DF62E070E04D
:1018800080E090E037DC8DE19FDF8823E1F360E0CA
:1018900070E088E040DF60E070E08CE03CDF6FEFFC
:1018A0007BE08AE038DF60E07CE084E034DF6FEFEB
:1018B00071E186E030DF61EB88E31CDF6FE370E30A
:1018C00088E229DF69EF77EF80E325DF6DE080ECC8
:1018D00011DF60E081EC0EDF42E362EC80E8CFDEF6
:1018E00062E17CE086EC17DF62E184EC03DF6CED03
:1018F00075E08AEC10DFF801608184EEFBDEF80110
:10190000618185EEF7DEF801628182EEF3DEF80197
:10191000638183EEEFDEF801648180EEEBDEF80197
:10192000658181EEE7DE60E184EDE4DE60E071E098
:1019300086EDF1DE8AEE62DF80FDFCCF8FE1B7DE5F
:1019400040EC6BE180E89BDE44E06FE180E897DEED
:1019500082E754DF863008F08F5F0F90DF91CF91E0
:101960001F910F91089561E184EDC4DE61E082ED85
:10197000C1DE8AEE43DF80FDFCCF60E082EDBADE9F
:1019800089ED3CDF82FB882780F90895CF93DF93B0
:10199000EC0140E86FE180E872DE40E86FE180EA48
:1019A0006EDE4AE06CE180EA6ADE60E07CE082E0C4
:1019B000B2DEBE01745F86E0AEDE40E060E08AE742
:1019C0005EDE63EA72E0CE01B8DE48E06FE180E8F7
:1019D00056DEC0E0D0E08CE111DF8A7029F4219658
:1019E000C83E83E0D807B9F78CE108DF81FD03C06A
:1019F000C83ED34030F048E06FE180EADF91CF91FC
:101A00003ECEDF91CF9108950F931F93CF93DF9335
:101A100000D000D000D0CDB7DEB780916C05882310
:101A200081F060916A0570916B056115710519F47B
:101A30006FEF7BE002C0615071098CE06CDE1092A8
:101A40006C0589E3DBDE8823A9F160916A0570915A
:101A50006B0580E060DEBE016F5F7F4F86E090E047
:101A60008EDE89819A8190936B0580936A058B81C4
:101A70009C8100917005109171052D8127FF0CC08C
:101A80000497015011098017910708F48C0163EA4B
:101A900072E0C80174DE02C000E010E0F801ED550C
:101AA000FD4F108281E080936C0540E46EE180E898
:101AB000E6DD02C000E010E0C80126960FB6F894FB
:101AC000DEBF0FBECDBFDF91CF911F910F91089563
:101AD000CF93C82F88E392DE682F616088E30ADE27
:101AE000C11103C081E080936F05CF9108958111EA
:101AF00002C010926F0580916F05811106C088E3C6
:101B00007DDE682F6E7F88E3F5CD08950F931F93D8
:101B1000CF93DF9370E06D557D4F213021F48A0122
:101B2000075F1F4F05C0223031F48A0102501109AE
:101B300020E030E003C000E010E09801DB01FA0192
:101B4000E230F10578F0CC91D0E0DC2FCC27119673
:101B50009C911197C92B0C0F1D1F211D311D129631
:101B60003297EECFDA01AE7FA60FB71F40FF0CC051
:101B70004C9150E060E070E0762F652F542F4427A1
:101B8000040F151F261F371FA90166277727411548
:101B900051056105710519F022273327F1CF009512
:101BA0001095E82FF0E0ED55FD4F10830183DF9194
:101BB000CF911F910F9108951092BB021092BC0219
:101BC00080E48093B7021092B8028093B90220E0BB
:101BD00044E150E06EE088E199CF2091C702309156
:101BE000C5023093C7022093C5022091C8023091EC
:101BF000C6023093C8022093C602EDECF2E0A1EDDC
:101C0000B2E02291820F911D2E918C93662311F0E8
:101C1000208301C01082892F992722E0E93CF20736
:101C200081F71092D5021092D60280E58093D102FE
:101C30000895CF93DF93EC0188969093B30280933D
:101C4000B402BADF1092D5021092D602AE01445E01
:101C50005F4F22E06AE182E359DFCE01C696DF9151
:101C6000CF9194CEBC0183EA92E0CCD46DE575E0CF
:101C700089EA92E0C7C489EA92E0F4DF6DEB72E092
:101C800081EC92E0B4D469E575E08DEB92E0AFD4DD
:101C900093CF262F20612093D202643021F0009749
:101CA00011F481E090E061E098DF1092B30288E2E5
:101CB0008093B402E0DF84E08093D3021092D402D8
:101CC00022E04CE150E06AE182E320DF86E390E02D
:101CD0005DCECF93DF9300D0CDB7DEB769837A8333
:101CE000C1DF69817A8181EC92E081D469E575E098
:101CF0008DEB92E00F900F90DF91CF9178C41F93FE
:101D0000CF93DF93EC0183E992E0ACDF88E080932E
:101D1000AF0216E01093B00248E050E06DE571E0CC
:101D200081EB92E00E941418E3ECF2E0DF011D92D7
:101D30001A95E9F76DE575E089EB92E063D4BE0191
:101D400089EC92E054D469E575E08FEB92E04FD4D2
:101D50008AE290E0DF91CF911F9118CECF93DF936D
:101D6000EB0144E050E0BC018FEB92E00E941D18B3
:101D7000892B31F469EB72E0CE0144D481E001C0DB
:101D800080E0DF91CF910895CF93DF9320915905A3
:101D90002223A9F0FC012081222389F0E9E5F5E066
:101DA000EC01A5E5B5E0219189919D9182278923D8
:101DB00031F485E0ED35F807B1F781E001C080E04E
:101DC000DF91CF9108958091B30290E0982F8827FA
:101DD0002091B402822B44972091D10230E064E03C
:101DE000359527956A95E1F7220F331F220F331F90
:101DF000821B930B97FF02C080E090E00895CF9381
:101E0000DF93EC0160E0809172059091730541DFF2
:101E100089E18093D202CE01DF91CF910ACFCF9298
:101E2000DF92EF92FF920F931F93CF93DF93F82EE1
:101E3000E92EEB01D42EC52ECB01A6DFBE018823EF
:101E400019F08FE795E002C085E795E042DF288131
:101E5000207F203E91F0088119812A813B810F3F2C
:101E60001F4F2F4F3F4F49F044E050E0BE0181E546
:101E700095E00E941D18892B29F463E972E083EA3A
:101E800092E0C0D388E08093AF021092B00249E0A4
:101E900050E064E571E081EB92E00E94141810922A
:101EA000B30281E18093BA02C092C702D092C80205
:101EB000E092C502F092C6021092C9021092CB02C3
:101EC0001092CC02DF91CF911F910F91FF90EF9074
:101ED000DF90CF900895CF93DF93EC014C969093D1
:101EE000B3028093B40268DECE0108969093C902D3
:101EF0008093CA02AE01405F5F4F21E06AE188E251
:101F000005DECE018A96DF91CF9140CD10923E053D
:101F100010923D0521E020937405BC018DE495E00D
:101F200066C3CF93DF93E9E5F5E0C5E5D5E0A1E52C
:101F3000B5E0919189918095892B8D9385E0ED3560
:101F4000F807B9F7DF91CF9108951F93CF93DF93EF
:101F5000EB014091C70250E0292F30E042175307B0
:101F600009F060C09091C80298135CC01091D20231
:101F700011FF37C01092B3028CE28093B4027BDE73
:101F800082E18093D20260E081E090E026DE109250
:101F9000C9021092CA02809113018093CB02109261
:101FA000CC028D5F8093130182E08093D90284E09C
:101FB0008093DA0285E08093DB021092DC0290E6E7
:101FC0009093D1028093D30288E78093D40222E0D9
:101FD00040E250E06AE182E399DD8AE390E0D6DCFA
:101FE00021C014FF1FC0EFDE90937305809372052C
:101FF000892B91F02091D10230E044E0359527956E
:102000004A95E1F7220F331F220F331F2E5D3F4FFA
:10201000C217D30750F406C010FF04C060E080E090
:1020200090E037DE80E090E001C0C901DF91CF9100
:102030001F910895EF92FF920F931F93CF93DF9319
:102040001F92CDB7DEB77C0180914005882311F047
:10205000C701FCD3E114F10409F0B3C08091740509
:10206000857049F080913D0590913E05892B19F4CA
:102070007ADC8111BDC080913D0590913E050196AD
:1020800090933E0580933D0580918D05813009F048
:1020900076C08091740581FF72C082E080938D05C7
:1020A000809114018F5F8093140110918B05009132
:1020B0008C058F71F82E80918E0520E2829FC001E1
:1020C0001124F82A81E495E05FDE61E475E088235D
:1020D00019F08FE795E002C085E795E0FADDE8E0CA
:1020E000EE2EE092AF021092B00249E050E064E5BB
:1020F00071E081EB92E098D78CE28093B40286E0A5
:102100008093BA0259DD0093C7021093C8028BE096
:102110008093C502F092C602E9ECF2E0DF011D9265
:10212000EA94E9F7809113018093CB028D5F80934D
:10213000130180E68093D10282E08093D20293E083
:102140009093D3021092D4021092D5021092D6022C
:102150001092D7021092D8028093D90294E0909303
:10216000DA028093DB0286E28093DC0222E040E226
:1021700050E06AE182E3CADC8AE390E007DC85E4B0
:1021800095E002DE882341F080917D05811104C035
:1021900080917E058823A9F181E495E0F5DD88230F
:1021A00009F4B9C180917B058111B5C180917C058D
:1021B0008111B1C181E495E0A2DD81E080937C05CD
:1021C000AAC1B9E2EB16F10408F4A5C11091AF025F
:1021D0001830F1F48091B0028630D1F444E050E040
:1021E00069E575E089EC92E028D7892B89F440C035
:1021F0008DE495E084DD809174058860809374059A
:102200003ACF85E495E07BDD81E080937E05C4CF05
:10221000FAE2EF16F10408F47EC1183009F07BC130
:102220008091B002811177C18091B102853409F0AB
:1022300072C144E050E069E575E081EC92E0FDD6C2
:10224000892B09F476C044E050E061E575E081EC4B
:1022500092E0F3D6892B09F46CC044E050E063E9C6
:1022600072E081EC92E0E9D6892B09F054C161C09B
:102270008091B8028130F9F489EA92E0F3DC10929F
:10228000B70282E08093B80269EB72E083EC92E0DF
:10229000B9D16DE575E089EB92E0B4D16FEB72E0F6
:1022A00089EC92E0A4D169E575E08FEB92E09FD1D3
:1022B0008AE290E06BDB8091740583FF0BC0109184
:1022C000B802123039F465E775E08DE495E046DD3B
:1022D000811126C080917D0581110BC080917E0502
:1022E000882339F06FE775E085E495E037DD8111EB
:1022F0001AC080917B0581110EC180917C058823D5
:1023000009F409C16FE775E081E495E027DD8823D2
:1023100009F401C181E080937B0510927C05FBC02C
:1023200010937405D7CF81E080937D0510927E05D0
:10233000E0CF8091BA028130F9F48091C5028830F3
:10234000D9F4E0918505F0918605309719F08DEB71
:1023500092E0099590DC1092C5029091C702983FD7
:1023600028F08091C8028F5F8093C802985F909395
:10237000C702C7010BDBCFC0D8D0811105C0E6E38F
:10238000EE16F10430F4C7C08091BA028131B9F77A
:10239000BDC08091BA02863009F0BDC08091C702ED
:1023A0008B3009F0A6C044E050E061E475E08DEBAD
:1023B00092E043D6892B09F0AEC02091D20222FFD1
:1023C00013C0E0918905F0918A05309759F080910A
:1023D000C80220E030E040E050E063E0829586955E
:1023E0008770099585E073C02983EDDC8C018091AD
:1023F0008D052981823061F5822F80712271223111
:10240000D9F460E080E090E044DC88E18093D2027F
:10241000E0918705F0918805309739F08091C602E8
:10242000829586958770099502C080E090E023E050
:1024300020938D05FEDB6FC091E090938D05811197
:1024400003C0C801019602C080E090E064E039C09A
:10245000833009F03FC00115110509F43DC0E0913A
:102460008905F0918A053097B9F14091D10250E089
:1024700064E0559547956A95E1F7440F551F440F61
:10248000551FC70108974E5D5F4F8417950708F4E5
:10249000AC01C801840F951FE816F90620F49701D6
:1024A000241B350B01C098018091C80260E0829521
:1024B00086958770099580913F05882321F068E013
:1024C000C801E7DB28C069E0C801E3DB86E0809350
:1024D0008D0521C08530F9F020FF06C08330D9F08A
:1024E00069E0C8010196F1CF01151105A1F060E086
:1024F000E7CFB70180911101909112010F90DF9108
:10250000CF911F910F91FF90EF901FCDC70114D075
:10251000882309F434CF80E090E00F90DF91CF91D1
:102520001F910F91FF90EF90089581E090918F059A
:10253000911101C080E00895AF92BF92CF92DF92D7
:10254000EF92FF920F931F93CF93DF93C0E9D5E0F3
:1025500074E9C72E75E0D72EE12CF12C40E02091D4
:102560008F0530E0E216F306B4F55A819B81209185
:10257000C70230E0A92EB12C2A153B0521F5809128
:10258000C802851320C0F60120812223E1F00091CA
:10259000CA0210E0085011092091C90230E0322F20
:1025A0002227020F131F4091C50250E0542F4427E9
:1025B0002091C602422BE881F9812DEC32E06DEBCF
:1025C00072E0099541E0FFEFEF1AFF0A259685E0DA
:1025D000C80ED11CC4CF842FDF91CF911F910F91D2
:1025E000FF90EF90DF90CF90BF90AF900895FB01E8
:1025F0004081518162817381FC01408351836283F8
:102600007383089526E0FB01DC0101900D922A9569
:10261000E1F708951F93CF93DF93EC0110E06991E8
:102620004AE050E087E994E00E946206133029F006
:102630006EE287E994E00E9481051F5F143079F70C
:10264000DF91CF911F910895CF93DF93EB01BC01F0
:1026500087E994E00E948005CE01DCDF87E994E001
:10266000DF91CF910C948805E091BB05F091BC05FA
:102670009F012F5F3F4F3093BC052093BB058083A4
:1026800008951F93CF93DF93C62FD72F182F160FC0
:102690001C1719F08991E8DFFBCFDF91CF911F91D3
:1026A0000895CF93DF93EC0186E191E0E3EAF2E055
:1026B000DF019C011D9221503040E1F78091CD0552
:1026C000833019F469E475E002C063E972E043E421
:1026D00050E084E490E0A3DB63E972E083EA92E0F7
:1026E00091DF81E08093CD028093CE0286E08093DB
:1026F000CF024091C9055091CA056091CB057091F8
:10270000CC054093D1025093D2026093D3027093D0
:10271000D4028091CD05833029F469E575E089ED17
:1027200092E065DF6DE575E089EE92E06BDF89EBA5
:1027300093E09093BC058093BB0565E171E086E072
:10274000A0DF8091CD05811102C081E001C083E04E
:102750008BDF8DE389DF87E087DF81E085DF6DE553
:1027600075E086E08EDF8CE07FDF80E27DDF6BE16D
:1027700071E080E286DF209779F082E375DF84E004
:1027800073DFBE0184E07DDF86E36EDF84E06CDF13
:1027900069E475E084E075DFC091BA05C11102C03B
:1027A000D3E001C0D4E087E35FDF8D2F5DDF81E000
:1027B0005BDF83E059DF86E057DFCC2311F08C2FFD
:1027C00053DF8FEF51DF8091BB059091BC058D5C8D
:1027D0009240DF91CF917FCB0F931F93A62F86342A
:1027E000910580F12091C602233461F50091D10258
:1027F0001091D2022091D3023091D4024091C905A8
:102800005091CA056091CB057091CC05041715074E
:1028100026073707B9F4EDEBF3E08D559D4F9F0187
:102820002E5F3F4F41815081553319F452815A1721
:1028300039F0F901E40FF11DE817F90780F302C040
:1028400081E001C080E01F910F910895DF92EF9227
:10285000FF920F931F93CF93DF9300D000D0CDB79B
:10286000DEB78C018091CD05823009F490C030F440
:102870008823C9F1813009F44FC024C1833021F08D
:10288000843009F484C01EC18091BD059091BE05BD
:10289000A091BF05B091C0058F3F9F4FAF4FBF4F75
:1028A00009F410C10E944B080091C1051091C205A6
:1028B0002091C3053091C405601B710B820B930BF3
:1028C0000091BD051091BE052091BF053091C00556
:1028D000601771078207930708F4F4C089E595E053
:1028E000E0DE84E0E3C00E944B086093C90570936A
:1028F000CA058093CB059093CC0510925905109290
:102900005A0510925B0510925C0580E090E0C9DEEC
:1029100081E0DED881E0CAC062E0C8015DDF8823C3
:10292000F9F06DED72E0CE01019661DEEDEBF3E0C2
:102930000D551D4FBF016E5F7F4F81819081963392
:1029400021F489E495E053DE06C0FB01E80FF11D98
:10295000E017F10778F3CE010196A3DE82E0A6C06E
:102960000E944B080091C5051091C6052091C7052E
:102970003091C805601B710B820B930B613177425C
:102980008105910508F49EC01092CD059BC065E0BD
:10299000C80122DF882321F381E0A9D86DED72E020
:1029A00089E595E024DEEDEBF3E0C8018D559D4F00
:1029B0007C0180818F010E5F1F4FD1808630B1F086
:1029C00048F4813079F0833009F042C0B8018DE4D9
:1029D00095E00FC08A3379F08F3F09F448C0833304
:1029E000B9F509C0B80185E595E003C0B80185E4F3
:1029F00095E0FDDD3AC0F80184E040E050E0BA0126
:102A000091912227342F452F562F290F311D411D1B
:102A1000511D815019F0BA01A901F2CF2093BD05D3
:102A20003093BE054093BF055093C0052F3F9FEFE5
:102A3000390749075907C9F0A8EEB3E0C6D060933B
:102A4000BD057093BE058093BF059093C0050DC072
:102A5000E091B805F091B905309739F09091BA0539
:102A6000891303C04D2DB801099580E001C081E0B4
:102A7000F801ED0DF11D811104C0EE15FF0508F4FC
:102A800098CF0E944B086093C1057093C205809354
:102A9000C3059093C40580914D05882319F08DE4FA
:102AA00095E034DA83E08093CD050CC08093CD05AA
:102AB0000E944B086093C5057093C6058093C705B7
:102AC0009093C8050F900F900F900F90DF91CF91CA
:102AD0001F910F91FF90EF90DF900895991B79E07F
:102AE00004C0991F961708F0961B881F7A95C9F79E
:102AF00080950895AA1BBB1B51E107C0AA1FBB1FED
:102B0000A617B70710F0A61BB70B881F991F5A9579
:102B1000A9F780959095BC01CD01089597FB072EEC
:102B200016F4009406D077FD08D0E4DF07FC05D04A
:102B30003EF4909581959F4F0895709561957F4FD4
:102B40000895A1E21A2EAA1BBB1BFD010DC0AA1FEE
:102B5000BB1FEE1FFF1FA217B307E407F50720F006
:102B6000A21BB30BE40BF50B661F771F881F991F81
:102B70001A9469F760957095809590959B01AC01CA
:102B8000BD01CF010895052E97FB16F400940FD0D8
:102B900057FD05D0D6DF07FC02D046F408C050959B
:102BA0004095309521953F4F4F4F5F4F0895909539
:102BB0008095709561957F4F8F4F9F4F089515D0E9
:102BC000B7FF0895821B930B08950FD0A59F900D1A
:102BD000B49F900DA49F800D911D11240895EE0FB8
:102BE000FF1F0590F491E02D0994A29FB001B39FBF
:102BF000C001A39F700D811D1124911DB29F700D06
:102C0000811D1124911D0895CF93DF93823091058A
:102C100010F482E090E0E091D005F091D10520E041
:102C200030E0A0E0B0E0309739F1408151814817A1
:102C30005907B8F04817590771F4828193811097AA
:102C400029F013969C938E9312972CC09093D105E4
:102C50008093D00527C02115310531F04217530765
:102C600018F0A901DB0101C0EF019A01BD01DF01EC
:102C70000280F381E02DD7CF21153105F9F0281B13
:102C8000390B2430310580F48A819B8161157105EF
:102C900021F0FB019383828304C09093D10580933C
:102CA000D005FE01329644C0FE01E20FF31F81936E
:102CB000919322503109398328833AC02091CE055F
:102CC0003091CF05232B41F4209102013091030173
:102CD0003093CF052093CE05209100013091010162
:102CE0002115310541F42DB73EB7409104015091B3
:102CF0000501241B350BE091CE05F091CF05E217BD
:102D0000F307A0F42E1B3F0B2817390778F0AC010E
:102D10004E5F5F4F2417350748F04E0F5F1F5093EB
:102D2000CF054093CE058193919302C0E0E0F0E09F
:102D3000CF01DF91CF910895CF93DF93009709F4EE
:102D400087C0FC01329713821282C091D005D091C6
:102D5000D105209781F420813181280F391F80917E
:102D6000CE059091CF058217930779F5F093CF05A3
:102D7000E093CE056DC0DE0120E030E0AE17BF0766
:102D800050F412964D915C9113979D014115510598
:102D900009F1DA01F3CFB383A28340815181840F1B
:102DA000951F8A179B0771F48D919C911197840F41
:102DB000951F02969183808312968D919C91139713
:102DC000938382832115310529F4F093D105E09393
:102DD000D0053EC0D9011396FC93EE9312974D9106
:102DE0005D91A40FB51FEA17FB0779F480819181EB
:102DF000840F951F0296D90111969C938E93828120
:102E0000938113969C938E931297E0E0F0E08A8171
:102E10009B81009719F0FE01EC01F9CFCE010296DB
:102E200028813981820F931F2091CE053091CF05E3
:102E30002817390769F4309729F41092D1051092B8
:102E4000D00502C013821282D093CF05C093CE0565
:102E5000DF91CF910895A0E0B0E0E0E3F7E1A5C1F4
:102E6000EC01CB01209711F4CFDEB4C0FE01E60FD8
:102E7000F71F9E0122503109E217F30708F4A8C09A
:102E8000D9010D911C91119706171707B0F0053065
:102E9000110508F49BC0A801445051094617570773
:102EA00008F494C002501109061B170B01931193EB
:102EB0006D937C93CF0140DF89C05B01A01AB10AFA
:102EC0004E01800E911EA091D005B091D105612CCC
:102ED000712C60E070E0109709F449C0A815B9059D
:102EE000C9F5ED90FC901197670142E0C40ED11C2A
:102EF000CA14DB0478F147018A189B08640142E098
:102F0000C40ED11C1296BC9012971396AC91B5E0EA
:102F1000CB16D10440F0B282A38391828082D90182
:102F20008D939C9309C00E5F1F4F0E0D1F1DF9015D
:102F300011830083EB2DFA2F6115710531F0DB0150
:102F40001396FC93EE93129741C0F093D105E09352
:102F5000D0053CC06D917C9111976616770608F4F8
:102F60003B01BD0112960D90BC91A02DB4CF609194
:102F7000CE057091CF0568157905E9F468167906D4
:102F8000D0F440910001509101014115510541F4E7
:102F90004DB75EB76091040170910501461B570B58
:102FA000E417F507A8F4F093CF05E093CE05F901F7
:102FB000918380830BC028DE7C01009749F0A80133
:102FC000BE0148D0CE01B8DEC70104C0CE0102C0A8
:102FD00080E090E0CDB7DEB7EEE003C11F93FC01C7
:102FE00099278827BC01E89411911032E9F3193030
:102FF00010F01E30C8F31B3249F01D3241F46894C2
:1030000005C068D0610F711D811D911D1191105374
:103010001A30B8F33EF490958095709561957F4F86
:103020008F4F9F4F1F910895FB01DC0102C0059057
:103030000D9241505040D8F70895FB01DC0104C0C7
:103040008D910190801921F441505040C8F7881BA0
:10305000990B0895FB01DC0102C001900D924150D3
:103060005040D8F70895FB01DC0101900D9200203B
:10307000E1F70895FB01DC014150504030F08D91A3
:103080000190801919F40020B9F7881B990B089555
:103090004532510518F4423008F004C0FB0110829B
:1030A000CB010895BB274A3031F4992322F4BDE2C5
:1030B000909581959F4F45C0BB272A3051F49923A5
:1030C00042F4BDE290958095709561957F4F8F4F4A
:1030D0009F4F16C0592F482F372F262F660F771F67
:1030E000881F991F660F771F881F991F620F731F14
:1030F000841F951F660F771F881F991F0895BB2790
:10310000FA01A62F6217710581059105330B30FB7B
:1031100066F0AA27660F771F881F991FAA1FA2179C
:1031200010F0A21B63953850A9F7A05DAA3308F0F0
:10313000A95DA19336F7B111B1931082CA0121C0E4
:10314000BB27FB015527AA27880F991FAA1FA41781
:1031500010F0A41B83955051B9F7A05DAA3308F075
:10316000A95DA193009779F7B111B1931192CB01A9
:1031700008C0F999FECF92BD81BDF89A992780B514
:103180000895DC01FC01672F71917723E1F73297F5
:1031900004C07C916D9370836291AE17BF07C8F332
:1031A00008952F923F924F925F926F927F928F92EB
:1031B0009F92AF92BF92CF92DF92EF92FF920F93C6
:1031C0001F93CF93DF93CDB7DEB7CA1BDB0B0FB6D0
:1031D000F894DEBF0FBECDBF09942A88398848888D
:1031E0005F846E847D848C849B84AA84B984C88423
:1031F000DF80EE80FD800C811B81AA81B981CE0F1A
:10320000D11D0FB6F894DEBF0FBECDBFED010895FE
:04321000F894FFCF60
:103214000000D2052000C0A8026A7469692D30310B
:103224000150000A01638253633501417264756978
:103234006E6F2D3030000000000000000000000020
:10324400000000000000000000000041646472659A
:1032540073733A20687474703A2F2F006578706520
:10326400637465643A2000474554202F006E6F2034
:1032740076616C6964204745542072657175657385
:1032840074003F70616E656C3D7570200050616E16
:10329400656C7320676F696E672075702E003F70D0
:1032A400616E656C3D646F776E200050616E656C75
:1032B4007320676F696E6720646F776E2E003F70AE
:1032C400616E656C3D73746F70200050616E656C47
:1032D400732073746F707065642F6E6F74206D6FDC
:1032E40076696E672E003F70616E656C3D61757422
:1032F4006F20004175746F206D6F6465207377696A
:103304007463686564206F6E2E003F70616E656C37
:103314003D6D616E75616C20004175746F206D6F39
:103324006465207377697463686564206F66662ECC
:10333400003F646567726565733D0020262331375D
:10334400363B0070616E656C7320746F2064656732
:10335400726565733A20003F75706461746500207E
:103364006175746F00206D616E75616C00506167EA
:1033740065206E6F7420666F756E64000000000037
:10338400DD001F0500000000B6031F053A035303C8
:10339400450395030D0A006E616E00696E66006F49
:0A33A400766600FFFFFFFFFFFF0049
:00000001FF
